{
	"Voting.sol": {
		"Voting": {
			"abi": [
				{
					"inputs": [
						{
							"internalType": "string",
							"name": "",
							"type": "string"
						}
					],
					"name": "candidateToVotes",
					"outputs": [
						{
							"internalType": "uint256",
							"name": "",
							"type": "uint256"
						}
					],
					"stateMutability": "view",
					"type": "function"
				},
				{
					"inputs": [
						{
							"internalType": "string",
							"name": "cadidate",
							"type": "string"
						}
					],
					"name": "getVotes",
					"outputs": [
						{
							"internalType": "uint256",
							"name": "",
							"type": "uint256"
						}
					],
					"stateMutability": "view",
					"type": "function"
				},
				{
					"inputs": [],
					"name": "resetVotes",
					"outputs": [],
					"stateMutability": "nonpayable",
					"type": "function"
				},
				{
					"inputs": [
						{
							"internalType": "string",
							"name": "cadidate",
							"type": "string"
						}
					],
					"name": "vote",
					"outputs": [],
					"stateMutability": "nonpayable",
					"type": "function"
				}
			],
			"devdoc": {
				"kind": "dev",
				"methods": {},
				"version": 1
			},
			"evm": {
				"assembly": "    /* \"Voting.sol\":311:1452  contract Voting {... */\n  mstore(0x40, 0x80)\n  callvalue\n  dup1\n  iszero\n  tag_1\n  jumpi\n  0x00\n  dup1\n  revert\ntag_1:\n  pop\n  dataSize(sub_0)\n  dup1\n  dataOffset(sub_0)\n  0x00\n  codecopy\n  0x00\n  return\nstop\n\nsub_0: assembly {\n        /* \"Voting.sol\":311:1452  contract Voting {... */\n      mstore(0x40, 0x80)\n      callvalue\n      dup1\n      iszero\n      tag_1\n      jumpi\n      0x00\n      dup1\n      revert\n    tag_1:\n      pop\n      jumpi(tag_2, lt(calldatasize, 0x04))\n      shr(0xe0, calldataload(0x00))\n      dup1\n      0x26640ae6\n      eq\n      tag_3\n      jumpi\n      dup1\n      0x805265e5\n      eq\n      tag_4\n      jumpi\n      dup1\n      0xb9830ff1\n      eq\n      tag_5\n      jumpi\n      dup1\n      0xfc36e15b\n      eq\n      tag_6\n      jumpi\n    tag_2:\n      0x00\n      dup1\n      revert\n        /* \"Voting.sol\":384:434  mapping(string => uint256) public candidateToVotes */\n    tag_3:\n      tag_7\n      tag_8\n      calldatasize\n      0x04\n      tag_9\n      jump\t// in\n    tag_8:\n      dup1\n      mload\n      0x20\n      dup2\n      dup4\n      add\n      dup2\n      add\n      dup1\n      mload\n      0x00\n      dup3\n      mstore\n      swap3\n      dup3\n      add\n      swap2\n      swap1\n      swap4\n      add\n      keccak256\n      swap2\n      mstore\n      sload\n      dup2\n      jump\n    tag_7:\n      mload(0x40)\n        /* \"#utility.yul\":1219:1244   */\n      swap1\n      dup2\n      mstore\n        /* \"#utility.yul\":1207:1209   */\n      0x20\n        /* \"#utility.yul\":1192:1210   */\n      add\n        /* \"Voting.sol\":384:434  mapping(string => uint256) public candidateToVotes */\n      mload(0x40)\n      dup1\n      swap2\n      sub\n      swap1\n      return\n        /* \"Voting.sol\":966:1089  function getVotes(string calldata cadidate) public view returns(uint256) {... */\n    tag_4:\n      tag_7\n      tag_14\n      calldatasize\n      0x04\n      tag_15\n      jump\t// in\n    tag_14:\n      tag_16\n      jump\t// in\n        /* \"Voting.sol\":1161:1449  function resetVotes() public {... */\n    tag_5:\n      tag_18\n      tag_19\n      jump\t// in\n    tag_18:\n      stop\n        /* \"Voting.sol\":648:896  function vote(string calldata cadidate) public {... */\n    tag_6:\n      tag_18\n      tag_21\n      calldatasize\n      0x04\n      tag_15\n      jump\t// in\n    tag_21:\n      tag_22\n      jump\t// in\n        /* \"Voting.sol\":966:1089  function getVotes(string calldata cadidate) public view returns(uint256) {... */\n    tag_16:\n        /* \"Voting.sol\":1030:1037  uint256 */\n      0x00\n        /* \"Voting.sol\":1056:1072  candidateToVotes */\n      dup1\n        /* \"Voting.sol\":1073:1081  cadidate */\n      dup4\n      dup4\n        /* \"Voting.sol\":1056:1082  candidateToVotes[cadidate] */\n      mload(0x40)\n      tag_24\n      swap3\n      swap2\n      swap1\n      tag_25\n      jump\t// in\n    tag_24:\n      swap1\n      dup2\n      mstore\n      0x20\n      add\n      mload(0x40)\n      dup1\n      swap2\n      sub\n      swap1\n      keccak256\n      sload\n        /* \"Voting.sol\":1049:1082  return candidateToVotes[cadidate] */\n      swap1\n      pop\n        /* \"Voting.sol\":966:1089  function getVotes(string calldata cadidate) public view returns(uint256) {... */\n    tag_23:\n      swap3\n      swap2\n      pop\n      pop\n      jump\t// out\n        /* \"Voting.sol\":1161:1449  function resetVotes() public {... */\n    tag_19:\n        /* \"Voting.sol\":1238:1244  uint i */\n      0x00\n        /* \"Voting.sol\":1233:1390  for (uint i=0; i<allCadidates.length; i++) {... */\n    tag_27:\n        /* \"Voting.sol\":1250:1262  allCadidates */\n      0x01\n        /* \"Voting.sol\":1250:1269  allCadidates.length */\n      sload\n        /* \"Voting.sol\":1248:1269  i<allCadidates.length */\n      dup2\n      lt\n        /* \"Voting.sol\":1233:1390  for (uint i=0; i<allCadidates.length; i++) {... */\n      iszero\n      tag_28\n      jumpi\n        /* \"Voting.sol\":1326:1327  0 */\n      0x00\n        /* \"Voting.sol\":1290:1306  candidateToVotes */\n      dup1\n        /* \"Voting.sol\":1307:1319  allCadidates */\n      0x01\n        /* \"Voting.sol\":1320:1321  i */\n      dup4\n        /* \"Voting.sol\":1307:1322  allCadidates[i] */\n      dup2\n      sload\n      dup2\n      lt\n      tag_31\n      jumpi\n      tag_31\n      tag_32\n      jump\t// in\n    tag_31:\n      swap1\n      0x00\n      mstore\n      keccak256(0x00, 0x20)\n      add\n        /* \"Voting.sol\":1290:1323  candidateToVotes[allCadidates[i]] */\n      mload(0x40)\n      tag_34\n      swap2\n      swap1\n      tag_35\n      jump\t// in\n    tag_34:\n      swap1\n      dup2\n      mstore\n      0x20\n      add\n      mload(0x40)\n      dup1\n      swap2\n      sub\n      swap1\n      keccak256\n        /* \"Voting.sol\":1290:1327  candidateToVotes[allCadidates[i]] = 0 */\n      dup2\n      swap1\n      sstore\n      pop\n        /* \"Voting.sol\":1374:1379  false */\n      0x00\n        /* \"Voting.sol\":1341:1354  cadidateExsit */\n      0x02\n        /* \"Voting.sol\":1355:1367  allCadidates */\n      0x01\n        /* \"Voting.sol\":1368:1369  i */\n      dup4\n        /* \"Voting.sol\":1355:1370  allCadidates[i] */\n      dup2\n      sload\n      dup2\n      lt\n      tag_37\n      jumpi\n      tag_37\n      tag_32\n      jump\t// in\n    tag_37:\n      swap1\n      0x00\n      mstore\n      keccak256(0x00, 0x20)\n      add\n        /* \"Voting.sol\":1341:1371  cadidateExsit[allCadidates[i]] */\n      mload(0x40)\n      tag_39\n      swap2\n      swap1\n      tag_35\n      jump\t// in\n    tag_39:\n      swap1\n      dup2\n      mstore\n      mload(0x40)\n      swap1\n      dup2\n      swap1\n      sub\n      0x20\n      add\n      swap1\n      keccak256\n        /* \"Voting.sol\":1341:1379  cadidateExsit[allCadidates[i]] = false */\n      dup1\n      sload\n      swap2\n      iszero\n      iszero\n      not(0xff)\n      swap1\n      swap3\n      and\n      swap2\n      swap1\n      swap2\n      or\n      swap1\n      sstore\n        /* \"Voting.sol\":1271:1274  i++ */\n      dup1\n      tag_40\n      dup2\n      tag_41\n      jump\t// in\n    tag_40:\n      swap2\n      pop\n      pop\n        /* \"Voting.sol\":1233:1390  for (uint i=0; i<allCadidates.length; i++) {... */\n      jump(tag_27)\n    tag_28:\n      pop\n        /* \"Voting.sol\":1423:1442  delete allCadidates */\n      tag_42\n        /* \"Voting.sol\":1430:1442  allCadidates */\n      0x01\n      0x00\n        /* \"Voting.sol\":1423:1442  delete allCadidates */\n      tag_43\n      jump\t// in\n    tag_42:\n        /* \"Voting.sol\":1161:1449  function resetVotes() public {... */\n      jump\t// out\n        /* \"Voting.sol\":648:896  function vote(string calldata cadidate) public {... */\n    tag_22:\n        /* \"Voting.sol\":710:723  cadidateExsit */\n      0x02\n        /* \"Voting.sol\":724:732  cadidate */\n      dup3\n      dup3\n        /* \"Voting.sol\":710:733  cadidateExsit[cadidate] */\n      mload(0x40)\n      tag_45\n      swap3\n      swap2\n      swap1\n      tag_25\n      jump\t// in\n    tag_45:\n      swap1\n      dup2\n      mstore\n      mload(0x40)\n      swap1\n      dup2\n      swap1\n      sub\n      0x20\n      add\n      swap1\n      keccak256\n      sload\n      0xff\n      and\n        /* \"Voting.sol\":705:831  if (!cadidateExsit[cadidate]) {... */\n      tag_46\n      jumpi\n        /* \"Voting.sol\":775:779  true */\n      0x01\n        /* \"Voting.sol\":749:762  cadidateExsit */\n      0x02\n        /* \"Voting.sol\":763:771  cadidate */\n      dup4\n      dup4\n        /* \"Voting.sol\":749:772  cadidateExsit[cadidate] */\n      mload(0x40)\n      tag_47\n      swap3\n      swap2\n      swap1\n      tag_25\n      jump\t// in\n    tag_47:\n      swap1\n      dup2\n      mstore\n      mload(0x40)\n      swap1\n      dup2\n      swap1\n      sub\n      0x20\n      add\n      swap1\n      keccak256\n        /* \"Voting.sol\":749:779  cadidateExsit[cadidate] = true */\n      dup1\n      sload\n      swap2\n      iszero\n      iszero\n      not(0xff)\n      swap1\n      swap3\n      and\n      swap2\n      swap1\n      swap2\n      or\n      swap1\n      sstore\n      0x01\n        /* \"Voting.sol\":793:820  allCadidates.push(cadidate) */\n      dup1\n      sload\n      dup1\n      dup3\n      add\n      dup3\n      sstore\n        /* \"Voting.sol\":749:772  cadidateExsit[cadidate] */\n      0x00\n        /* \"Voting.sol\":793:820  allCadidates.push(cadidate) */\n      swap2\n      swap1\n      swap2\n      mstore\n      0xb10e2d527612073b26eecdfd717e6a320cf44b4afac2b0732d9fcbe2b7fa0cf6\n      add\n      tag_49\n        /* \"Voting.sol\":811:819  cadidate */\n      dup3\n      dup5\n        /* \"Voting.sol\":793:820  allCadidates.push(cadidate) */\n      dup4\n      tag_50\n      jump\t// in\n    tag_49:\n      pop\n        /* \"Voting.sol\":705:831  if (!cadidateExsit[cadidate]) {... */\n    tag_46:\n        /* \"Voting.sol\":888:889  1 */\n      0x01\n        /* \"Voting.sol\":858:874  candidateToVotes */\n      0x00\n        /* \"Voting.sol\":875:883  cadidate */\n      dup4\n      dup4\n        /* \"Voting.sol\":858:884  candidateToVotes[cadidate] */\n      mload(0x40)\n      tag_51\n      swap3\n      swap2\n      swap1\n      tag_25\n      jump\t// in\n    tag_51:\n      swap1\n      dup2\n      mstore\n      0x20\n      add\n      mload(0x40)\n      dup1\n      swap2\n      sub\n      swap1\n      keccak256\n      0x00\n        /* \"Voting.sol\":858:889  candidateToVotes[cadidate] += 1 */\n      dup3\n      dup3\n      sload\n      tag_52\n      swap2\n      swap1\n      tag_53\n      jump\t// in\n    tag_52:\n      swap1\n      swap2\n      sstore\n      pop\n      pop\n      pop\n      pop\n        /* \"Voting.sol\":648:896  function vote(string calldata cadidate) public {... */\n      jump\t// out\n    tag_43:\n      pop\n      dup1\n      sload\n      0x00\n      dup3\n      sstore\n      swap1\n      0x00\n      mstore\n      keccak256(0x00, 0x20)\n      swap1\n      dup2\n      add\n      swap1\n      tag_55\n      swap2\n      swap1\n      tag_56\n      jump\t// in\n    tag_55:\n      pop\n      jump\t// out\n    tag_56:\n      dup1\n      dup3\n      gt\n      iszero\n      tag_58\n      jumpi\n      0x00\n      tag_59\n      dup3\n      dup3\n      tag_60\n      jump\t// in\n    tag_59:\n      pop\n      0x01\n      add\n      jump(tag_56)\n    tag_58:\n      pop\n      swap1\n      jump\t// out\n    tag_60:\n      pop\n      dup1\n      sload\n      tag_61\n      swap1\n      tag_62\n      jump\t// in\n    tag_61:\n      0x00\n      dup3\n      sstore\n      dup1\n      0x1f\n      lt\n      tag_64\n      jumpi\n      pop\n      pop\n      jump\t// out\n    tag_64:\n      0x1f\n      add\n      0x20\n      swap1\n      div\n      swap1\n      0x00\n      mstore\n      keccak256(0x00, 0x20)\n      swap1\n      dup2\n      add\n      swap1\n      tag_55\n      swap2\n      swap1\n    tag_67:\n      dup1\n      dup3\n      gt\n      iszero\n      tag_58\n      jumpi\n      0x00\n      dup2\n      sstore\n      0x01\n      add\n      jump(tag_67)\n        /* \"#utility.yul\":14:141   */\n    tag_69:\n        /* \"#utility.yul\":75:85   */\n      0x4e487b71\n        /* \"#utility.yul\":70:73   */\n      0xe0\n        /* \"#utility.yul\":66:86   */\n      shl\n        /* \"#utility.yul\":63:64   */\n      0x00\n        /* \"#utility.yul\":56:87   */\n      mstore\n        /* \"#utility.yul\":106:110   */\n      0x41\n        /* \"#utility.yul\":103:104   */\n      0x04\n        /* \"#utility.yul\":96:111   */\n      mstore\n        /* \"#utility.yul\":130:134   */\n      0x24\n        /* \"#utility.yul\":127:128   */\n      0x00\n        /* \"#utility.yul\":120:135   */\n      revert\n        /* \"#utility.yul\":146:1068   */\n    tag_9:\n        /* \"#utility.yul\":215:221   */\n      0x00\n        /* \"#utility.yul\":268:270   */\n      0x20\n        /* \"#utility.yul\":256:265   */\n      dup3\n        /* \"#utility.yul\":247:254   */\n      dup5\n        /* \"#utility.yul\":243:266   */\n      sub\n        /* \"#utility.yul\":239:271   */\n      slt\n        /* \"#utility.yul\":236:288   */\n      iszero\n      tag_77\n      jumpi\n        /* \"#utility.yul\":284:285   */\n      0x00\n        /* \"#utility.yul\":281:282   */\n      dup1\n        /* \"#utility.yul\":274:286   */\n      revert\n        /* \"#utility.yul\":236:288   */\n    tag_77:\n        /* \"#utility.yul\":324:333   */\n      dup2\n        /* \"#utility.yul\":311:334   */\n      calldataload\n        /* \"#utility.yul\":353:371   */\n      0xffffffffffffffff\n        /* \"#utility.yul\":394:396   */\n      dup1\n        /* \"#utility.yul\":386:392   */\n      dup3\n        /* \"#utility.yul\":383:397   */\n      gt\n        /* \"#utility.yul\":380:414   */\n      iszero\n      tag_78\n      jumpi\n        /* \"#utility.yul\":410:411   */\n      0x00\n        /* \"#utility.yul\":407:408   */\n      dup1\n        /* \"#utility.yul\":400:412   */\n      revert\n        /* \"#utility.yul\":380:414   */\n    tag_78:\n        /* \"#utility.yul\":448:454   */\n      dup2\n        /* \"#utility.yul\":437:446   */\n      dup5\n        /* \"#utility.yul\":433:455   */\n      add\n        /* \"#utility.yul\":423:455   */\n      swap2\n      pop\n        /* \"#utility.yul\":493:500   */\n      dup5\n        /* \"#utility.yul\":486:490   */\n      0x1f\n        /* \"#utility.yul\":482:484   */\n      dup4\n        /* \"#utility.yul\":478:491   */\n      add\n        /* \"#utility.yul\":474:501   */\n      slt\n        /* \"#utility.yul\":464:519   */\n      tag_79\n      jumpi\n        /* \"#utility.yul\":515:516   */\n      0x00\n        /* \"#utility.yul\":512:513   */\n      dup1\n        /* \"#utility.yul\":505:517   */\n      revert\n        /* \"#utility.yul\":464:519   */\n    tag_79:\n        /* \"#utility.yul\":551:553   */\n      dup2\n        /* \"#utility.yul\":538:554   */\n      calldataload\n        /* \"#utility.yul\":573:575   */\n      dup2\n        /* \"#utility.yul\":569:571   */\n      dup2\n        /* \"#utility.yul\":566:576   */\n      gt\n        /* \"#utility.yul\":563:599   */\n      iszero\n      tag_81\n      jumpi\n        /* \"#utility.yul\":579:597   */\n      tag_81\n      tag_69\n      jump\t// in\n    tag_81:\n        /* \"#utility.yul\":654:656   */\n      0x40\n        /* \"#utility.yul\":648:657   */\n      mload\n        /* \"#utility.yul\":622:624   */\n      0x1f\n        /* \"#utility.yul\":708:721   */\n      dup3\n      add\n      not(0x1f)\n        /* \"#utility.yul\":704:726   */\n      swap1\n      dup2\n      and\n        /* \"#utility.yul\":728:730   */\n      0x3f\n        /* \"#utility.yul\":700:731   */\n      add\n        /* \"#utility.yul\":696:736   */\n      and\n        /* \"#utility.yul\":684:737   */\n      dup2\n      add\n      swap1\n        /* \"#utility.yul\":752:770   */\n      dup4\n      dup3\n      gt\n        /* \"#utility.yul\":772:794   */\n      dup2\n      dup4\n      lt\n        /* \"#utility.yul\":749:795   */\n      or\n        /* \"#utility.yul\":746:818   */\n      iszero\n      tag_83\n      jumpi\n        /* \"#utility.yul\":798:816   */\n      tag_83\n      tag_69\n      jump\t// in\n    tag_83:\n        /* \"#utility.yul\":838:848   */\n      dup2\n        /* \"#utility.yul\":834:836   */\n      0x40\n        /* \"#utility.yul\":827:849   */\n      mstore\n        /* \"#utility.yul\":873:875   */\n      dup3\n        /* \"#utility.yul\":865:871   */\n      dup2\n        /* \"#utility.yul\":858:876   */\n      mstore\n        /* \"#utility.yul\":913:920   */\n      dup8\n        /* \"#utility.yul\":908:910   */\n      0x20\n        /* \"#utility.yul\":903:905   */\n      dup5\n        /* \"#utility.yul\":899:901   */\n      dup8\n        /* \"#utility.yul\":895:906   */\n      add\n        /* \"#utility.yul\":891:911   */\n      add\n        /* \"#utility.yul\":888:921   */\n      gt\n        /* \"#utility.yul\":885:938   */\n      iszero\n      tag_84\n      jumpi\n        /* \"#utility.yul\":934:935   */\n      0x00\n        /* \"#utility.yul\":931:932   */\n      dup1\n        /* \"#utility.yul\":924:936   */\n      revert\n        /* \"#utility.yul\":885:938   */\n    tag_84:\n        /* \"#utility.yul\":990:992   */\n      dup3\n        /* \"#utility.yul\":985:987   */\n      0x20\n        /* \"#utility.yul\":981:983   */\n      dup7\n        /* \"#utility.yul\":977:988   */\n      add\n        /* \"#utility.yul\":972:974   */\n      0x20\n        /* \"#utility.yul\":964:970   */\n      dup4\n        /* \"#utility.yul\":960:975   */\n      add\n        /* \"#utility.yul\":947:993   */\n      calldatacopy\n        /* \"#utility.yul\":1035:1036   */\n      0x00\n        /* \"#utility.yul\":1013:1028   */\n      swap3\n      dup2\n      add\n        /* \"#utility.yul\":1030:1032   */\n      0x20\n        /* \"#utility.yul\":1009:1033   */\n      add\n        /* \"#utility.yul\":1002:1037   */\n      swap3\n      swap1\n      swap3\n      mstore\n      pop\n        /* \"#utility.yul\":1017:1023   */\n      swap6\n        /* \"#utility.yul\":146:1068   */\n      swap5\n      pop\n      pop\n      pop\n      pop\n      pop\n      jump\t// out\n        /* \"#utility.yul\":1255:1847   */\n    tag_15:\n        /* \"#utility.yul\":1326:1332   */\n      0x00\n        /* \"#utility.yul\":1334:1340   */\n      dup1\n        /* \"#utility.yul\":1387:1389   */\n      0x20\n        /* \"#utility.yul\":1375:1384   */\n      dup4\n        /* \"#utility.yul\":1366:1373   */\n      dup6\n        /* \"#utility.yul\":1362:1385   */\n      sub\n        /* \"#utility.yul\":1358:1390   */\n      slt\n        /* \"#utility.yul\":1355:1407   */\n      iszero\n      tag_87\n      jumpi\n        /* \"#utility.yul\":1403:1404   */\n      0x00\n        /* \"#utility.yul\":1400:1401   */\n      dup1\n        /* \"#utility.yul\":1393:1405   */\n      revert\n        /* \"#utility.yul\":1355:1407   */\n    tag_87:\n        /* \"#utility.yul\":1443:1452   */\n      dup3\n        /* \"#utility.yul\":1430:1453   */\n      calldataload\n        /* \"#utility.yul\":1472:1490   */\n      0xffffffffffffffff\n        /* \"#utility.yul\":1513:1515   */\n      dup1\n        /* \"#utility.yul\":1505:1511   */\n      dup3\n        /* \"#utility.yul\":1502:1516   */\n      gt\n        /* \"#utility.yul\":1499:1533   */\n      iszero\n      tag_88\n      jumpi\n        /* \"#utility.yul\":1529:1530   */\n      0x00\n        /* \"#utility.yul\":1526:1527   */\n      dup1\n        /* \"#utility.yul\":1519:1531   */\n      revert\n        /* \"#utility.yul\":1499:1533   */\n    tag_88:\n        /* \"#utility.yul\":1567:1573   */\n      dup2\n        /* \"#utility.yul\":1556:1565   */\n      dup6\n        /* \"#utility.yul\":1552:1574   */\n      add\n        /* \"#utility.yul\":1542:1574   */\n      swap2\n      pop\n        /* \"#utility.yul\":1612:1619   */\n      dup6\n        /* \"#utility.yul\":1605:1609   */\n      0x1f\n        /* \"#utility.yul\":1601:1603   */\n      dup4\n        /* \"#utility.yul\":1597:1610   */\n      add\n        /* \"#utility.yul\":1593:1620   */\n      slt\n        /* \"#utility.yul\":1583:1638   */\n      tag_89\n      jumpi\n        /* \"#utility.yul\":1634:1635   */\n      0x00\n        /* \"#utility.yul\":1631:1632   */\n      dup1\n        /* \"#utility.yul\":1624:1636   */\n      revert\n        /* \"#utility.yul\":1583:1638   */\n    tag_89:\n        /* \"#utility.yul\":1674:1676   */\n      dup2\n        /* \"#utility.yul\":1661:1677   */\n      calldataload\n        /* \"#utility.yul\":1700:1702   */\n      dup2\n        /* \"#utility.yul\":1692:1698   */\n      dup2\n        /* \"#utility.yul\":1689:1703   */\n      gt\n        /* \"#utility.yul\":1686:1720   */\n      iszero\n      tag_90\n      jumpi\n        /* \"#utility.yul\":1716:1717   */\n      0x00\n        /* \"#utility.yul\":1713:1714   */\n      dup1\n        /* \"#utility.yul\":1706:1718   */\n      revert\n        /* \"#utility.yul\":1686:1720   */\n    tag_90:\n        /* \"#utility.yul\":1761:1768   */\n      dup7\n        /* \"#utility.yul\":1756:1758   */\n      0x20\n        /* \"#utility.yul\":1747:1753   */\n      dup3\n        /* \"#utility.yul\":1743:1745   */\n      dup6\n        /* \"#utility.yul\":1739:1754   */\n      add\n        /* \"#utility.yul\":1735:1759   */\n      add\n        /* \"#utility.yul\":1732:1769   */\n      gt\n        /* \"#utility.yul\":1729:1786   */\n      iszero\n      tag_91\n      jumpi\n        /* \"#utility.yul\":1782:1783   */\n      0x00\n        /* \"#utility.yul\":1779:1780   */\n      dup1\n        /* \"#utility.yul\":1772:1784   */\n      revert\n        /* \"#utility.yul\":1729:1786   */\n    tag_91:\n        /* \"#utility.yul\":1813:1815   */\n      0x20\n        /* \"#utility.yul\":1805:1816   */\n      swap3\n      swap1\n      swap3\n      add\n      swap7\n        /* \"#utility.yul\":1835:1841   */\n      swap2\n      swap6\n      pop\n        /* \"#utility.yul\":1255:1847   */\n      swap1\n      swap4\n      pop\n      pop\n      pop\n      pop\n      jump\t// out\n        /* \"#utility.yul\":1852:2125   */\n    tag_25:\n        /* \"#utility.yul\":2037:2043   */\n      dup2\n        /* \"#utility.yul\":2029:2035   */\n      dup4\n        /* \"#utility.yul\":2024:2027   */\n      dup3\n        /* \"#utility.yul\":2011:2044   */\n      calldatacopy\n        /* \"#utility.yul\":1993:1996   */\n      0x00\n        /* \"#utility.yul\":2063:2079   */\n      swap2\n      add\n        /* \"#utility.yul\":2088:2101   */\n      swap1\n      dup2\n      mstore\n        /* \"#utility.yul\":2063:2079   */\n      swap2\n        /* \"#utility.yul\":1852:2125   */\n      swap1\n      pop\n      jump\t// out\n        /* \"#utility.yul\":2130:2257   */\n    tag_32:\n        /* \"#utility.yul\":2191:2201   */\n      0x4e487b71\n        /* \"#utility.yul\":2186:2189   */\n      0xe0\n        /* \"#utility.yul\":2182:2202   */\n      shl\n        /* \"#utility.yul\":2179:2180   */\n      0x00\n        /* \"#utility.yul\":2172:2203   */\n      mstore\n        /* \"#utility.yul\":2222:2226   */\n      0x32\n        /* \"#utility.yul\":2219:2220   */\n      0x04\n        /* \"#utility.yul\":2212:2227   */\n      mstore\n        /* \"#utility.yul\":2246:2250   */\n      0x24\n        /* \"#utility.yul\":2243:2244   */\n      0x00\n        /* \"#utility.yul\":2236:2251   */\n      revert\n        /* \"#utility.yul\":2262:2642   */\n    tag_62:\n        /* \"#utility.yul\":2341:2342   */\n      0x01\n        /* \"#utility.yul\":2337:2349   */\n      dup2\n      dup2\n      shr\n      swap1\n        /* \"#utility.yul\":2384:2396   */\n      dup3\n      and\n      dup1\n        /* \"#utility.yul\":2405:2466   */\n      tag_95\n      jumpi\n        /* \"#utility.yul\":2459:2463   */\n      0x7f\n        /* \"#utility.yul\":2451:2457   */\n      dup3\n        /* \"#utility.yul\":2447:2464   */\n      and\n        /* \"#utility.yul\":2437:2464   */\n      swap2\n      pop\n        /* \"#utility.yul\":2405:2466   */\n    tag_95:\n        /* \"#utility.yul\":2512:2514   */\n      0x20\n        /* \"#utility.yul\":2504:2510   */\n      dup3\n        /* \"#utility.yul\":2501:2515   */\n      lt\n        /* \"#utility.yul\":2481:2499   */\n      dup2\n        /* \"#utility.yul\":2478:2516   */\n      sub\n        /* \"#utility.yul\":2475:2636   */\n      tag_96\n      jumpi\n        /* \"#utility.yul\":2558:2568   */\n      0x4e487b71\n        /* \"#utility.yul\":2553:2556   */\n      0xe0\n        /* \"#utility.yul\":2549:2569   */\n      shl\n        /* \"#utility.yul\":2546:2547   */\n      0x00\n        /* \"#utility.yul\":2539:2570   */\n      mstore\n        /* \"#utility.yul\":2593:2597   */\n      0x22\n        /* \"#utility.yul\":2590:2591   */\n      0x04\n        /* \"#utility.yul\":2583:2598   */\n      mstore\n        /* \"#utility.yul\":2621:2625   */\n      0x24\n        /* \"#utility.yul\":2618:2619   */\n      0x00\n        /* \"#utility.yul\":2611:2626   */\n      revert\n        /* \"#utility.yul\":2475:2636   */\n    tag_96:\n      pop\n        /* \"#utility.yul\":2262:2642   */\n      swap2\n      swap1\n      pop\n      jump\t// out\n        /* \"#utility.yul\":2773:3615   */\n    tag_35:\n        /* \"#utility.yul\":2901:2904   */\n      0x00\n        /* \"#utility.yul\":2930:2931   */\n      dup1\n        /* \"#utility.yul\":2963:2969   */\n      dup4\n        /* \"#utility.yul\":2957:2970   */\n      sload\n        /* \"#utility.yul\":2993:3029   */\n      tag_99\n        /* \"#utility.yul\":3019:3028   */\n      dup2\n        /* \"#utility.yul\":2993:3029   */\n      tag_62\n      jump\t// in\n    tag_99:\n        /* \"#utility.yul\":3048:3049   */\n      0x01\n        /* \"#utility.yul\":3065:3083   */\n      dup3\n      dup2\n      and\n        /* \"#utility.yul\":3092:3225   */\n      dup1\n      iszero\n      tag_101\n      jumpi\n        /* \"#utility.yul\":3239:3240   */\n      0x01\n        /* \"#utility.yul\":3234:3590   */\n      dup2\n      eq\n      tag_102\n      jumpi\n        /* \"#utility.yul\":3058:3590   */\n      jump(tag_100)\n        /* \"#utility.yul\":3092:3225   */\n    tag_101:\n      not(0xff)\n        /* \"#utility.yul\":3125:3149   */\n      dup5\n      and\n        /* \"#utility.yul\":3113:3150   */\n      dup8\n      mstore\n        /* \"#utility.yul\":3198:3212   */\n      dup3\n      iszero\n        /* \"#utility.yul\":3191:3213   */\n      iszero\n        /* \"#utility.yul\":3179:3214   */\n      dup4\n      mul\n        /* \"#utility.yul\":3170:3215   */\n      dup8\n      add\n      swap5\n      pop\n        /* \"#utility.yul\":3092:3225   */\n      jump(tag_100)\n        /* \"#utility.yul\":3234:3590   */\n    tag_102:\n        /* \"#utility.yul\":3265:3271   */\n      dup8\n        /* \"#utility.yul\":3262:3263   */\n      0x00\n        /* \"#utility.yul\":3255:3272   */\n      mstore\n        /* \"#utility.yul\":3295:3299   */\n      0x20\n        /* \"#utility.yul\":3340:3342   */\n      dup1\n        /* \"#utility.yul\":3337:3338   */\n      0x00\n        /* \"#utility.yul\":3327:3343   */\n      keccak256\n        /* \"#utility.yul\":3365:3366   */\n      0x00\n        /* \"#utility.yul\":3379:3544   */\n    tag_103:\n        /* \"#utility.yul\":3393:3399   */\n      dup6\n        /* \"#utility.yul\":3390:3391   */\n      dup2\n        /* \"#utility.yul\":3387:3400   */\n      lt\n        /* \"#utility.yul\":3379:3544   */\n      iszero\n      tag_105\n      jumpi\n        /* \"#utility.yul\":3471:3485   */\n      dup2\n      sload\n        /* \"#utility.yul\":3458:3469   */\n      dup11\n      dup3\n      add\n        /* \"#utility.yul\":3451:3486   */\n      mstore\n        /* \"#utility.yul\":3514:3530   */\n      swap1\n      dup5\n      add\n      swap1\n        /* \"#utility.yul\":3408:3418   */\n      dup3\n      add\n        /* \"#utility.yul\":3379:3544   */\n      jump(tag_103)\n    tag_105:\n        /* \"#utility.yul\":3383:3386   */\n      pop\n      pop\n      pop\n        /* \"#utility.yul\":3573:3579   */\n      dup3\n        /* \"#utility.yul\":3568:3571   */\n      dup8\n        /* \"#utility.yul\":3564:3580   */\n      add\n        /* \"#utility.yul\":3557:3580   */\n      swap5\n      pop\n        /* \"#utility.yul\":3058:3590   */\n    tag_100:\n      pop\n        /* \"#utility.yul\":3606:3609   */\n      swap3\n      swap7\n        /* \"#utility.yul\":2773:3615   */\n      swap6\n      pop\n      pop\n      pop\n      pop\n      pop\n      pop\n      jump\t// out\n        /* \"#utility.yul\":3620:3747   */\n    tag_71:\n        /* \"#utility.yul\":3681:3691   */\n      0x4e487b71\n        /* \"#utility.yul\":3676:3679   */\n      0xe0\n        /* \"#utility.yul\":3672:3692   */\n      shl\n        /* \"#utility.yul\":3669:3670   */\n      0x00\n        /* \"#utility.yul\":3662:3693   */\n      mstore\n        /* \"#utility.yul\":3712:3716   */\n      0x11\n        /* \"#utility.yul\":3709:3710   */\n      0x04\n        /* \"#utility.yul\":3702:3717   */\n      mstore\n        /* \"#utility.yul\":3736:3740   */\n      0x24\n        /* \"#utility.yul\":3733:3734   */\n      0x00\n        /* \"#utility.yul\":3726:3741   */\n      revert\n        /* \"#utility.yul\":3752:3887   */\n    tag_41:\n        /* \"#utility.yul\":3791:3794   */\n      0x00\n        /* \"#utility.yul\":3812:3829   */\n      0x01\n      dup3\n      add\n        /* \"#utility.yul\":3809:3852   */\n      tag_109\n      jumpi\n        /* \"#utility.yul\":3832:3850   */\n      tag_109\n      tag_71\n      jump\t// in\n    tag_109:\n      pop\n        /* \"#utility.yul\":3879:3880   */\n      0x01\n        /* \"#utility.yul\":3868:3881   */\n      add\n      swap1\n        /* \"#utility.yul\":3752:3887   */\n      jump\t// out\n        /* \"#utility.yul\":3892:4437   */\n    tag_72:\n        /* \"#utility.yul\":3994:3996   */\n      0x1f\n        /* \"#utility.yul\":3989:3992   */\n      dup3\n        /* \"#utility.yul\":3986:3997   */\n      gt\n        /* \"#utility.yul\":3983:4431   */\n      iszero\n      tag_111\n      jumpi\n        /* \"#utility.yul\":4030:4031   */\n      0x00\n        /* \"#utility.yul\":4055:4060   */\n      dup2\n        /* \"#utility.yul\":4051:4053   */\n      dup2\n        /* \"#utility.yul\":4044:4061   */\n      mstore\n        /* \"#utility.yul\":4100:4104   */\n      0x20\n        /* \"#utility.yul\":4096:4098   */\n      dup2\n        /* \"#utility.yul\":4086:4105   */\n      keccak256\n        /* \"#utility.yul\":4170:4172   */\n      0x1f\n        /* \"#utility.yul\":4158:4168   */\n      dup6\n        /* \"#utility.yul\":4154:4173   */\n      add\n        /* \"#utility.yul\":4151:4152   */\n      0x05\n        /* \"#utility.yul\":4147:4174   */\n      shr\n        /* \"#utility.yul\":4141:4145   */\n      dup2\n        /* \"#utility.yul\":4137:4175   */\n      add\n        /* \"#utility.yul\":4206:4210   */\n      0x20\n        /* \"#utility.yul\":4194:4204   */\n      dup7\n        /* \"#utility.yul\":4191:4211   */\n      lt\n        /* \"#utility.yul\":4188:4235   */\n      iszero\n      tag_112\n      jumpi\n      pop\n        /* \"#utility.yul\":4229:4233   */\n      dup1\n        /* \"#utility.yul\":4188:4235   */\n    tag_112:\n        /* \"#utility.yul\":4284:4286   */\n      0x1f\n        /* \"#utility.yul\":4279:4282   */\n      dup6\n        /* \"#utility.yul\":4275:4287   */\n      add\n        /* \"#utility.yul\":4272:4273   */\n      0x05\n        /* \"#utility.yul\":4268:4288   */\n      shr\n        /* \"#utility.yul\":4262:4266   */\n      dup3\n        /* \"#utility.yul\":4258:4289   */\n      add\n        /* \"#utility.yul\":4248:4289   */\n      swap2\n      pop\n        /* \"#utility.yul\":4339:4421   */\n    tag_113:\n        /* \"#utility.yul\":4357:4359   */\n      dup2\n        /* \"#utility.yul\":4350:4355   */\n      dup2\n        /* \"#utility.yul\":4347:4360   */\n      lt\n        /* \"#utility.yul\":4339:4421   */\n      iszero\n      tag_115\n      jumpi\n        /* \"#utility.yul\":4402:4419   */\n      dup3\n      dup2\n      sstore\n        /* \"#utility.yul\":4383:4384   */\n      0x01\n        /* \"#utility.yul\":4372:4385   */\n      add\n        /* \"#utility.yul\":4339:4421   */\n      jump(tag_113)\n    tag_115:\n        /* \"#utility.yul\":4343:4346   */\n      pop\n      pop\n      pop\n        /* \"#utility.yul\":3983:4431   */\n    tag_111:\n        /* \"#utility.yul\":3892:4437   */\n      pop\n      pop\n      pop\n      jump\t// out\n        /* \"#utility.yul\":4613:5819   */\n    tag_50:\n        /* \"#utility.yul\":4737:4755   */\n      0xffffffffffffffff\n        /* \"#utility.yul\":4732:4735   */\n      dup4\n        /* \"#utility.yul\":4729:4756   */\n      gt\n        /* \"#utility.yul\":4726:4779   */\n      iszero\n      tag_119\n      jumpi\n        /* \"#utility.yul\":4759:4777   */\n      tag_119\n      tag_69\n      jump\t// in\n    tag_119:\n        /* \"#utility.yul\":4788:4882   */\n      tag_120\n        /* \"#utility.yul\":4878:4881   */\n      dup4\n        /* \"#utility.yul\":4838:4876   */\n      tag_121\n        /* \"#utility.yul\":4870:4874   */\n      dup4\n        /* \"#utility.yul\":4864:4875   */\n      sload\n        /* \"#utility.yul\":4838:4876   */\n      tag_62\n      jump\t// in\n    tag_121:\n        /* \"#utility.yul\":4832:4836   */\n      dup4\n        /* \"#utility.yul\":4788:4882   */\n      tag_72\n      jump\t// in\n    tag_120:\n        /* \"#utility.yul\":4908:4909   */\n      0x00\n        /* \"#utility.yul\":4933:4935   */\n      0x1f\n        /* \"#utility.yul\":4928:4931   */\n      dup5\n        /* \"#utility.yul\":4925:4936   */\n      gt\n        /* \"#utility.yul\":4950:4951   */\n      0x01\n        /* \"#utility.yul\":4945:5561   */\n      dup2\n      eq\n      tag_123\n      jumpi\n        /* \"#utility.yul\":5605:5606   */\n      0x00\n        /* \"#utility.yul\":5622:5625   */\n      dup6\n        /* \"#utility.yul\":5619:5712   */\n      iszero\n      tag_124\n      jumpi\n      pop\n        /* \"#utility.yul\":5678:5697   */\n      dup4\n      dup3\n      add\n        /* \"#utility.yul\":5665:5698   */\n      calldataload\n        /* \"#utility.yul\":5619:5712   */\n    tag_124:\n      not(0x00)\n        /* \"#utility.yul\":4570:4571   */\n      0x03\n        /* \"#utility.yul\":4566:4577   */\n      dup8\n      swap1\n      shl\n        /* \"#utility.yul\":4562:4586   */\n      shr\n        /* \"#utility.yul\":4558:4587   */\n      not\n        /* \"#utility.yul\":4548:4588   */\n      and\n        /* \"#utility.yul\":4594:4595   */\n      0x01\n        /* \"#utility.yul\":4590:4601   */\n      dup7\n      swap1\n      shl\n        /* \"#utility.yul\":4545:4602   */\n      or\n        /* \"#utility.yul\":5725:5803   */\n      dup4\n      sstore\n        /* \"#utility.yul\":4918:5813   */\n      jump(tag_122)\n        /* \"#utility.yul\":4945:5561   */\n    tag_123:\n        /* \"#utility.yul\":2720:2721   */\n      0x00\n        /* \"#utility.yul\":2713:2727   */\n      dup4\n      dup2\n      mstore\n        /* \"#utility.yul\":2757:2761   */\n      0x20\n        /* \"#utility.yul\":2744:2762   */\n      swap1\n      keccak256\n      not(0x1f)\n        /* \"#utility.yul\":4981:4998   */\n      dup7\n      and\n      swap1\n        /* \"#utility.yul\":5082:5091   */\n      dup4\n        /* \"#utility.yul\":5104:5333   */\n    tag_127:\n        /* \"#utility.yul\":5118:5125   */\n      dup3\n        /* \"#utility.yul\":5115:5116   */\n      dup2\n        /* \"#utility.yul\":5112:5126   */\n      lt\n        /* \"#utility.yul\":5104:5333   */\n      iszero\n      tag_129\n      jumpi\n        /* \"#utility.yul\":5207:5226   */\n      dup7\n      dup6\n      add\n        /* \"#utility.yul\":5194:5227   */\n      calldataload\n        /* \"#utility.yul\":5179:5228   */\n      dup3\n      sstore\n        /* \"#utility.yul\":5314:5318   */\n      0x20\n        /* \"#utility.yul\":5299:5319   */\n      swap5\n      dup6\n      add\n      swap5\n        /* \"#utility.yul\":5267:5268   */\n      0x01\n        /* \"#utility.yul\":5255:5269   */\n      swap1\n      swap3\n      add\n      swap2\n        /* \"#utility.yul\":5134:5146   */\n      add\n        /* \"#utility.yul\":5104:5333   */\n      jump(tag_127)\n    tag_129:\n        /* \"#utility.yul\":5108:5111   */\n      pop\n        /* \"#utility.yul\":5361:5364   */\n      dup7\n        /* \"#utility.yul\":5352:5359   */\n      dup3\n        /* \"#utility.yul\":5349:5365   */\n      lt\n        /* \"#utility.yul\":5346:5505   */\n      iszero\n      tag_130\n      jumpi\n        /* \"#utility.yul\":5485:5486   */\n      0x00\n        /* \"#utility.yul\":5481:5487   */\n      not\n        /* \"#utility.yul\":5475:5478   */\n      0xf8\n        /* \"#utility.yul\":5469:5472   */\n      dup9\n        /* \"#utility.yul\":5466:5467   */\n      0x03\n        /* \"#utility.yul\":5462:5473   */\n      shl\n        /* \"#utility.yul\":5458:5479   */\n      and\n        /* \"#utility.yul\":5454:5488   */\n      shr\n        /* \"#utility.yul\":5450:5489   */\n      not\n        /* \"#utility.yul\":5437:5446   */\n      dup5\n        /* \"#utility.yul\":5432:5435   */\n      dup8\n        /* \"#utility.yul\":5428:5447   */\n      add\n        /* \"#utility.yul\":5415:5448   */\n      calldataload\n        /* \"#utility.yul\":5411:5490   */\n      and\n        /* \"#utility.yul\":5403:5409   */\n      dup2\n        /* \"#utility.yul\":5396:5491   */\n      sstore\n        /* \"#utility.yul\":5346:5505   */\n    tag_130:\n      pop\n      pop\n        /* \"#utility.yul\":5548:5549   */\n      0x01\n        /* \"#utility.yul\":5542:5545   */\n      dup6\n        /* \"#utility.yul\":5539:5540   */\n      0x01\n        /* \"#utility.yul\":5535:5546   */\n      shl\n        /* \"#utility.yul\":5531:5550   */\n      add\n        /* \"#utility.yul\":5525:5529   */\n      dup4\n        /* \"#utility.yul\":5518:5551   */\n      sstore\n        /* \"#utility.yul\":4918:5813   */\n    tag_122:\n      pop\n      pop\n        /* \"#utility.yul\":4613:5819   */\n      pop\n      pop\n      pop\n      jump\t// out\n        /* \"#utility.yul\":5824:5949   */\n    tag_53:\n        /* \"#utility.yul\":5889:5898   */\n      dup1\n      dup3\n      add\n        /* \"#utility.yul\":5910:5920   */\n      dup1\n      dup3\n      gt\n        /* \"#utility.yul\":5907:5943   */\n      iszero\n      tag_23\n      jumpi\n        /* \"#utility.yul\":5923:5941   */\n      tag_23\n      tag_71\n      jump\t// in\n\n    auxdata: 0xa264697066735822122042b1e96122f5067cc5e84506b63285e00a6a9db327644dd541ad10de30209bf264736f6c63430008150033\n}\n",
				"bytecode": {
					"linkReferences": {},
					"object": "608060405234801561000f575f80fd5b506106648061001d5f395ff3fe608060405234801561000f575f80fd5b506004361061004a575f3560e01c806326640ae61461004e578063805265e51461008a578063b9830ff11461009d578063fc36e15b146100a7575b5f80fd5b61007861005c366004610301565b80516020818301810180515f8252928201919093012091525481565b60405190815260200160405180910390f35b6100786100983660046103ac565b6100ba565b6100a56100e4565b005b6100a56100b53660046103ac565b610197565b5f8083836040516100cc929190610418565b90815260200160405180910390205490505b92915050565b5f5b600154811015610189575f806001838154811061010557610105610427565b905f5260205f200160405161011a9190610473565b9081526020016040518091039020819055505f60026001838154811061014257610142610427565b905f5260205f20016040516101579190610473565b908152604051908190036020019020805491151560ff1990921691909117905580610181816104f9565b9150506100e6565b5061019560015f610269565b565b600282826040516101a9929190610418565b9081526040519081900360200190205460ff16610231576001600283836040516101d4929190610418565b908152604051908190036020019020805491151560ff199092169190911790556001805480820182555f919091527fb10e2d527612073b26eecdfd717e6a320cf44b4afac2b0732d9fcbe2b7fa0cf60161022f82848361055f565b505b60015f8383604051610244929190610418565b90815260200160405180910390205f828254610260919061061b565b90915550505050565b5080545f8255905f5260205f20908101906102849190610287565b50565b808211156102a3575f61029a82826102a7565b50600101610287565b5090565b5080546102b39061043b565b5f825580601f106102c2575050565b601f0160209004905f5260205f209081019061028491905b808211156102a3575f81556001016102da565b634e487b7160e01b5f52604160045260245ffd5b5f60208284031215610311575f80fd5b813567ffffffffffffffff80821115610328575f80fd5b818401915084601f83011261033b575f80fd5b81358181111561034d5761034d6102ed565b604051601f8201601f19908116603f01168101908382118183101715610375576103756102ed565b8160405282815287602084870101111561038d575f80fd5b826020860160208301375f928101602001929092525095945050505050565b5f80602083850312156103bd575f80fd5b823567ffffffffffffffff808211156103d4575f80fd5b818501915085601f8301126103e7575f80fd5b8135818111156103f5575f80fd5b866020828501011115610406575f80fd5b60209290920196919550909350505050565b818382375f9101908152919050565b634e487b7160e01b5f52603260045260245ffd5b600181811c9082168061044f57607f821691505b60208210810361046d57634e487b7160e01b5f52602260045260245ffd5b50919050565b5f8083546104808161043b565b6001828116801561049857600181146104ad576104d9565b60ff19841687528215158302870194506104d9565b875f526020805f205f5b858110156104d05781548a8201529084019082016104b7565b50505082870194505b50929695505050505050565b634e487b7160e01b5f52601160045260245ffd5b5f6001820161050a5761050a6104e5565b5060010190565b601f82111561055a575f81815260208120601f850160051c810160208610156105375750805b601f850160051c820191505b8181101561055657828155600101610543565b5050505b505050565b67ffffffffffffffff831115610577576105776102ed565b61058b83610585835461043b565b83610511565b5f601f8411600181146105bc575f85156105a55750838201355b5f19600387901b1c1916600186901b178355610614565b5f83815260209020601f19861690835b828110156105ec57868501358255602094850194600190920191016105cc565b5086821015610608575f1960f88860031b161c19848701351681555b505060018560011b0183555b5050505050565b808201808211156100de576100de6104e556fea264697066735822122042b1e96122f5067cc5e84506b63285e00a6a9db327644dd541ad10de30209bf264736f6c63430008150033",
					"opcodes": "PUSH1 0x80 PUSH1 0x40 MSTORE CALLVALUE DUP1 ISZERO PUSH2 0xF JUMPI PUSH0 DUP1 REVERT JUMPDEST POP PUSH2 0x664 DUP1 PUSH2 0x1D PUSH0 CODECOPY PUSH0 RETURN INVALID PUSH1 0x80 PUSH1 0x40 MSTORE CALLVALUE DUP1 ISZERO PUSH2 0xF JUMPI PUSH0 DUP1 REVERT JUMPDEST POP PUSH1 0x4 CALLDATASIZE LT PUSH2 0x4A JUMPI PUSH0 CALLDATALOAD PUSH1 0xE0 SHR DUP1 PUSH4 0x26640AE6 EQ PUSH2 0x4E JUMPI DUP1 PUSH4 0x805265E5 EQ PUSH2 0x8A JUMPI DUP1 PUSH4 0xB9830FF1 EQ PUSH2 0x9D JUMPI DUP1 PUSH4 0xFC36E15B EQ PUSH2 0xA7 JUMPI JUMPDEST PUSH0 DUP1 REVERT JUMPDEST PUSH2 0x78 PUSH2 0x5C CALLDATASIZE PUSH1 0x4 PUSH2 0x301 JUMP JUMPDEST DUP1 MLOAD PUSH1 0x20 DUP2 DUP4 ADD DUP2 ADD DUP1 MLOAD PUSH0 DUP3 MSTORE SWAP3 DUP3 ADD SWAP2 SWAP1 SWAP4 ADD KECCAK256 SWAP2 MSTORE SLOAD DUP2 JUMP JUMPDEST PUSH1 0x40 MLOAD SWAP1 DUP2 MSTORE PUSH1 0x20 ADD PUSH1 0x40 MLOAD DUP1 SWAP2 SUB SWAP1 RETURN JUMPDEST PUSH2 0x78 PUSH2 0x98 CALLDATASIZE PUSH1 0x4 PUSH2 0x3AC JUMP JUMPDEST PUSH2 0xBA JUMP JUMPDEST PUSH2 0xA5 PUSH2 0xE4 JUMP JUMPDEST STOP JUMPDEST PUSH2 0xA5 PUSH2 0xB5 CALLDATASIZE PUSH1 0x4 PUSH2 0x3AC JUMP JUMPDEST PUSH2 0x197 JUMP JUMPDEST PUSH0 DUP1 DUP4 DUP4 PUSH1 0x40 MLOAD PUSH2 0xCC SWAP3 SWAP2 SWAP1 PUSH2 0x418 JUMP JUMPDEST SWAP1 DUP2 MSTORE PUSH1 0x20 ADD PUSH1 0x40 MLOAD DUP1 SWAP2 SUB SWAP1 KECCAK256 SLOAD SWAP1 POP JUMPDEST SWAP3 SWAP2 POP POP JUMP JUMPDEST PUSH0 JUMPDEST PUSH1 0x1 SLOAD DUP2 LT ISZERO PUSH2 0x189 JUMPI PUSH0 DUP1 PUSH1 0x1 DUP4 DUP2 SLOAD DUP2 LT PUSH2 0x105 JUMPI PUSH2 0x105 PUSH2 0x427 JUMP JUMPDEST SWAP1 PUSH0 MSTORE PUSH1 0x20 PUSH0 KECCAK256 ADD PUSH1 0x40 MLOAD PUSH2 0x11A SWAP2 SWAP1 PUSH2 0x473 JUMP JUMPDEST SWAP1 DUP2 MSTORE PUSH1 0x20 ADD PUSH1 0x40 MLOAD DUP1 SWAP2 SUB SWAP1 KECCAK256 DUP2 SWAP1 SSTORE POP PUSH0 PUSH1 0x2 PUSH1 0x1 DUP4 DUP2 SLOAD DUP2 LT PUSH2 0x142 JUMPI PUSH2 0x142 PUSH2 0x427 JUMP JUMPDEST SWAP1 PUSH0 MSTORE PUSH1 0x20 PUSH0 KECCAK256 ADD PUSH1 0x40 MLOAD PUSH2 0x157 SWAP2 SWAP1 PUSH2 0x473 JUMP JUMPDEST SWAP1 DUP2 MSTORE PUSH1 0x40 MLOAD SWAP1 DUP2 SWAP1 SUB PUSH1 0x20 ADD SWAP1 KECCAK256 DUP1 SLOAD SWAP2 ISZERO ISZERO PUSH1 0xFF NOT SWAP1 SWAP3 AND SWAP2 SWAP1 SWAP2 OR SWAP1 SSTORE DUP1 PUSH2 0x181 DUP2 PUSH2 0x4F9 JUMP JUMPDEST SWAP2 POP POP PUSH2 0xE6 JUMP JUMPDEST POP PUSH2 0x195 PUSH1 0x1 PUSH0 PUSH2 0x269 JUMP JUMPDEST JUMP JUMPDEST PUSH1 0x2 DUP3 DUP3 PUSH1 0x40 MLOAD PUSH2 0x1A9 SWAP3 SWAP2 SWAP1 PUSH2 0x418 JUMP JUMPDEST SWAP1 DUP2 MSTORE PUSH1 0x40 MLOAD SWAP1 DUP2 SWAP1 SUB PUSH1 0x20 ADD SWAP1 KECCAK256 SLOAD PUSH1 0xFF AND PUSH2 0x231 JUMPI PUSH1 0x1 PUSH1 0x2 DUP4 DUP4 PUSH1 0x40 MLOAD PUSH2 0x1D4 SWAP3 SWAP2 SWAP1 PUSH2 0x418 JUMP JUMPDEST SWAP1 DUP2 MSTORE PUSH1 0x40 MLOAD SWAP1 DUP2 SWAP1 SUB PUSH1 0x20 ADD SWAP1 KECCAK256 DUP1 SLOAD SWAP2 ISZERO ISZERO PUSH1 0xFF NOT SWAP1 SWAP3 AND SWAP2 SWAP1 SWAP2 OR SWAP1 SSTORE PUSH1 0x1 DUP1 SLOAD DUP1 DUP3 ADD DUP3 SSTORE PUSH0 SWAP2 SWAP1 SWAP2 MSTORE PUSH32 0xB10E2D527612073B26EECDFD717E6A320CF44B4AFAC2B0732D9FCBE2B7FA0CF6 ADD PUSH2 0x22F DUP3 DUP5 DUP4 PUSH2 0x55F JUMP JUMPDEST POP JUMPDEST PUSH1 0x1 PUSH0 DUP4 DUP4 PUSH1 0x40 MLOAD PUSH2 0x244 SWAP3 SWAP2 SWAP1 PUSH2 0x418 JUMP JUMPDEST SWAP1 DUP2 MSTORE PUSH1 0x20 ADD PUSH1 0x40 MLOAD DUP1 SWAP2 SUB SWAP1 KECCAK256 PUSH0 DUP3 DUP3 SLOAD PUSH2 0x260 SWAP2 SWAP1 PUSH2 0x61B JUMP JUMPDEST SWAP1 SWAP2 SSTORE POP POP POP POP JUMP JUMPDEST POP DUP1 SLOAD PUSH0 DUP3 SSTORE SWAP1 PUSH0 MSTORE PUSH1 0x20 PUSH0 KECCAK256 SWAP1 DUP2 ADD SWAP1 PUSH2 0x284 SWAP2 SWAP1 PUSH2 0x287 JUMP JUMPDEST POP JUMP JUMPDEST DUP1 DUP3 GT ISZERO PUSH2 0x2A3 JUMPI PUSH0 PUSH2 0x29A DUP3 DUP3 PUSH2 0x2A7 JUMP JUMPDEST POP PUSH1 0x1 ADD PUSH2 0x287 JUMP JUMPDEST POP SWAP1 JUMP JUMPDEST POP DUP1 SLOAD PUSH2 0x2B3 SWAP1 PUSH2 0x43B JUMP JUMPDEST PUSH0 DUP3 SSTORE DUP1 PUSH1 0x1F LT PUSH2 0x2C2 JUMPI POP POP JUMP JUMPDEST PUSH1 0x1F ADD PUSH1 0x20 SWAP1 DIV SWAP1 PUSH0 MSTORE PUSH1 0x20 PUSH0 KECCAK256 SWAP1 DUP2 ADD SWAP1 PUSH2 0x284 SWAP2 SWAP1 JUMPDEST DUP1 DUP3 GT ISZERO PUSH2 0x2A3 JUMPI PUSH0 DUP2 SSTORE PUSH1 0x1 ADD PUSH2 0x2DA JUMP JUMPDEST PUSH4 0x4E487B71 PUSH1 0xE0 SHL PUSH0 MSTORE PUSH1 0x41 PUSH1 0x4 MSTORE PUSH1 0x24 PUSH0 REVERT JUMPDEST PUSH0 PUSH1 0x20 DUP3 DUP5 SUB SLT ISZERO PUSH2 0x311 JUMPI PUSH0 DUP1 REVERT JUMPDEST DUP2 CALLDATALOAD PUSH8 0xFFFFFFFFFFFFFFFF DUP1 DUP3 GT ISZERO PUSH2 0x328 JUMPI PUSH0 DUP1 REVERT JUMPDEST DUP2 DUP5 ADD SWAP2 POP DUP5 PUSH1 0x1F DUP4 ADD SLT PUSH2 0x33B JUMPI PUSH0 DUP1 REVERT JUMPDEST DUP2 CALLDATALOAD DUP2 DUP2 GT ISZERO PUSH2 0x34D JUMPI PUSH2 0x34D PUSH2 0x2ED JUMP JUMPDEST PUSH1 0x40 MLOAD PUSH1 0x1F DUP3 ADD PUSH1 0x1F NOT SWAP1 DUP2 AND PUSH1 0x3F ADD AND DUP2 ADD SWAP1 DUP4 DUP3 GT DUP2 DUP4 LT OR ISZERO PUSH2 0x375 JUMPI PUSH2 0x375 PUSH2 0x2ED JUMP JUMPDEST DUP2 PUSH1 0x40 MSTORE DUP3 DUP2 MSTORE DUP8 PUSH1 0x20 DUP5 DUP8 ADD ADD GT ISZERO PUSH2 0x38D JUMPI PUSH0 DUP1 REVERT JUMPDEST DUP3 PUSH1 0x20 DUP7 ADD PUSH1 0x20 DUP4 ADD CALLDATACOPY PUSH0 SWAP3 DUP2 ADD PUSH1 0x20 ADD SWAP3 SWAP1 SWAP3 MSTORE POP SWAP6 SWAP5 POP POP POP POP POP JUMP JUMPDEST PUSH0 DUP1 PUSH1 0x20 DUP4 DUP6 SUB SLT ISZERO PUSH2 0x3BD JUMPI PUSH0 DUP1 REVERT JUMPDEST DUP3 CALLDATALOAD PUSH8 0xFFFFFFFFFFFFFFFF DUP1 DUP3 GT ISZERO PUSH2 0x3D4 JUMPI PUSH0 DUP1 REVERT JUMPDEST DUP2 DUP6 ADD SWAP2 POP DUP6 PUSH1 0x1F DUP4 ADD SLT PUSH2 0x3E7 JUMPI PUSH0 DUP1 REVERT JUMPDEST DUP2 CALLDATALOAD DUP2 DUP2 GT ISZERO PUSH2 0x3F5 JUMPI PUSH0 DUP1 REVERT JUMPDEST DUP7 PUSH1 0x20 DUP3 DUP6 ADD ADD GT ISZERO PUSH2 0x406 JUMPI PUSH0 DUP1 REVERT JUMPDEST PUSH1 0x20 SWAP3 SWAP1 SWAP3 ADD SWAP7 SWAP2 SWAP6 POP SWAP1 SWAP4 POP POP POP POP JUMP JUMPDEST DUP2 DUP4 DUP3 CALLDATACOPY PUSH0 SWAP2 ADD SWAP1 DUP2 MSTORE SWAP2 SWAP1 POP JUMP JUMPDEST PUSH4 0x4E487B71 PUSH1 0xE0 SHL PUSH0 MSTORE PUSH1 0x32 PUSH1 0x4 MSTORE PUSH1 0x24 PUSH0 REVERT JUMPDEST PUSH1 0x1 DUP2 DUP2 SHR SWAP1 DUP3 AND DUP1 PUSH2 0x44F JUMPI PUSH1 0x7F DUP3 AND SWAP2 POP JUMPDEST PUSH1 0x20 DUP3 LT DUP2 SUB PUSH2 0x46D JUMPI PUSH4 0x4E487B71 PUSH1 0xE0 SHL PUSH0 MSTORE PUSH1 0x22 PUSH1 0x4 MSTORE PUSH1 0x24 PUSH0 REVERT JUMPDEST POP SWAP2 SWAP1 POP JUMP JUMPDEST PUSH0 DUP1 DUP4 SLOAD PUSH2 0x480 DUP2 PUSH2 0x43B JUMP JUMPDEST PUSH1 0x1 DUP3 DUP2 AND DUP1 ISZERO PUSH2 0x498 JUMPI PUSH1 0x1 DUP2 EQ PUSH2 0x4AD JUMPI PUSH2 0x4D9 JUMP JUMPDEST PUSH1 0xFF NOT DUP5 AND DUP8 MSTORE DUP3 ISZERO ISZERO DUP4 MUL DUP8 ADD SWAP5 POP PUSH2 0x4D9 JUMP JUMPDEST DUP8 PUSH0 MSTORE PUSH1 0x20 DUP1 PUSH0 KECCAK256 PUSH0 JUMPDEST DUP6 DUP2 LT ISZERO PUSH2 0x4D0 JUMPI DUP2 SLOAD DUP11 DUP3 ADD MSTORE SWAP1 DUP5 ADD SWAP1 DUP3 ADD PUSH2 0x4B7 JUMP JUMPDEST POP POP POP DUP3 DUP8 ADD SWAP5 POP JUMPDEST POP SWAP3 SWAP7 SWAP6 POP POP POP POP POP POP JUMP JUMPDEST PUSH4 0x4E487B71 PUSH1 0xE0 SHL PUSH0 MSTORE PUSH1 0x11 PUSH1 0x4 MSTORE PUSH1 0x24 PUSH0 REVERT JUMPDEST PUSH0 PUSH1 0x1 DUP3 ADD PUSH2 0x50A JUMPI PUSH2 0x50A PUSH2 0x4E5 JUMP JUMPDEST POP PUSH1 0x1 ADD SWAP1 JUMP JUMPDEST PUSH1 0x1F DUP3 GT ISZERO PUSH2 0x55A JUMPI PUSH0 DUP2 DUP2 MSTORE PUSH1 0x20 DUP2 KECCAK256 PUSH1 0x1F DUP6 ADD PUSH1 0x5 SHR DUP2 ADD PUSH1 0x20 DUP7 LT ISZERO PUSH2 0x537 JUMPI POP DUP1 JUMPDEST PUSH1 0x1F DUP6 ADD PUSH1 0x5 SHR DUP3 ADD SWAP2 POP JUMPDEST DUP2 DUP2 LT ISZERO PUSH2 0x556 JUMPI DUP3 DUP2 SSTORE PUSH1 0x1 ADD PUSH2 0x543 JUMP JUMPDEST POP POP POP JUMPDEST POP POP POP JUMP JUMPDEST PUSH8 0xFFFFFFFFFFFFFFFF DUP4 GT ISZERO PUSH2 0x577 JUMPI PUSH2 0x577 PUSH2 0x2ED JUMP JUMPDEST PUSH2 0x58B DUP4 PUSH2 0x585 DUP4 SLOAD PUSH2 0x43B JUMP JUMPDEST DUP4 PUSH2 0x511 JUMP JUMPDEST PUSH0 PUSH1 0x1F DUP5 GT PUSH1 0x1 DUP2 EQ PUSH2 0x5BC JUMPI PUSH0 DUP6 ISZERO PUSH2 0x5A5 JUMPI POP DUP4 DUP3 ADD CALLDATALOAD JUMPDEST PUSH0 NOT PUSH1 0x3 DUP8 SWAP1 SHL SHR NOT AND PUSH1 0x1 DUP7 SWAP1 SHL OR DUP4 SSTORE PUSH2 0x614 JUMP JUMPDEST PUSH0 DUP4 DUP2 MSTORE PUSH1 0x20 SWAP1 KECCAK256 PUSH1 0x1F NOT DUP7 AND SWAP1 DUP4 JUMPDEST DUP3 DUP2 LT ISZERO PUSH2 0x5EC JUMPI DUP7 DUP6 ADD CALLDATALOAD DUP3 SSTORE PUSH1 0x20 SWAP5 DUP6 ADD SWAP5 PUSH1 0x1 SWAP1 SWAP3 ADD SWAP2 ADD PUSH2 0x5CC JUMP JUMPDEST POP DUP7 DUP3 LT ISZERO PUSH2 0x608 JUMPI PUSH0 NOT PUSH1 0xF8 DUP9 PUSH1 0x3 SHL AND SHR NOT DUP5 DUP8 ADD CALLDATALOAD AND DUP2 SSTORE JUMPDEST POP POP PUSH1 0x1 DUP6 PUSH1 0x1 SHL ADD DUP4 SSTORE JUMPDEST POP POP POP POP POP JUMP JUMPDEST DUP1 DUP3 ADD DUP1 DUP3 GT ISZERO PUSH2 0xDE JUMPI PUSH2 0xDE PUSH2 0x4E5 JUMP INVALID LOG2 PUSH5 0x6970667358 0x22 SLT KECCAK256 TIMESTAMP 0xB1 0xE9 PUSH2 0x22F5 MOD PUSH29 0xC5E84506B63285E00A6A9DB327644DD541AD10DE30209BF264736F6C63 NUMBER STOP ADDMOD ISZERO STOP CALLER "
				},
				"gasEstimates": {
					"creation": {
						"codeDepositCost": "327200",
						"executionCost": "366",
						"totalCost": "327566"
					},
					"external": {
						"candidateToVotes(string)": "infinite",
						"getVotes(string)": "infinite",
						"resetVotes()": "infinite",
						"vote(string)": "infinite"
					}
				},
				"methodIdentifiers": {
					"candidateToVotes(string)": "26640ae6",
					"getVotes(string)": "805265e5",
					"resetVotes()": "b9830ff1",
					"vote(string)": "fc36e15b"
				}
			},
			"storageLayout": {
				"storage": [
					{
						"astId": 5,
						"contract": "Voting.sol:Voting",
						"label": "candidateToVotes",
						"offset": 0,
						"slot": "0",
						"type": "t_mapping(t_string_memory_ptr,t_uint256)"
					},
					{
						"astId": 8,
						"contract": "Voting.sol:Voting",
						"label": "allCadidates",
						"offset": 0,
						"slot": "1",
						"type": "t_array(t_string_storage)dyn_storage"
					},
					{
						"astId": 12,
						"contract": "Voting.sol:Voting",
						"label": "cadidateExsit",
						"offset": 0,
						"slot": "2",
						"type": "t_mapping(t_string_memory_ptr,t_bool)"
					}
				],
				"types": {
					"t_array(t_string_storage)dyn_storage": {
						"base": "t_string_storage",
						"encoding": "dynamic_array",
						"label": "string[]",
						"numberOfBytes": "32"
					},
					"t_bool": {
						"encoding": "inplace",
						"label": "bool",
						"numberOfBytes": "1"
					},
					"t_mapping(t_string_memory_ptr,t_bool)": {
						"encoding": "mapping",
						"key": "t_string_memory_ptr",
						"label": "mapping(string => bool)",
						"numberOfBytes": "32",
						"value": "t_bool"
					},
					"t_mapping(t_string_memory_ptr,t_uint256)": {
						"encoding": "mapping",
						"key": "t_string_memory_ptr",
						"label": "mapping(string => uint256)",
						"numberOfBytes": "32",
						"value": "t_uint256"
					},
					"t_string_memory_ptr": {
						"encoding": "bytes",
						"label": "string",
						"numberOfBytes": "32"
					},
					"t_string_storage": {
						"encoding": "bytes",
						"label": "string",
						"numberOfBytes": "32"
					},
					"t_uint256": {
						"encoding": "inplace",
						"label": "uint256",
						"numberOfBytes": "32"
					}
				}
			},
			"userdoc": {
				"kind": "user",
				"methods": {},
				"version": 1
			}
		}
	}
}