{
	"Algorithm.sol": {
		"Algorithm": {
			"abi": [
				{
					"inputs": [
						{
							"internalType": "uint256[]",
							"name": "arr",
							"type": "uint256[]"
						},
						{
							"internalType": "uint256",
							"name": "num",
							"type": "uint256"
						}
					],
					"name": "binarySearch",
					"outputs": [
						{
							"internalType": "int256",
							"name": "",
							"type": "int256"
						}
					],
					"stateMutability": "pure",
					"type": "function"
				},
				{
					"inputs": [
						{
							"internalType": "string",
							"name": "str",
							"type": "string"
						}
					],
					"name": "getReverseStr",
					"outputs": [
						{
							"internalType": "string",
							"name": "",
							"type": "string"
						}
					],
					"stateMutability": "pure",
					"type": "function"
				},
				{
					"inputs": [
						{
							"internalType": "uint256[]",
							"name": "arr1",
							"type": "uint256[]"
						},
						{
							"internalType": "uint256[]",
							"name": "arr2",
							"type": "uint256[]"
						}
					],
					"name": "merge",
					"outputs": [
						{
							"internalType": "uint256[]",
							"name": "",
							"type": "uint256[]"
						}
					],
					"stateMutability": "pure",
					"type": "function"
				},
				{
					"inputs": [
						{
							"internalType": "uint256",
							"name": "num",
							"type": "uint256"
						}
					],
					"name": "numToRoman",
					"outputs": [
						{
							"internalType": "string",
							"name": "",
							"type": "string"
						}
					],
					"stateMutability": "pure",
					"type": "function"
				},
				{
					"inputs": [
						{
							"internalType": "string",
							"name": "s",
							"type": "string"
						}
					],
					"name": "romanToNum",
					"outputs": [
						{
							"internalType": "uint256",
							"name": "res",
							"type": "uint256"
						}
					],
					"stateMutability": "pure",
					"type": "function"
				}
			],
			"devdoc": {
				"kind": "dev",
				"methods": {},
				"version": 1
			},
			"evm": {
				"assembly": "    /* \"Algorithm.sol\":58:3955  contract Algorithm {... */\n  mstore(0x40, 0x80)\n  callvalue\n  dup1\n  iszero\n  tag_1\n  jumpi\n  0x00\n  dup1\n  revert\ntag_1:\n  pop\n  dataSize(sub_0)\n  dup1\n  dataOffset(sub_0)\n  0x00\n  codecopy\n  0x00\n  return\nstop\n\nsub_0: assembly {\n        /* \"Algorithm.sol\":58:3955  contract Algorithm {... */\n      mstore(0x40, 0x80)\n      callvalue\n      dup1\n      iszero\n      tag_1\n      jumpi\n      0x00\n      dup1\n      revert\n    tag_1:\n      pop\n      jumpi(tag_2, lt(calldatasize, 0x04))\n      shr(0xe0, calldataload(0x00))\n      dup1\n      0x088b9bf6\n      eq\n      tag_3\n      jumpi\n      dup1\n      0x74c3ff2e\n      eq\n      tag_4\n      jumpi\n      dup1\n      0xb12601da\n      eq\n      tag_5\n      jumpi\n      dup1\n      0xcbe541d1\n      eq\n      tag_6\n      jumpi\n      dup1\n      0xcc0a914e\n      eq\n      tag_7\n      jumpi\n    tag_2:\n      0x00\n      dup1\n      revert\n        /* \"Algorithm.sol\":2346:3200  function merge(uint256[] memory arr1, uint256[] memory arr2) public pure returns(uint256[] memory) {... */\n    tag_3:\n      tag_8\n      tag_9\n      calldatasize\n      0x04\n      tag_10\n      jump\t// in\n    tag_9:\n      tag_11\n      jump\t// in\n    tag_8:\n      mload(0x40)\n      tag_12\n      swap2\n      swap1\n      tag_13\n      jump\t// in\n    tag_12:\n      mload(0x40)\n      dup1\n      swap2\n      sub\n      swap1\n      return\n        /* \"Algorithm.sol\":1223:1887  function romanToNum(string memory s) public pure returns(uint256 res) {... */\n    tag_4:\n      tag_14\n      tag_15\n      calldatasize\n      0x04\n      tag_16\n      jump\t// in\n    tag_15:\n      tag_17\n      jump\t// in\n    tag_14:\n      mload(0x40)\n        /* \"#utility.yul\":3295:3320   */\n      swap1\n      dup2\n      mstore\n        /* \"#utility.yul\":3283:3285   */\n      0x20\n        /* \"#utility.yul\":3268:3286   */\n      add\n        /* \"Algorithm.sol\":1223:1887  function romanToNum(string memory s) public pure returns(uint256 res) {... */\n      tag_12\n        /* \"#utility.yul\":3149:3326   */\n      jump\n        /* \"Algorithm.sol\":3291:3951  function binarySearch(uint256[] memory arr, uint256 num) public pure returns(int256) {... */\n    tag_5:\n      tag_14\n      tag_21\n      calldatasize\n      0x04\n      tag_22\n      jump\t// in\n    tag_21:\n      tag_23\n      jump\t// in\n        /* \"Algorithm.sol\":635:1178  function numToRoman(uint256 num) public pure returns(string memory) {... */\n    tag_6:\n      tag_26\n      tag_27\n      calldatasize\n      0x04\n      tag_28\n      jump\t// in\n    tag_27:\n      tag_29\n      jump\t// in\n    tag_26:\n      mload(0x40)\n      tag_12\n      swap2\n      swap1\n      tag_31\n      jump\t// in\n        /* \"Algorithm.sol\":161:588  function getReverseStr(string memory str) public pure returns(string memory) {... */\n    tag_7:\n      tag_26\n      tag_33\n      calldatasize\n      0x04\n      tag_16\n      jump\t// in\n    tag_33:\n      tag_34\n      jump\t// in\n        /* \"Algorithm.sol\":2346:3200  function merge(uint256[] memory arr1, uint256[] memory arr2) public pure returns(uint256[] memory) {... */\n    tag_11:\n        /* \"Algorithm.sol\":2470:2481  arr1.length */\n      dup2\n      mload\n        /* \"Algorithm.sol\":2506:2517  arr2.length */\n      dup2\n      mload\n        /* \"Algorithm.sol\":2427:2443  uint256[] memory */\n      0x60\n      swap2\n        /* \"Algorithm.sol\":2470:2481  arr1.length */\n      swap1\n        /* \"Algorithm.sol\":2455:2467  uint256 len1 */\n      0x00\n        /* \"Algorithm.sol\":2565:2576  len1 + len2 */\n      tag_37\n        /* \"Algorithm.sol\":2506:2517  arr2.length */\n      dup3\n        /* \"Algorithm.sol\":2470:2481  arr1.length */\n      dup5\n        /* \"Algorithm.sol\":2565:2576  len1 + len2 */\n      tag_38\n      jump\t// in\n    tag_37:\n        /* \"Algorithm.sol\":2551:2577  new uint256[](len1 + len2) */\n      0xffffffffffffffff\n      dup2\n      gt\n      iszero\n      tag_40\n      jumpi\n      tag_40\n      tag_41\n      jump\t// in\n    tag_40:\n      mload(0x40)\n      swap1\n      dup1\n      dup3\n      mstore\n      dup1\n      0x20\n      mul\n      0x20\n      add\n      dup3\n      add\n      0x40\n      mstore\n      dup1\n      iszero\n      tag_42\n      jumpi\n      dup2\n      0x20\n      add\n      0x20\n      dup3\n      mul\n      dup1\n      calldatasize\n      dup4\n      calldatacopy\n      add\n      swap1\n      pop\n    tag_42:\n      pop\n        /* \"Algorithm.sol\":2528:2577  uint256[] memory res = new uint256[](len1 + len2) */\n      swap1\n      pop\n        /* \"Algorithm.sol\":2588:2597  uint256 i */\n      0x00\n        /* \"Algorithm.sol\":2625:2634  uint256 j */\n      dup1\n        /* \"Algorithm.sol\":2662:2671  uint256 m */\n      0x00\n        /* \"Algorithm.sol\":2700:2939  while(i < len1 && j < len2) {... */\n    tag_43:\n        /* \"Algorithm.sol\":2710:2714  len1 */\n      dup6\n        /* \"Algorithm.sol\":2706:2707  i */\n      dup4\n        /* \"Algorithm.sol\":2706:2714  i < len1 */\n      lt\n        /* \"Algorithm.sol\":2706:2726  i < len1 && j < len2 */\n      dup1\n      iszero\n      tag_45\n      jumpi\n      pop\n        /* \"Algorithm.sol\":2722:2726  len2 */\n      dup5\n        /* \"Algorithm.sol\":2718:2719  j */\n      dup3\n        /* \"Algorithm.sol\":2718:2726  j < len2 */\n      lt\n        /* \"Algorithm.sol\":2706:2726  i < len1 && j < len2 */\n    tag_45:\n        /* \"Algorithm.sol\":2700:2939  while(i < len1 && j < len2) {... */\n      iszero\n      tag_44\n      jumpi\n        /* \"Algorithm.sol\":2756:2760  arr2 */\n      dup8\n        /* \"Algorithm.sol\":2761:2762  j */\n      dup3\n        /* \"Algorithm.sol\":2756:2763  arr2[j] */\n      dup2\n      mload\n      dup2\n      lt\n      tag_47\n      jumpi\n      tag_47\n      tag_48\n      jump\t// in\n    tag_47:\n      0x20\n      mul\n      0x20\n      add\n      add\n      mload\n        /* \"Algorithm.sol\":2746:2750  arr1 */\n      dup10\n        /* \"Algorithm.sol\":2751:2752  i */\n      dup5\n        /* \"Algorithm.sol\":2746:2753  arr1[i] */\n      dup2\n      mload\n      dup2\n      lt\n      tag_50\n      jumpi\n      tag_50\n      tag_48\n      jump\t// in\n    tag_50:\n      0x20\n      mul\n      0x20\n      add\n      add\n      mload\n        /* \"Algorithm.sol\":2746:2763  arr1[i] < arr2[j] */\n      lt\n        /* \"Algorithm.sol\":2742:2912  if (arr1[i] < arr2[j]) {... */\n      iszero\n      tag_51\n      jumpi\n        /* \"Algorithm.sol\":2792:2796  arr1 */\n      dup9\n        /* \"Algorithm.sol\":2797:2798  i */\n      dup4\n        /* \"Algorithm.sol\":2792:2799  arr1[i] */\n      dup2\n      mload\n      dup2\n      lt\n      tag_53\n      jumpi\n      tag_53\n      tag_48\n      jump\t// in\n    tag_53:\n      0x20\n      mul\n      0x20\n      add\n      add\n      mload\n        /* \"Algorithm.sol\":2783:2786  res */\n      dup5\n        /* \"Algorithm.sol\":2787:2788  m */\n      dup3\n        /* \"Algorithm.sol\":2783:2789  res[m] */\n      dup2\n      mload\n      dup2\n      lt\n      tag_55\n      jumpi\n      tag_55\n      tag_48\n      jump\t// in\n    tag_55:\n      0x20\n      swap1\n      dup2\n      mul\n      swap2\n      swap1\n      swap2\n      add\n      add\n        /* \"Algorithm.sol\":2783:2799  res[m] = arr1[i] */\n      mstore\n        /* \"Algorithm.sol\":2817:2820  i++ */\n      dup3\n      tag_56\n      dup2\n      tag_57\n      jump\t// in\n    tag_56:\n      swap4\n      pop\n      pop\n        /* \"Algorithm.sol\":2742:2912  if (arr1[i] < arr2[j]) {... */\n      jump(tag_58)\n    tag_51:\n        /* \"Algorithm.sol\":2868:2872  arr2 */\n      dup8\n        /* \"Algorithm.sol\":2873:2874  j */\n      dup3\n        /* \"Algorithm.sol\":2868:2875  arr2[j] */\n      dup2\n      mload\n      dup2\n      lt\n      tag_60\n      jumpi\n      tag_60\n      tag_48\n      jump\t// in\n    tag_60:\n      0x20\n      mul\n      0x20\n      add\n      add\n      mload\n        /* \"Algorithm.sol\":2859:2862  res */\n      dup5\n        /* \"Algorithm.sol\":2863:2864  m */\n      dup3\n        /* \"Algorithm.sol\":2859:2865  res[m] */\n      dup2\n      mload\n      dup2\n      lt\n      tag_62\n      jumpi\n      tag_62\n      tag_48\n      jump\t// in\n    tag_62:\n      0x20\n      swap1\n      dup2\n      mul\n      swap2\n      swap1\n      swap2\n      add\n      add\n        /* \"Algorithm.sol\":2859:2875  res[m] = arr2[j] */\n      mstore\n        /* \"Algorithm.sol\":2893:2896  j++ */\n      dup2\n      tag_63\n      dup2\n      tag_57\n      jump\t// in\n    tag_63:\n      swap3\n      pop\n      pop\n        /* \"Algorithm.sol\":2742:2912  if (arr1[i] < arr2[j]) {... */\n    tag_58:\n        /* \"Algorithm.sol\":2925:2928  m++ */\n      dup1\n      tag_64\n      dup2\n      tag_57\n      jump\t// in\n    tag_64:\n      swap2\n      pop\n      pop\n        /* \"Algorithm.sol\":2700:2939  while(i < len1 && j < len2) {... */\n      jump(tag_43)\n    tag_44:\n        /* \"Algorithm.sol\":2991:2995  len1 */\n      dup6\n        /* \"Algorithm.sol\":2987:2988  i */\n      dup4\n        /* \"Algorithm.sol\":2987:2995  i < len1 */\n      lt\n        /* \"Algorithm.sol\":2981:3072  while(i < len1) {... */\n      iszero\n      tag_66\n      jumpi\n        /* \"Algorithm.sol\":3020:3024  arr1 */\n      dup9\n        /* \"Algorithm.sol\":3025:3026  i */\n      dup4\n        /* \"Algorithm.sol\":3020:3027  arr1[i] */\n      dup2\n      mload\n      dup2\n      lt\n      tag_68\n      jumpi\n      tag_68\n      tag_48\n      jump\t// in\n    tag_68:\n      0x20\n      mul\n      0x20\n      add\n      add\n      mload\n        /* \"Algorithm.sol\":3011:3014  res */\n      dup5\n        /* \"Algorithm.sol\":3015:3016  m */\n      dup3\n        /* \"Algorithm.sol\":3011:3017  res[m] */\n      dup2\n      mload\n      dup2\n      lt\n      tag_70\n      jumpi\n      tag_70\n      tag_48\n      jump\t// in\n    tag_70:\n      0x20\n      swap1\n      dup2\n      mul\n      swap2\n      swap1\n      swap2\n      add\n      add\n        /* \"Algorithm.sol\":3011:3027  res[m] = arr1[i] */\n      mstore\n        /* \"Algorithm.sol\":3041:3044  i++ */\n      dup3\n      tag_71\n      dup2\n      tag_57\n      jump\t// in\n    tag_71:\n      swap4\n      pop\n      pop\n        /* \"Algorithm.sol\":3058:3061  m++ */\n      dup1\n      dup1\n      tag_72\n      swap1\n      tag_57\n      jump\t// in\n    tag_72:\n      swap2\n      pop\n      pop\n        /* \"Algorithm.sol\":2981:3072  while(i < len1) {... */\n      jump(tag_44)\n    tag_66:\n        /* \"Algorithm.sol\":3092:3096  len2 */\n      dup5\n        /* \"Algorithm.sol\":3088:3089  j */\n      dup3\n        /* \"Algorithm.sol\":3088:3096  j < len2 */\n      lt\n        /* \"Algorithm.sol\":3082:3173  while(j < len2) {... */\n      iszero\n      tag_74\n      jumpi\n        /* \"Algorithm.sol\":3121:3125  arr2 */\n      dup8\n        /* \"Algorithm.sol\":3126:3127  j */\n      dup3\n        /* \"Algorithm.sol\":3121:3128  arr2[j] */\n      dup2\n      mload\n      dup2\n      lt\n      tag_76\n      jumpi\n      tag_76\n      tag_48\n      jump\t// in\n    tag_76:\n      0x20\n      mul\n      0x20\n      add\n      add\n      mload\n        /* \"Algorithm.sol\":3112:3115  res */\n      dup5\n        /* \"Algorithm.sol\":3116:3117  m */\n      dup3\n        /* \"Algorithm.sol\":3112:3118  res[m] */\n      dup2\n      mload\n      dup2\n      lt\n      tag_78\n      jumpi\n      tag_78\n      tag_48\n      jump\t// in\n    tag_78:\n      0x20\n      swap1\n      dup2\n      mul\n      swap2\n      swap1\n      swap2\n      add\n      add\n        /* \"Algorithm.sol\":3112:3128  res[m] = arr2[j] */\n      mstore\n        /* \"Algorithm.sol\":3142:3145  j++ */\n      dup2\n      tag_79\n      dup2\n      tag_57\n      jump\t// in\n    tag_79:\n      swap3\n      pop\n      pop\n        /* \"Algorithm.sol\":3159:3162  m++ */\n      dup1\n      dup1\n      tag_80\n      swap1\n      tag_57\n      jump\t// in\n    tag_80:\n      swap2\n      pop\n      pop\n        /* \"Algorithm.sol\":3082:3173  while(j < len2) {... */\n      jump(tag_66)\n    tag_74:\n      pop\n        /* \"Algorithm.sol\":3190:3193  res */\n      swap2\n      swap5\n      pop\n      pop\n      pop\n      pop\n      pop\n        /* \"Algorithm.sol\":2346:3200  function merge(uint256[] memory arr1, uint256[] memory arr2) public pure returns(uint256[] memory) {... */\n    tag_36:\n      swap3\n      swap2\n      pop\n      pop\n      jump\t// out\n        /* \"Algorithm.sol\":1223:1887  function romanToNum(string memory s) public pure returns(uint256 res) {... */\n    tag_17:\n        /* \"Algorithm.sol\":1360:1373  sBytes.length */\n      dup1\n      mload\n        /* \"Algorithm.sol\":1280:1291  uint256 res */\n      0x00\n      swap1\n        /* \"Algorithm.sol\":1331:1332  s */\n      dup3\n      swap1\n        /* \"Algorithm.sol\":1387:1398  length == 0 */\n      dup1\n      dup4\n      sub\n        /* \"Algorithm.sol\":1383:1433  if (length == 0) {... */\n      tag_82\n      jumpi\n      pop\n        /* \"Algorithm.sol\":1421:1422  0 */\n      0x00\n      swap4\n        /* \"Algorithm.sol\":1223:1887  function romanToNum(string memory s) public pure returns(uint256 res) {... */\n      swap3\n      pop\n      pop\n      pop\n      jump\t// out\n        /* \"Algorithm.sol\":1383:1433  if (length == 0) {... */\n    tag_82:\n        /* \"Algorithm.sol\":1449:1477  getValue(sBytes[length - 1]) */\n      tag_83\n        /* \"Algorithm.sol\":1458:1464  sBytes */\n      dup3\n        /* \"Algorithm.sol\":1465:1475  length - 1 */\n      tag_84\n        /* \"Algorithm.sol\":1474:1475  1 */\n      0x01\n        /* \"Algorithm.sol\":1465:1471  length */\n      dup5\n        /* \"Algorithm.sol\":1465:1475  length - 1 */\n      tag_85\n      jump\t// in\n    tag_84:\n        /* \"Algorithm.sol\":1458:1476  sBytes[length - 1] */\n      dup2\n      mload\n      dup2\n      lt\n      tag_87\n      jumpi\n      tag_87\n      tag_48\n      jump\t// in\n    tag_87:\n      add\n      0x20\n      add\n      mload\n      not(sub(shl(0xf8, 0x01), 0x01))\n      and\n        /* \"Algorithm.sol\":1449:1457  getValue */\n      tag_88\n        /* \"Algorithm.sol\":1449:1477  getValue(sBytes[length - 1]) */\n      jump\t// in\n    tag_83:\n        /* \"Algorithm.sol\":1443:1477  res = getValue(sBytes[length - 1]) */\n      swap3\n      pop\n      dup3\n        /* \"Algorithm.sol\":1541:1557  uint256 rightVal */\n      0x00\n        /* \"Algorithm.sol\":1591:1601  length - 1 */\n      tag_92\n        /* \"Algorithm.sol\":1600:1601  1 */\n      0x01\n        /* \"Algorithm.sol\":1591:1597  length */\n      dup5\n        /* \"Algorithm.sol\":1591:1601  length - 1 */\n      tag_85\n      jump\t// in\n    tag_92:\n        /* \"Algorithm.sol\":1579:1601  uint256 i = length - 1 */\n      swap1\n      pop\n        /* \"Algorithm.sol\":1574:1861  for (uint256 i = length - 1; i > 0; ) {... */\n    tag_89:\n        /* \"Algorithm.sol\":1603:1608  i > 0 */\n      dup1\n      iszero\n        /* \"Algorithm.sol\":1574:1861  for (uint256 i = length - 1; i > 0; ) {... */\n      tag_90\n      jumpi\n        /* \"Algorithm.sol\":1626:1629  i-- */\n      dup1\n      tag_93\n      dup2\n      tag_94\n      jump\t// in\n    tag_93:\n      swap2\n      pop\n      pop\n        /* \"Algorithm.sol\":1643:1658  uint256 leftVal */\n      0x00\n        /* \"Algorithm.sol\":1661:1680  getValue(sBytes[i]) */\n      tag_95\n        /* \"Algorithm.sol\":1670:1676  sBytes */\n      dup6\n        /* \"Algorithm.sol\":1677:1678  i */\n      dup4\n        /* \"Algorithm.sol\":1670:1679  sBytes[i] */\n      dup2\n      mload\n      dup2\n      lt\n      tag_87\n      jumpi\n      tag_87\n      tag_48\n      jump\t// in\n        /* \"Algorithm.sol\":1661:1680  getValue(sBytes[i]) */\n    tag_95:\n        /* \"Algorithm.sol\":1643:1680  uint256 leftVal = getValue(sBytes[i]) */\n      swap1\n      pop\n        /* \"Algorithm.sol\":1709:1717  rightVal */\n      dup3\n        /* \"Algorithm.sol\":1699:1706  leftVal */\n      dup2\n        /* \"Algorithm.sol\":1699:1717  leftVal < rightVal */\n      lt\n        /* \"Algorithm.sol\":1695:1819  if (leftVal < rightVal) {... */\n      iszero\n      tag_98\n      jumpi\n        /* \"Algorithm.sol\":1737:1751  res -= leftVal */\n      tag_99\n        /* \"Algorithm.sol\":1744:1751  leftVal */\n      dup2\n        /* \"Algorithm.sol\":1737:1751  res -= leftVal */\n      dup8\n      tag_85\n      jump\t// in\n    tag_99:\n      swap6\n      pop\n        /* \"Algorithm.sol\":1695:1819  if (leftVal < rightVal) {... */\n      jump(tag_100)\n    tag_98:\n        /* \"Algorithm.sol\":1790:1804  res += leftVal */\n      tag_101\n        /* \"Algorithm.sol\":1797:1804  leftVal */\n      dup2\n        /* \"Algorithm.sol\":1790:1804  res += leftVal */\n      dup8\n      tag_38\n      jump\t// in\n    tag_101:\n      swap6\n      pop\n        /* \"Algorithm.sol\":1695:1819  if (leftVal < rightVal) {... */\n    tag_100:\n        /* \"Algorithm.sol\":1843:1850  leftVal */\n      swap2\n      pop\n        /* \"Algorithm.sol\":1574:1861  for (uint256 i = length - 1; i > 0; ) {... */\n      jump(tag_89)\n    tag_90:\n      pop\n        /* \"Algorithm.sol\":1870:1880  return res */\n      pop\n      pop\n      pop\n        /* \"Algorithm.sol\":1223:1887  function romanToNum(string memory s) public pure returns(uint256 res) {... */\n      swap2\n      swap1\n      pop\n      jump\t// out\n        /* \"Algorithm.sol\":3291:3951  function binarySearch(uint256[] memory arr, uint256 num) public pure returns(int256) {... */\n    tag_23:\n        /* \"Algorithm.sol\":3428:3438  arr.length */\n      dup2\n      mload\n        /* \"Algorithm.sol\":3368:3374  int256 */\n      0x00\n      swap1\n      dup2\n      swap1\n        /* \"Algorithm.sol\":3453:3463  right == 0 */\n      dup1\n      dup3\n      sub\n        /* \"Algorithm.sol\":3449:3499  if (right == 0) {... */\n      tag_103\n      jumpi\n      not(0x00)\n        /* \"Algorithm.sol\":3479:3488  return -1 */\n      swap3\n      pop\n      pop\n      pop\n      jump(tag_36)\n        /* \"Algorithm.sol\":3449:3499  if (right == 0) {... */\n    tag_103:\n        /* \"Algorithm.sol\":3548:3553  right */\n      dup1\n        /* \"Algorithm.sol\":3541:3545  left */\n      dup3\n        /* \"Algorithm.sol\":3541:3553  left < right */\n      lt\n        /* \"Algorithm.sol\":3535:3925  while(left < right) {... */\n      iszero\n      tag_105\n      jumpi\n        /* \"Algorithm.sol\":3649:3660  uint256 mid */\n      0x00\n        /* \"Algorithm.sol\":3685:3686  2 */\n      0x02\n        /* \"Algorithm.sol\":3671:3681  right-left */\n      tag_106\n        /* \"Algorithm.sol\":3677:3681  left */\n      dup5\n        /* \"Algorithm.sol\":3671:3676  right */\n      dup5\n        /* \"Algorithm.sol\":3671:3681  right-left */\n      tag_85\n      jump\t// in\n    tag_106:\n        /* \"Algorithm.sol\":3670:3686  (right-left) / 2 */\n      tag_107\n      swap2\n      swap1\n      tag_108\n      jump\t// in\n    tag_107:\n        /* \"Algorithm.sol\":3663:3686  left + (right-left) / 2 */\n      tag_109\n      swap1\n        /* \"Algorithm.sol\":3663:3667  left */\n      dup5\n        /* \"Algorithm.sol\":3663:3686  left + (right-left) / 2 */\n      tag_38\n      jump\t// in\n    tag_109:\n        /* \"Algorithm.sol\":3649:3686  uint256 mid = left + (right-left) / 2 */\n      swap1\n      pop\n        /* \"Algorithm.sol\":3712:3715  arr */\n      dup6\n        /* \"Algorithm.sol\":3716:3719  mid */\n      dup2\n        /* \"Algorithm.sol\":3712:3720  arr[mid] */\n      dup2\n      mload\n      dup2\n      lt\n      tag_111\n      jumpi\n      tag_111\n      tag_48\n      jump\t// in\n    tag_111:\n      0x20\n      mul\n      0x20\n      add\n      add\n      mload\n        /* \"Algorithm.sol\":3705:3708  num */\n      dup6\n        /* \"Algorithm.sol\":3705:3720  num == arr[mid] */\n      sub\n        /* \"Algorithm.sol\":3701:3914  if (num == arr[mid]) {... */\n      tag_112\n      jumpi\n        /* \"Algorithm.sol\":3754:3757  mid */\n      swap3\n      pop\n        /* \"Algorithm.sol\":3740:3758  return int256(mid) */\n      tag_36\n      swap2\n      pop\n      pop\n      jump\n        /* \"Algorithm.sol\":3701:3914  if (num == arr[mid]) {... */\n    tag_112:\n        /* \"Algorithm.sol\":3789:3792  arr */\n      dup6\n        /* \"Algorithm.sol\":3793:3796  mid */\n      dup2\n        /* \"Algorithm.sol\":3789:3797  arr[mid] */\n      dup2\n      mload\n      dup2\n      lt\n      tag_115\n      jumpi\n      tag_115\n      tag_48\n      jump\t// in\n    tag_115:\n      0x20\n      mul\n      0x20\n      add\n      add\n      mload\n        /* \"Algorithm.sol\":3783:3786  num */\n      dup6\n        /* \"Algorithm.sol\":3783:3797  num > arr[mid] */\n      gt\n        /* \"Algorithm.sol\":3779:3914  if (num > arr[mid]) {  // 假设:升序... */\n      iszero\n      tag_116\n      jumpi\n        /* \"Algorithm.sol\":3842:3849  mid + 1 */\n      tag_117\n        /* \"Algorithm.sol\":3842:3845  mid */\n      dup2\n        /* \"Algorithm.sol\":3848:3849  1 */\n      0x01\n        /* \"Algorithm.sol\":3842:3849  mid + 1 */\n      tag_38\n      jump\t// in\n    tag_117:\n        /* \"Algorithm.sol\":3835:3849  left = mid + 1 */\n      swap3\n      pop\n        /* \"Algorithm.sol\":3779:3914  if (num > arr[mid]) {  // 假设:升序... */\n      jump(tag_118)\n    tag_116:\n        /* \"Algorithm.sol\":3896:3899  mid */\n      dup1\n        /* \"Algorithm.sol\":3888:3899  right = mid */\n      swap2\n      pop\n        /* \"Algorithm.sol\":3779:3914  if (num > arr[mid]) {  // 假设:升序... */\n    tag_118:\n        /* \"Algorithm.sol\":3555:3925  {... */\n      pop\n        /* \"Algorithm.sol\":3535:3925  while(left < right) {... */\n      jump(tag_103)\n    tag_105:\n      pop\n      not(0x00)\n        /* \"Algorithm.sol\":3942:3944  -1 */\n      swap5\n        /* \"Algorithm.sol\":3291:3951  function binarySearch(uint256[] memory arr, uint256 num) public pure returns(int256) {... */\n      swap4\n      pop\n      pop\n      pop\n      pop\n      jump\t// out\n        /* \"Algorithm.sol\":635:1178  function numToRoman(uint256 num) public pure returns(string memory) {... */\n    tag_29:\n        /* \"Algorithm.sol\":688:701  string memory */\n      0x60\n        /* \"Algorithm.sol\":713:736  string[10] memory units */\n      0x00\n        /* \"Algorithm.sol\":713:799  string[10] memory units = [\"\", \"I\", \"II\", \"III\", \"IV\", \"V\", \"VI\", \"VII\", \"VIII\", \"IX\"] */\n      mload(0x40)\n      dup1\n      0x0140\n      add\n      0x40\n      mstore\n      dup1\n      mload(0x40)\n      dup1\n      0x20\n      add\n      0x40\n      mstore\n      dup1\n      0x00\n      dup2\n      mstore\n      pop\n      dup2\n      mstore\n      0x20\n      add\n      mload(0x40)\n      dup1\n      0x40\n      add\n      0x40\n      mstore\n      dup1\n      0x01\n      dup2\n      mstore\n      0x20\n      add\n      shl(0xf8, 0x49)\n      dup2\n      mstore\n      pop\n      dup2\n      mstore\n      0x20\n      add\n      mload(0x40)\n      dup1\n      0x40\n      add\n      0x40\n      mstore\n      dup1\n      0x02\n      dup2\n      mstore\n      0x20\n      add\n      shl(0xf0, 0x4949)\n      dup2\n      mstore\n      pop\n      dup2\n      mstore\n      0x20\n      add\n      mload(0x40)\n      dup1\n      0x40\n      add\n      0x40\n      mstore\n      dup1\n      0x03\n      dup2\n      mstore\n      0x20\n      add\n      shl(0xe8, 0x494949)\n      dup2\n      mstore\n      pop\n      dup2\n      mstore\n      0x20\n      add\n      mload(0x40)\n      dup1\n      0x40\n      add\n      0x40\n      mstore\n      dup1\n      0x02\n      dup2\n      mstore\n      0x20\n      add\n      shl(0xf1, 0x24ab)\n      dup2\n      mstore\n      pop\n      dup2\n      mstore\n      0x20\n      add\n      mload(0x40)\n      dup1\n      0x40\n      add\n      0x40\n      mstore\n      dup1\n      0x01\n      dup2\n      mstore\n      0x20\n      add\n      shl(0xf9, 0x2b)\n      dup2\n      mstore\n      pop\n      dup2\n      mstore\n      0x20\n      add\n      mload(0x40)\n      dup1\n      0x40\n      add\n      0x40\n      mstore\n      dup1\n      0x02\n      dup2\n      mstore\n      0x20\n      add\n      shl(0xf0, 0x5649)\n      dup2\n      mstore\n      pop\n      dup2\n      mstore\n      0x20\n      add\n      mload(0x40)\n      dup1\n      0x40\n      add\n      0x40\n      mstore\n      dup1\n      0x03\n      dup2\n      mstore\n      0x20\n      add\n      shl(0xe8, 0x564949)\n      dup2\n      mstore\n      pop\n      dup2\n      mstore\n      0x20\n      add\n      mload(0x40)\n      dup1\n      0x40\n      add\n      0x40\n      mstore\n      dup1\n      0x04\n      dup2\n      mstore\n      0x20\n      add\n      shl(0xe0, 0x56494949)\n      dup2\n      mstore\n      pop\n      dup2\n      mstore\n      0x20\n      add\n      mload(0x40)\n      dup1\n      0x40\n      add\n      0x40\n      mstore\n      dup1\n      0x02\n      dup2\n      mstore\n      0x20\n      add\n      shl(0xf3, 0x092b)\n      dup2\n      mstore\n      pop\n      dup2\n      mstore\n      pop\n      swap1\n      pop\n        /* \"Algorithm.sol\":809:831  string[10] memory tens */\n      0x00\n        /* \"Algorithm.sol\":809:894  string[10] memory tens = [\"\", \"X\", \"XX\", \"XXX\", \"XL\", \"L\", \"LX\", \"LXX\", \"LXXX\", \"XC\"] */\n      mload(0x40)\n      dup1\n      0x0140\n      add\n      0x40\n      mstore\n      dup1\n      mload(0x40)\n      dup1\n      0x20\n      add\n      0x40\n      mstore\n      dup1\n      0x00\n      dup2\n      mstore\n      pop\n      dup2\n      mstore\n      0x20\n      add\n      mload(0x40)\n      dup1\n      0x40\n      add\n      0x40\n      mstore\n      dup1\n      0x01\n      dup2\n      mstore\n      0x20\n      add\n      shl(0xfb, 0x0b)\n      dup2\n      mstore\n      pop\n      dup2\n      mstore\n      0x20\n      add\n      mload(0x40)\n      dup1\n      0x40\n      add\n      0x40\n      mstore\n      dup1\n      0x02\n      dup2\n      mstore\n      0x20\n      add\n      shl(0xf3, 0x0b0b)\n      dup2\n      mstore\n      pop\n      dup2\n      mstore\n      0x20\n      add\n      mload(0x40)\n      dup1\n      0x40\n      add\n      0x40\n      mstore\n      dup1\n      0x03\n      dup2\n      mstore\n      0x20\n      add\n      shl(0xeb, 0x0b0b0b)\n      dup2\n      mstore\n      pop\n      dup2\n      mstore\n      0x20\n      add\n      mload(0x40)\n      dup1\n      0x40\n      add\n      0x40\n      mstore\n      dup1\n      0x02\n      dup2\n      mstore\n      0x20\n      add\n      shl(0xf2, 0x1613)\n      dup2\n      mstore\n      pop\n      dup2\n      mstore\n      0x20\n      add\n      mload(0x40)\n      dup1\n      0x40\n      add\n      0x40\n      mstore\n      dup1\n      0x01\n      dup2\n      mstore\n      0x20\n      add\n      shl(0xfa, 0x13)\n      dup2\n      mstore\n      pop\n      dup2\n      mstore\n      0x20\n      add\n      mload(0x40)\n      dup1\n      0x40\n      add\n      0x40\n      mstore\n      dup1\n      0x02\n      dup2\n      mstore\n      0x20\n      add\n      shl(0xf3, 0x098b)\n      dup2\n      mstore\n      pop\n      dup2\n      mstore\n      0x20\n      add\n      mload(0x40)\n      dup1\n      0x40\n      add\n      0x40\n      mstore\n      dup1\n      0x03\n      dup2\n      mstore\n      0x20\n      add\n      shl(0xeb, 0x098b0b)\n      dup2\n      mstore\n      pop\n      dup2\n      mstore\n      0x20\n      add\n      mload(0x40)\n      dup1\n      0x40\n      add\n      0x40\n      mstore\n      dup1\n      0x04\n      dup2\n      mstore\n      0x20\n      add\n      shl(0xe3, 0x098b0b0b)\n      dup2\n      mstore\n      pop\n      dup2\n      mstore\n      0x20\n      add\n      mload(0x40)\n      dup1\n      0x40\n      add\n      0x40\n      mstore\n      dup1\n      0x02\n      dup2\n      mstore\n      0x20\n      add\n      shl(0xf0, 0x5843)\n      dup2\n      mstore\n      pop\n      dup2\n      mstore\n      pop\n      swap1\n      pop\n        /* \"Algorithm.sol\":904:930  string[10] memory hundreds */\n      0x00\n        /* \"Algorithm.sol\":904:993  string[10] memory hundreds = [\"\", \"C\", \"CC\", \"CCC\", \"CD\", \"D\", \"DC\", \"DCC\", \"DCCC\", \"CM\"] */\n      mload(0x40)\n      dup1\n      0x0140\n      add\n      0x40\n      mstore\n      dup1\n      mload(0x40)\n      dup1\n      0x20\n      add\n      0x40\n      mstore\n      dup1\n      0x00\n      dup2\n      mstore\n      pop\n      dup2\n      mstore\n      0x20\n      add\n      mload(0x40)\n      dup1\n      0x40\n      add\n      0x40\n      mstore\n      dup1\n      0x01\n      dup2\n      mstore\n      0x20\n      add\n      shl(0xf8, 0x43)\n      dup2\n      mstore\n      pop\n      dup2\n      mstore\n      0x20\n      add\n      mload(0x40)\n      dup1\n      0x40\n      add\n      0x40\n      mstore\n      dup1\n      0x02\n      dup2\n      mstore\n      0x20\n      add\n      shl(0xf0, 0x4343)\n      dup2\n      mstore\n      pop\n      dup2\n      mstore\n      0x20\n      add\n      mload(0x40)\n      dup1\n      0x40\n      add\n      0x40\n      mstore\n      dup1\n      0x03\n      dup2\n      mstore\n      0x20\n      add\n      shl(0xe8, 0x434343)\n      dup2\n      mstore\n      pop\n      dup2\n      mstore\n      0x20\n      add\n      mload(0x40)\n      dup1\n      0x40\n      add\n      0x40\n      mstore\n      dup1\n      0x02\n      dup2\n      mstore\n      0x20\n      add\n      shl(0xf2, 0x10d1)\n      dup2\n      mstore\n      pop\n      dup2\n      mstore\n      0x20\n      add\n      mload(0x40)\n      dup1\n      0x40\n      add\n      0x40\n      mstore\n      dup1\n      0x01\n      dup2\n      mstore\n      0x20\n      add\n      shl(0xfa, 0x11)\n      dup2\n      mstore\n      pop\n      dup2\n      mstore\n      0x20\n      add\n      mload(0x40)\n      dup1\n      0x40\n      add\n      0x40\n      mstore\n      dup1\n      0x02\n      dup2\n      mstore\n      0x20\n      add\n      shl(0xf0, 0x4443)\n      dup2\n      mstore\n      pop\n      dup2\n      mstore\n      0x20\n      add\n      mload(0x40)\n      dup1\n      0x40\n      add\n      0x40\n      mstore\n      dup1\n      0x03\n      dup2\n      mstore\n      0x20\n      add\n      shl(0xe8, 0x444343)\n      dup2\n      mstore\n      pop\n      dup2\n      mstore\n      0x20\n      add\n      mload(0x40)\n      dup1\n      0x40\n      add\n      0x40\n      mstore\n      dup1\n      0x04\n      dup2\n      mstore\n      0x20\n      add\n      shl(0xe0, 0x44434343)\n      dup2\n      mstore\n      pop\n      dup2\n      mstore\n      0x20\n      add\n      mload(0x40)\n      dup1\n      0x40\n      add\n      0x40\n      mstore\n      dup1\n      0x02\n      dup2\n      mstore\n      0x20\n      add\n      shl(0xf0, 0x434d)\n      dup2\n      mstore\n      pop\n      dup2\n      mstore\n      pop\n      swap1\n      pop\n        /* \"Algorithm.sol\":1003:1029  string[4] memory thousands */\n      0x00\n        /* \"Algorithm.sol\":1003:1054  string[4] memory thousands = [\"\", \"M\", \"MM\", \"MMM\"] */\n      mload(0x40)\n      dup1\n      0x80\n      add\n      0x40\n      mstore\n      dup1\n      mload(0x40)\n      dup1\n      0x20\n      add\n      0x40\n      mstore\n      dup1\n      0x00\n      dup2\n      mstore\n      pop\n      dup2\n      mstore\n      0x20\n      add\n      mload(0x40)\n      dup1\n      0x40\n      add\n      0x40\n      mstore\n      dup1\n      0x01\n      dup2\n      mstore\n      0x20\n      add\n      shl(0xf8, 0x4d)\n      dup2\n      mstore\n      pop\n      dup2\n      mstore\n      0x20\n      add\n      mload(0x40)\n      dup1\n      0x40\n      add\n      0x40\n      mstore\n      dup1\n      0x02\n      dup2\n      mstore\n      0x20\n      add\n      shl(0xf0, 0x4d4d)\n      dup2\n      mstore\n      pop\n      dup2\n      mstore\n      0x20\n      add\n      mload(0x40)\n      dup1\n      0x40\n      add\n      0x40\n      mstore\n      dup1\n      0x03\n      dup2\n      mstore\n      0x20\n      add\n      shl(0xe8, 0x4d4d4d)\n      dup2\n      mstore\n      pop\n      dup2\n      mstore\n      pop\n      swap1\n      pop\n        /* \"Algorithm.sol\":1096:1105  thousands */\n      dup1\n        /* \"Algorithm.sol\":1110:1114  1000 */\n      0x03e8\n        /* \"Algorithm.sol\":1106:1109  num */\n      dup8\n        /* \"Algorithm.sol\":1106:1114  num/1000 */\n      tag_120\n      swap2\n      swap1\n      tag_108\n      jump\t// in\n    tag_120:\n        /* \"Algorithm.sol\":1096:1115  thousands[num/1000] */\n      0x04\n      dup2\n      lt\n      tag_122\n      jumpi\n      tag_122\n      tag_48\n      jump\t// in\n    tag_122:\n      0x20\n      mul\n      add\n      mload\n        /* \"Algorithm.sol\":1117:1125  hundreds */\n      dup3\n        /* \"Algorithm.sol\":1134:1136  10 */\n      0x0a\n        /* \"Algorithm.sol\":1126:1133  num/100 */\n      tag_123\n        /* \"Algorithm.sol\":1130:1133  100 */\n      0x64\n        /* \"Algorithm.sol\":1126:1129  num */\n      dup11\n        /* \"Algorithm.sol\":1126:1133  num/100 */\n      tag_108\n      jump\t// in\n    tag_123:\n        /* \"Algorithm.sol\":1126:1136  num/100%10 */\n      tag_124\n      swap2\n      swap1\n      tag_125\n      jump\t// in\n    tag_124:\n        /* \"Algorithm.sol\":1117:1137  hundreds[num/100%10] */\n      0x0a\n      dup2\n      lt\n      tag_127\n      jumpi\n      tag_127\n      tag_48\n      jump\t// in\n    tag_127:\n      0x20\n      mul\n      add\n      mload\n        /* \"Algorithm.sol\":1139:1143  tens */\n      dup5\n        /* \"Algorithm.sol\":1151:1153  10 */\n      0x0a\n        /* \"Algorithm.sol\":1144:1150  num/10 */\n      tag_128\n        /* \"Algorithm.sol\":1151:1153  10 */\n      dup2\n        /* \"Algorithm.sol\":1144:1147  num */\n      dup12\n        /* \"Algorithm.sol\":1144:1150  num/10 */\n      tag_108\n      jump\t// in\n    tag_128:\n        /* \"Algorithm.sol\":1144:1153  num/10%10 */\n      tag_129\n      swap2\n      swap1\n      tag_125\n      jump\t// in\n    tag_129:\n        /* \"Algorithm.sol\":1139:1154  tens[num/10%10] */\n      0x0a\n      dup2\n      lt\n      tag_131\n      jumpi\n      tag_131\n      tag_48\n      jump\t// in\n    tag_131:\n      0x20\n      mul\n      add\n      mload\n        /* \"Algorithm.sol\":1156:1161  units */\n      dup7\n        /* \"Algorithm.sol\":1162:1168  num%10 */\n      tag_132\n        /* \"Algorithm.sol\":1166:1168  10 */\n      0x0a\n        /* \"Algorithm.sol\":1162:1165  num */\n      dup12\n        /* \"Algorithm.sol\":1162:1168  num%10 */\n      tag_125\n      jump\t// in\n    tag_132:\n        /* \"Algorithm.sol\":1156:1169  units[num%10] */\n      0x0a\n      dup2\n      lt\n      tag_134\n      jumpi\n      tag_134\n      tag_48\n      jump\t// in\n    tag_134:\n      0x20\n      mul\n      add\n      mload\n        /* \"Algorithm.sol\":1079:1170  abi.encodePacked(thousands[num/1000], hundreds[num/100%10], tens[num/10%10], units[num%10]) */\n      add(0x20, mload(0x40))\n      tag_135\n      swap5\n      swap4\n      swap3\n      swap2\n      swap1\n      tag_136\n      jump\t// in\n    tag_135:\n      mload(0x40)\n      0x20\n      dup2\n      dup4\n      sub\n      sub\n      dup2\n      mstore\n      swap1\n      0x40\n      mstore\n        /* \"Algorithm.sol\":1065:1171  return string(abi.encodePacked(thousands[num/1000], hundreds[num/100%10], tens[num/10%10], units[num%10])) */\n      swap5\n      pop\n      pop\n      pop\n      pop\n      pop\n        /* \"Algorithm.sol\":635:1178  function numToRoman(uint256 num) public pure returns(string memory) {... */\n      swap2\n      swap1\n      pop\n      jump\t// out\n        /* \"Algorithm.sol\":161:588  function getReverseStr(string memory str) public pure returns(string memory) {... */\n    tag_34:\n        /* \"Algorithm.sol\":309:324  strBytes.length */\n      dup1\n      mload\n        /* \"Algorithm.sol\":223:236  string memory */\n      0x60\n      swap1\n        /* \"Algorithm.sol\":278:281  str */\n      dup3\n      swap1\n        /* \"Algorithm.sol\":349:350  1 */\n      0x01\n        /* \"Algorithm.sol\":339:350  length <= 1 */\n      dup2\n      gt\n        /* \"Algorithm.sol\":335:387  if (length <= 1) {... */\n      tag_138\n      jumpi\n      pop\n        /* \"Algorithm.sol\":373:376  str */\n      swap2\n      swap3\n        /* \"Algorithm.sol\":161:588  function getReverseStr(string memory str) public pure returns(string memory) {... */\n      swap2\n      pop\n      pop\n      jump\t// out\n        /* \"Algorithm.sol\":335:387  if (length <= 1) {... */\n    tag_138:\n        /* \"Algorithm.sol\":397:418  bytes memory resBytes */\n      0x00\n        /* \"Algorithm.sol\":431:437  length */\n      dup2\n        /* \"Algorithm.sol\":421:438  new bytes(length) */\n      0xffffffffffffffff\n      dup2\n      gt\n      iszero\n      tag_140\n      jumpi\n      tag_140\n      tag_41\n      jump\t// in\n    tag_140:\n      mload(0x40)\n      swap1\n      dup1\n      dup3\n      mstore\n      dup1\n      0x1f\n      add\n      not(0x1f)\n      and\n      0x20\n      add\n      dup3\n      add\n      0x40\n      mstore\n      dup1\n      iszero\n      tag_141\n      jumpi\n      0x20\n      dup3\n      add\n      dup2\n      dup1\n      calldatasize\n      dup4\n      calldatacopy\n      add\n      swap1\n      pop\n    tag_141:\n      pop\n        /* \"Algorithm.sol\":397:438  bytes memory resBytes = new bytes(length) */\n      swap1\n      pop\n        /* \"Algorithm.sol\":453:462  uint256 i */\n      0x00\n        /* \"Algorithm.sol\":448:548  for (uint256 i = 0; i < length; i++) {... */\n    tag_142:\n        /* \"Algorithm.sol\":472:478  length */\n      dup3\n        /* \"Algorithm.sol\":468:469  i */\n      dup2\n        /* \"Algorithm.sol\":468:478  i < length */\n      lt\n        /* \"Algorithm.sol\":448:548  for (uint256 i = 0; i < length; i++) {... */\n      iszero\n      tag_143\n      jumpi\n        /* \"Algorithm.sol\":513:521  strBytes */\n      dup4\n        /* \"Algorithm.sol\":535:536  i */\n      dup2\n        /* \"Algorithm.sol\":522:532  length - 1 */\n      tag_145\n        /* \"Algorithm.sol\":531:532  1 */\n      0x01\n        /* \"Algorithm.sol\":522:528  length */\n      dup7\n        /* \"Algorithm.sol\":522:532  length - 1 */\n      tag_85\n      jump\t// in\n    tag_145:\n        /* \"Algorithm.sol\":522:536  length - 1 - i */\n      tag_146\n      swap2\n      swap1\n      tag_85\n      jump\t// in\n    tag_146:\n        /* \"Algorithm.sol\":513:537  strBytes[length - 1 - i] */\n      dup2\n      mload\n      dup2\n      lt\n      tag_148\n      jumpi\n      tag_148\n      tag_48\n      jump\t// in\n    tag_148:\n      0x20\n      add\n      add\n      mload\n      0xf8\n      shr\n      0xf8\n      shl\n        /* \"Algorithm.sol\":499:507  resBytes */\n      dup3\n        /* \"Algorithm.sol\":508:509  i */\n      dup3\n        /* \"Algorithm.sol\":499:510  resBytes[i] */\n      dup2\n      mload\n      dup2\n      lt\n      tag_150\n      jumpi\n      tag_150\n      tag_48\n      jump\t// in\n    tag_150:\n      0x20\n      add\n      add\n        /* \"Algorithm.sol\":499:537  resBytes[i] = strBytes[length - 1 - i] */\n      swap1\n      not(sub(shl(0xf8, 0x01), 0x01))\n      and\n      swap1\n      dup2\n      0x00\n      byte\n      swap1\n      mstore8\n      pop\n        /* \"Algorithm.sol\":480:483  i++ */\n      dup1\n      tag_151\n      dup2\n      tag_57\n      jump\t// in\n    tag_151:\n      swap2\n      pop\n      pop\n        /* \"Algorithm.sol\":448:548  for (uint256 i = 0; i < length; i++) {... */\n      jump(tag_142)\n    tag_143:\n      pop\n        /* \"Algorithm.sol\":572:580  resBytes */\n      swap5\n        /* \"Algorithm.sol\":161:588  function getReverseStr(string memory str) public pure returns(string memory) {... */\n      swap4\n      pop\n      pop\n      pop\n      pop\n      jump\t// out\n        /* \"Algorithm.sol\":1893:2233  function getValue(bytes1 c) private pure returns (uint256) {... */\n    tag_88:\n        /* \"Algorithm.sol\":1943:1950  uint256 */\n      0x00\n      not(sub(shl(0xf8, 0x01), 0x01))\n        /* \"Algorithm.sol\":1966:1974  c == \"I\" */\n      dup3\n      and\n      shl(0xf8, 0x49)\n      sub\n        /* \"Algorithm.sol\":1962:1984  if (c == \"I\") return 1 */\n      tag_153\n      jumpi\n      pop\n        /* \"Algorithm.sol\":1983:1984  1 */\n      0x01\n      swap2\n        /* \"Algorithm.sol\":1893:2233  function getValue(bytes1 c) private pure returns (uint256) {... */\n      swap1\n      pop\n      jump\t// out\n        /* \"Algorithm.sol\":1962:1984  if (c == \"I\") return 1 */\n    tag_153:\n      not(sub(shl(0xf8, 0x01), 0x01))\n        /* \"Algorithm.sol\":1998:2006  c == \"V\" */\n      dup3\n      and\n      shl(0xf9, 0x2b)\n      sub\n        /* \"Algorithm.sol\":1994:2016  if (c == \"V\") return 5 */\n      tag_154\n      jumpi\n      pop\n        /* \"Algorithm.sol\":2015:2016  5 */\n      0x05\n      swap2\n        /* \"Algorithm.sol\":1893:2233  function getValue(bytes1 c) private pure returns (uint256) {... */\n      swap1\n      pop\n      jump\t// out\n        /* \"Algorithm.sol\":1994:2016  if (c == \"V\") return 5 */\n    tag_154:\n      not(sub(shl(0xf8, 0x01), 0x01))\n        /* \"Algorithm.sol\":2030:2038  c == \"X\" */\n      dup3\n      and\n      shl(0xfb, 0x0b)\n      sub\n        /* \"Algorithm.sol\":2026:2049  if (c == \"X\") return 10 */\n      tag_155\n      jumpi\n      pop\n        /* \"Algorithm.sol\":2047:2049  10 */\n      0x0a\n      swap2\n        /* \"Algorithm.sol\":1893:2233  function getValue(bytes1 c) private pure returns (uint256) {... */\n      swap1\n      pop\n      jump\t// out\n        /* \"Algorithm.sol\":2026:2049  if (c == \"X\") return 10 */\n    tag_155:\n      not(sub(shl(0xf8, 0x01), 0x01))\n        /* \"Algorithm.sol\":2063:2071  c == \"L\" */\n      dup3\n      and\n      shl(0xfa, 0x13)\n      sub\n        /* \"Algorithm.sol\":2059:2082  if (c == \"L\") return 50 */\n      tag_156\n      jumpi\n      pop\n        /* \"Algorithm.sol\":2080:2082  50 */\n      0x32\n      swap2\n        /* \"Algorithm.sol\":1893:2233  function getValue(bytes1 c) private pure returns (uint256) {... */\n      swap1\n      pop\n      jump\t// out\n        /* \"Algorithm.sol\":2059:2082  if (c == \"L\") return 50 */\n    tag_156:\n      not(sub(shl(0xf8, 0x01), 0x01))\n        /* \"Algorithm.sol\":2096:2104  c == \"C\" */\n      dup3\n      and\n      shl(0xf8, 0x43)\n      sub\n        /* \"Algorithm.sol\":2092:2116  if (c == \"C\") return 100 */\n      tag_157\n      jumpi\n      pop\n        /* \"Algorithm.sol\":2113:2116  100 */\n      0x64\n      swap2\n        /* \"Algorithm.sol\":1893:2233  function getValue(bytes1 c) private pure returns (uint256) {... */\n      swap1\n      pop\n      jump\t// out\n        /* \"Algorithm.sol\":2092:2116  if (c == \"C\") return 100 */\n    tag_157:\n      not(sub(shl(0xf8, 0x01), 0x01))\n        /* \"Algorithm.sol\":2130:2138  c == \"D\" */\n      dup3\n      and\n      shl(0xfa, 0x11)\n      sub\n        /* \"Algorithm.sol\":2126:2150  if (c == \"D\") return 500 */\n      tag_158\n      jumpi\n      pop\n        /* \"Algorithm.sol\":2147:2150  500 */\n      0x01f4\n      swap2\n        /* \"Algorithm.sol\":1893:2233  function getValue(bytes1 c) private pure returns (uint256) {... */\n      swap1\n      pop\n      jump\t// out\n        /* \"Algorithm.sol\":2126:2150  if (c == \"D\") return 500 */\n    tag_158:\n      not(sub(shl(0xf8, 0x01), 0x01))\n        /* \"Algorithm.sol\":2164:2172  c == \"M\" */\n      dup3\n      and\n      shl(0xf8, 0x4d)\n      sub\n        /* \"Algorithm.sol\":2160:2185  if (c == \"M\") return 1000 */\n      tag_159\n      jumpi\n      pop\n        /* \"Algorithm.sol\":2181:2185  1000 */\n      0x03e8\n      swap2\n        /* \"Algorithm.sol\":1893:2233  function getValue(bytes1 c) private pure returns (uint256) {... */\n      swap1\n      pop\n      jump\t// out\n        /* \"Algorithm.sol\":2160:2185  if (c == \"M\") return 1000 */\n    tag_159:\n        /* \"Algorithm.sol\":2195:2226  revert(\"Invalid Roman numeral\") */\n      mload(0x40)\n      shl(0xe5, 0x461bcd)\n      dup2\n      mstore\n        /* \"#utility.yul\":7072:7074   */\n      0x20\n        /* \"Algorithm.sol\":2195:2226  revert(\"Invalid Roman numeral\") */\n      0x04\n      dup3\n      add\n        /* \"#utility.yul\":7054:7075   */\n      mstore\n        /* \"#utility.yul\":7111:7113   */\n      0x15\n        /* \"#utility.yul\":7091:7109   */\n      0x24\n      dup3\n      add\n        /* \"#utility.yul\":7084:7114   */\n      mstore\n      shl(0x5a, 0x125b9d985b1a5908149bdb585b881b9d5b595c985b)\n        /* \"#utility.yul\":7130:7148   */\n      0x44\n      dup3\n      add\n        /* \"#utility.yul\":7123:7174   */\n      mstore\n        /* \"#utility.yul\":7191:7209   */\n      0x64\n      add\n        /* \"Algorithm.sol\":2195:2226  revert(\"Invalid Roman numeral\") */\n      mload(0x40)\n      dup1\n      swap2\n      sub\n      swap1\n      revert\n        /* \"#utility.yul\":14:141   */\n    tag_41:\n        /* \"#utility.yul\":75:85   */\n      0x4e487b71\n        /* \"#utility.yul\":70:73   */\n      0xe0\n        /* \"#utility.yul\":66:86   */\n      shl\n        /* \"#utility.yul\":63:64   */\n      0x00\n        /* \"#utility.yul\":56:87   */\n      mstore\n        /* \"#utility.yul\":106:110   */\n      0x41\n        /* \"#utility.yul\":103:104   */\n      0x04\n        /* \"#utility.yul\":96:111   */\n      mstore\n        /* \"#utility.yul\":130:134   */\n      0x24\n        /* \"#utility.yul\":127:128   */\n      0x00\n        /* \"#utility.yul\":120:135   */\n      revert\n        /* \"#utility.yul\":146:421   */\n    tag_162:\n        /* \"#utility.yul\":217:219   */\n      0x40\n        /* \"#utility.yul\":211:220   */\n      mload\n        /* \"#utility.yul\":282:284   */\n      0x1f\n        /* \"#utility.yul\":263:276   */\n      dup3\n      add\n      not(0x1f)\n        /* \"#utility.yul\":259:286   */\n      and\n        /* \"#utility.yul\":247:287   */\n      dup2\n      add\n        /* \"#utility.yul\":317:335   */\n      0xffffffffffffffff\n        /* \"#utility.yul\":302:336   */\n      dup2\n      gt\n        /* \"#utility.yul\":338:360   */\n      dup3\n      dup3\n      lt\n        /* \"#utility.yul\":299:361   */\n      or\n        /* \"#utility.yul\":296:384   */\n      iszero\n      tag_171\n      jumpi\n        /* \"#utility.yul\":364:382   */\n      tag_171\n      tag_41\n      jump\t// in\n    tag_171:\n        /* \"#utility.yul\":400:402   */\n      0x40\n        /* \"#utility.yul\":393:415   */\n      mstore\n        /* \"#utility.yul\":146:421   */\n      swap2\n      swap1\n      pop\n      jump\t// out\n        /* \"#utility.yul\":426:1138   */\n    tag_163:\n        /* \"#utility.yul\":480:485   */\n      0x00\n        /* \"#utility.yul\":533:536   */\n      dup3\n        /* \"#utility.yul\":526:530   */\n      0x1f\n        /* \"#utility.yul\":518:524   */\n      dup4\n        /* \"#utility.yul\":514:531   */\n      add\n        /* \"#utility.yul\":510:537   */\n      slt\n        /* \"#utility.yul\":500:555   */\n      tag_173\n      jumpi\n        /* \"#utility.yul\":551:552   */\n      0x00\n        /* \"#utility.yul\":548:549   */\n      dup1\n        /* \"#utility.yul\":541:553   */\n      revert\n        /* \"#utility.yul\":500:555   */\n    tag_173:\n        /* \"#utility.yul\":587:593   */\n      dup2\n        /* \"#utility.yul\":574:594   */\n      calldataload\n        /* \"#utility.yul\":613:617   */\n      0x20\n        /* \"#utility.yul\":636:654   */\n      0xffffffffffffffff\n        /* \"#utility.yul\":632:634   */\n      dup3\n        /* \"#utility.yul\":629:655   */\n      gt\n        /* \"#utility.yul\":626:678   */\n      iszero\n      tag_175\n      jumpi\n        /* \"#utility.yul\":658:676   */\n      tag_175\n      tag_41\n      jump\t// in\n    tag_175:\n        /* \"#utility.yul\":704:706   */\n      dup2\n        /* \"#utility.yul\":701:702   */\n      0x05\n        /* \"#utility.yul\":697:707   */\n      shl\n        /* \"#utility.yul\":727:755   */\n      tag_176\n        /* \"#utility.yul\":751:753   */\n      dup3\n        /* \"#utility.yul\":747:749   */\n      dup3\n        /* \"#utility.yul\":743:754   */\n      add\n        /* \"#utility.yul\":727:755   */\n      tag_162\n      jump\t// in\n    tag_176:\n        /* \"#utility.yul\":789:804   */\n      swap3\n      dup4\n      mstore\n        /* \"#utility.yul\":859:874   */\n      dup5\n      dup2\n      add\n        /* \"#utility.yul\":855:879   */\n      dup3\n      add\n      swap3\n        /* \"#utility.yul\":820:832   */\n      dup3\n      dup2\n      add\n      swap1\n        /* \"#utility.yul\":891:906   */\n      dup8\n      dup6\n      gt\n        /* \"#utility.yul\":888:923   */\n      iszero\n      tag_177\n      jumpi\n        /* \"#utility.yul\":919:920   */\n      0x00\n        /* \"#utility.yul\":916:917   */\n      dup1\n        /* \"#utility.yul\":909:921   */\n      revert\n        /* \"#utility.yul\":888:923   */\n    tag_177:\n        /* \"#utility.yul\":955:957   */\n      dup4\n        /* \"#utility.yul\":947:953   */\n      dup8\n        /* \"#utility.yul\":943:958   */\n      add\n        /* \"#utility.yul\":932:958   */\n      swap3\n      pop\n        /* \"#utility.yul\":967:1109   */\n    tag_178:\n        /* \"#utility.yul\":983:989   */\n      dup5\n        /* \"#utility.yul\":978:981   */\n      dup4\n        /* \"#utility.yul\":975:990   */\n      lt\n        /* \"#utility.yul\":967:1109   */\n      iszero\n      tag_180\n      jumpi\n        /* \"#utility.yul\":1049:1066   */\n      dup3\n      calldataload\n        /* \"#utility.yul\":1037:1067   */\n      dup3\n      mstore\n        /* \"#utility.yul\":1000:1012   */\n      swap2\n      dup4\n      add\n      swap2\n        /* \"#utility.yul\":1087:1099   */\n      swap1\n      dup4\n      add\n      swap1\n        /* \"#utility.yul\":967:1109   */\n      jump(tag_178)\n    tag_180:\n        /* \"#utility.yul\":1127:1132   */\n      swap8\n        /* \"#utility.yul\":426:1138   */\n      swap7\n      pop\n      pop\n      pop\n      pop\n      pop\n      pop\n      pop\n      jump\t// out\n        /* \"#utility.yul\":1143:1738   */\n    tag_10:\n        /* \"#utility.yul\":1261:1267   */\n      0x00\n        /* \"#utility.yul\":1269:1275   */\n      dup1\n        /* \"#utility.yul\":1322:1324   */\n      0x40\n        /* \"#utility.yul\":1310:1319   */\n      dup4\n        /* \"#utility.yul\":1301:1308   */\n      dup6\n        /* \"#utility.yul\":1297:1320   */\n      sub\n        /* \"#utility.yul\":1293:1325   */\n      slt\n        /* \"#utility.yul\":1290:1342   */\n      iszero\n      tag_182\n      jumpi\n        /* \"#utility.yul\":1338:1339   */\n      0x00\n        /* \"#utility.yul\":1335:1336   */\n      dup1\n        /* \"#utility.yul\":1328:1340   */\n      revert\n        /* \"#utility.yul\":1290:1342   */\n    tag_182:\n        /* \"#utility.yul\":1378:1387   */\n      dup3\n        /* \"#utility.yul\":1365:1388   */\n      calldataload\n        /* \"#utility.yul\":1407:1425   */\n      0xffffffffffffffff\n        /* \"#utility.yul\":1448:1450   */\n      dup1\n        /* \"#utility.yul\":1440:1446   */\n      dup3\n        /* \"#utility.yul\":1437:1451   */\n      gt\n        /* \"#utility.yul\":1434:1468   */\n      iszero\n      tag_183\n      jumpi\n        /* \"#utility.yul\":1464:1465   */\n      0x00\n        /* \"#utility.yul\":1461:1462   */\n      dup1\n        /* \"#utility.yul\":1454:1466   */\n      revert\n        /* \"#utility.yul\":1434:1468   */\n    tag_183:\n        /* \"#utility.yul\":1487:1548   */\n      tag_184\n        /* \"#utility.yul\":1540:1547   */\n      dup7\n        /* \"#utility.yul\":1531:1537   */\n      dup4\n        /* \"#utility.yul\":1520:1529   */\n      dup8\n        /* \"#utility.yul\":1516:1538   */\n      add\n        /* \"#utility.yul\":1487:1548   */\n      tag_163\n      jump\t// in\n    tag_184:\n        /* \"#utility.yul\":1477:1548   */\n      swap4\n      pop\n        /* \"#utility.yul\":1601:1603   */\n      0x20\n        /* \"#utility.yul\":1590:1599   */\n      dup6\n        /* \"#utility.yul\":1586:1604   */\n      add\n        /* \"#utility.yul\":1573:1605   */\n      calldataload\n        /* \"#utility.yul\":1557:1605   */\n      swap2\n      pop\n        /* \"#utility.yul\":1630:1632   */\n      dup1\n        /* \"#utility.yul\":1620:1628   */\n      dup3\n        /* \"#utility.yul\":1617:1633   */\n      gt\n        /* \"#utility.yul\":1614:1650   */\n      iszero\n      tag_185\n      jumpi\n        /* \"#utility.yul\":1646:1647   */\n      0x00\n        /* \"#utility.yul\":1643:1644   */\n      dup1\n        /* \"#utility.yul\":1636:1648   */\n      revert\n        /* \"#utility.yul\":1614:1650   */\n    tag_185:\n      pop\n        /* \"#utility.yul\":1669:1732   */\n      tag_186\n        /* \"#utility.yul\":1724:1731   */\n      dup6\n        /* \"#utility.yul\":1713:1721   */\n      dup3\n        /* \"#utility.yul\":1702:1711   */\n      dup7\n        /* \"#utility.yul\":1698:1722   */\n      add\n        /* \"#utility.yul\":1669:1732   */\n      tag_163\n      jump\t// in\n    tag_186:\n        /* \"#utility.yul\":1659:1732   */\n      swap2\n      pop\n      pop\n        /* \"#utility.yul\":1143:1738   */\n      swap3\n      pop\n      swap3\n      swap1\n      pop\n      jump\t// out\n        /* \"#utility.yul\":1743:2375   */\n    tag_13:\n        /* \"#utility.yul\":1914:1916   */\n      0x20\n        /* \"#utility.yul\":1966:1987   */\n      dup1\n      dup3\n      mstore\n        /* \"#utility.yul\":2036:2049   */\n      dup3\n      mload\n        /* \"#utility.yul\":1939:1957   */\n      dup3\n      dup3\n      add\n        /* \"#utility.yul\":2058:2080   */\n      dup2\n      swap1\n      mstore\n        /* \"#utility.yul\":1885:1889   */\n      0x00\n      swap2\n        /* \"#utility.yul\":1914:1916   */\n      swap1\n        /* \"#utility.yul\":2137:2152   */\n      dup5\n      dup3\n      add\n      swap1\n        /* \"#utility.yul\":2111:2113   */\n      0x40\n        /* \"#utility.yul\":2096:2114   */\n      dup6\n      add\n      swap1\n        /* \"#utility.yul\":1885:1889   */\n      dup5\n        /* \"#utility.yul\":2180:2349   */\n    tag_188:\n        /* \"#utility.yul\":2194:2200   */\n      dup2\n        /* \"#utility.yul\":2191:2192   */\n      dup2\n        /* \"#utility.yul\":2188:2201   */\n      lt\n        /* \"#utility.yul\":2180:2349   */\n      iszero\n      tag_190\n      jumpi\n        /* \"#utility.yul\":2255:2268   */\n      dup4\n      mload\n        /* \"#utility.yul\":2243:2269   */\n      dup4\n      mstore\n        /* \"#utility.yul\":2324:2339   */\n      swap3\n      dup5\n      add\n      swap3\n        /* \"#utility.yul\":2289:2301   */\n      swap2\n      dup5\n      add\n      swap2\n        /* \"#utility.yul\":2216:2217   */\n      0x01\n        /* \"#utility.yul\":2209:2218   */\n      add\n        /* \"#utility.yul\":2180:2349   */\n      jump(tag_188)\n    tag_190:\n      pop\n        /* \"#utility.yul\":2366:2369   */\n      swap1\n      swap7\n        /* \"#utility.yul\":1743:2375   */\n      swap6\n      pop\n      pop\n      pop\n      pop\n      pop\n      pop\n      jump\t// out\n        /* \"#utility.yul\":2380:3144   */\n    tag_16:\n        /* \"#utility.yul\":2449:2455   */\n      0x00\n        /* \"#utility.yul\":2480:2482   */\n      0x20\n        /* \"#utility.yul\":2523:2525   */\n      dup1\n        /* \"#utility.yul\":2511:2520   */\n      dup4\n        /* \"#utility.yul\":2502:2509   */\n      dup6\n        /* \"#utility.yul\":2498:2521   */\n      sub\n        /* \"#utility.yul\":2494:2526   */\n      slt\n        /* \"#utility.yul\":2491:2543   */\n      iszero\n      tag_192\n      jumpi\n        /* \"#utility.yul\":2539:2540   */\n      0x00\n        /* \"#utility.yul\":2536:2537   */\n      dup1\n        /* \"#utility.yul\":2529:2541   */\n      revert\n        /* \"#utility.yul\":2491:2543   */\n    tag_192:\n        /* \"#utility.yul\":2579:2588   */\n      dup3\n        /* \"#utility.yul\":2566:2589   */\n      calldataload\n        /* \"#utility.yul\":2608:2626   */\n      0xffffffffffffffff\n        /* \"#utility.yul\":2649:2651   */\n      dup1\n        /* \"#utility.yul\":2641:2647   */\n      dup3\n        /* \"#utility.yul\":2638:2652   */\n      gt\n        /* \"#utility.yul\":2635:2669   */\n      iszero\n      tag_193\n      jumpi\n        /* \"#utility.yul\":2665:2666   */\n      0x00\n        /* \"#utility.yul\":2662:2663   */\n      dup1\n        /* \"#utility.yul\":2655:2667   */\n      revert\n        /* \"#utility.yul\":2635:2669   */\n    tag_193:\n        /* \"#utility.yul\":2703:2709   */\n      dup2\n        /* \"#utility.yul\":2692:2701   */\n      dup6\n        /* \"#utility.yul\":2688:2710   */\n      add\n        /* \"#utility.yul\":2678:2710   */\n      swap2\n      pop\n        /* \"#utility.yul\":2748:2755   */\n      dup6\n        /* \"#utility.yul\":2741:2745   */\n      0x1f\n        /* \"#utility.yul\":2737:2739   */\n      dup4\n        /* \"#utility.yul\":2733:2746   */\n      add\n        /* \"#utility.yul\":2729:2756   */\n      slt\n        /* \"#utility.yul\":2719:2774   */\n      tag_194\n      jumpi\n        /* \"#utility.yul\":2770:2771   */\n      0x00\n        /* \"#utility.yul\":2767:2768   */\n      dup1\n        /* \"#utility.yul\":2760:2772   */\n      revert\n        /* \"#utility.yul\":2719:2774   */\n    tag_194:\n        /* \"#utility.yul\":2806:2808   */\n      dup2\n        /* \"#utility.yul\":2793:2809   */\n      calldataload\n        /* \"#utility.yul\":2828:2830   */\n      dup2\n        /* \"#utility.yul\":2824:2826   */\n      dup2\n        /* \"#utility.yul\":2821:2831   */\n      gt\n        /* \"#utility.yul\":2818:2854   */\n      iszero\n      tag_196\n      jumpi\n        /* \"#utility.yul\":2834:2852   */\n      tag_196\n      tag_41\n      jump\t// in\n    tag_196:\n        /* \"#utility.yul\":2876:2929   */\n      tag_197\n        /* \"#utility.yul\":2919:2921   */\n      0x1f\n        /* \"#utility.yul\":2900:2913   */\n      dup3\n      add\n      not(0x1f)\n        /* \"#utility.yul\":2896:2923   */\n      and\n        /* \"#utility.yul\":2892:2928   */\n      dup6\n      add\n        /* \"#utility.yul\":2876:2929   */\n      tag_162\n      jump\t// in\n    tag_197:\n        /* \"#utility.yul\":2863:2929   */\n      swap2\n      pop\n        /* \"#utility.yul\":2952:2954   */\n      dup1\n        /* \"#utility.yul\":2945:2950   */\n      dup3\n        /* \"#utility.yul\":2938:2955   */\n      mstore\n        /* \"#utility.yul\":2992:2999   */\n      dup7\n        /* \"#utility.yul\":2987:2989   */\n      dup5\n        /* \"#utility.yul\":2982:2984   */\n      dup3\n        /* \"#utility.yul\":2978:2980   */\n      dup6\n        /* \"#utility.yul\":2974:2985   */\n      add\n        /* \"#utility.yul\":2970:2990   */\n      add\n        /* \"#utility.yul\":2967:3000   */\n      gt\n        /* \"#utility.yul\":2964:3017   */\n      iszero\n      tag_198\n      jumpi\n        /* \"#utility.yul\":3013:3014   */\n      0x00\n        /* \"#utility.yul\":3010:3011   */\n      dup1\n        /* \"#utility.yul\":3003:3015   */\n      revert\n        /* \"#utility.yul\":2964:3017   */\n    tag_198:\n        /* \"#utility.yul\":3068:3070   */\n      dup1\n        /* \"#utility.yul\":3063:3065   */\n      dup5\n        /* \"#utility.yul\":3059:3061   */\n      dup5\n        /* \"#utility.yul\":3055:3066   */\n      add\n        /* \"#utility.yul\":3050:3052   */\n      dup6\n        /* \"#utility.yul\":3043:3048   */\n      dup5\n        /* \"#utility.yul\":3039:3053   */\n      add\n        /* \"#utility.yul\":3026:3071   */\n      calldatacopy\n        /* \"#utility.yul\":3112:3113   */\n      0x00\n        /* \"#utility.yul\":3091:3105   */\n      swap1\n      dup3\n      add\n        /* \"#utility.yul\":3087:3110   */\n      swap1\n      swap4\n      add\n        /* \"#utility.yul\":3080:3114   */\n      swap3\n      swap1\n      swap3\n      mstore\n      pop\n        /* \"#utility.yul\":3095:3100   */\n      swap4\n        /* \"#utility.yul\":2380:3144   */\n      swap3\n      pop\n      pop\n      pop\n      jump\t// out\n        /* \"#utility.yul\":3331:3747   */\n    tag_22:\n        /* \"#utility.yul\":3424:3430   */\n      0x00\n        /* \"#utility.yul\":3432:3438   */\n      dup1\n        /* \"#utility.yul\":3485:3487   */\n      0x40\n        /* \"#utility.yul\":3473:3482   */\n      dup4\n        /* \"#utility.yul\":3464:3471   */\n      dup6\n        /* \"#utility.yul\":3460:3483   */\n      sub\n        /* \"#utility.yul\":3456:3488   */\n      slt\n        /* \"#utility.yul\":3453:3505   */\n      iszero\n      tag_201\n      jumpi\n        /* \"#utility.yul\":3501:3502   */\n      0x00\n        /* \"#utility.yul\":3498:3499   */\n      dup1\n        /* \"#utility.yul\":3491:3503   */\n      revert\n        /* \"#utility.yul\":3453:3505   */\n    tag_201:\n        /* \"#utility.yul\":3541:3550   */\n      dup3\n        /* \"#utility.yul\":3528:3551   */\n      calldataload\n        /* \"#utility.yul\":3574:3592   */\n      0xffffffffffffffff\n        /* \"#utility.yul\":3566:3572   */\n      dup2\n        /* \"#utility.yul\":3563:3593   */\n      gt\n        /* \"#utility.yul\":3560:3610   */\n      iszero\n      tag_202\n      jumpi\n        /* \"#utility.yul\":3606:3607   */\n      0x00\n        /* \"#utility.yul\":3603:3604   */\n      dup1\n        /* \"#utility.yul\":3596:3608   */\n      revert\n        /* \"#utility.yul\":3560:3610   */\n    tag_202:\n        /* \"#utility.yul\":3629:3690   */\n      tag_203\n        /* \"#utility.yul\":3682:3689   */\n      dup6\n        /* \"#utility.yul\":3673:3679   */\n      dup3\n        /* \"#utility.yul\":3662:3671   */\n      dup7\n        /* \"#utility.yul\":3658:3680   */\n      add\n        /* \"#utility.yul\":3629:3690   */\n      tag_163\n      jump\t// in\n    tag_203:\n        /* \"#utility.yul\":3619:3690   */\n      swap6\n        /* \"#utility.yul\":3737:3739   */\n      0x20\n        /* \"#utility.yul\":3722:3740   */\n      swap5\n      swap1\n      swap5\n      add\n        /* \"#utility.yul\":3709:3741   */\n      calldataload\n      swap5\n      pop\n      pop\n      pop\n      pop\n        /* \"#utility.yul\":3331:3747   */\n      jump\t// out\n        /* \"#utility.yul\":3932:4112   */\n    tag_28:\n        /* \"#utility.yul\":3991:3997   */\n      0x00\n        /* \"#utility.yul\":4044:4046   */\n      0x20\n        /* \"#utility.yul\":4032:4041   */\n      dup3\n        /* \"#utility.yul\":4023:4030   */\n      dup5\n        /* \"#utility.yul\":4019:4042   */\n      sub\n        /* \"#utility.yul\":4015:4047   */\n      slt\n        /* \"#utility.yul\":4012:4064   */\n      iszero\n      tag_206\n      jumpi\n        /* \"#utility.yul\":4060:4061   */\n      0x00\n        /* \"#utility.yul\":4057:4058   */\n      dup1\n        /* \"#utility.yul\":4050:4062   */\n      revert\n        /* \"#utility.yul\":4012:4064   */\n    tag_206:\n      pop\n        /* \"#utility.yul\":4083:4106   */\n      calldataload\n      swap2\n        /* \"#utility.yul\":3932:4112   */\n      swap1\n      pop\n      jump\t// out\n        /* \"#utility.yul\":4117:4367   */\n    tag_164:\n        /* \"#utility.yul\":4202:4203   */\n      0x00\n        /* \"#utility.yul\":4212:4325   */\n    tag_208:\n        /* \"#utility.yul\":4226:4232   */\n      dup4\n        /* \"#utility.yul\":4223:4224   */\n      dup2\n        /* \"#utility.yul\":4220:4233   */\n      lt\n        /* \"#utility.yul\":4212:4325   */\n      iszero\n      tag_210\n      jumpi\n        /* \"#utility.yul\":4302:4313   */\n      dup2\n      dup2\n      add\n        /* \"#utility.yul\":4296:4314   */\n      mload\n        /* \"#utility.yul\":4283:4294   */\n      dup4\n      dup3\n      add\n        /* \"#utility.yul\":4276:4315   */\n      mstore\n        /* \"#utility.yul\":4248:4250   */\n      0x20\n        /* \"#utility.yul\":4241:4251   */\n      add\n        /* \"#utility.yul\":4212:4325   */\n      jump(tag_208)\n    tag_210:\n      pop\n      pop\n        /* \"#utility.yul\":4359:4360   */\n      0x00\n        /* \"#utility.yul\":4341:4357   */\n      swap2\n      add\n        /* \"#utility.yul\":4334:4361   */\n      mstore\n        /* \"#utility.yul\":4117:4367   */\n      jump\t// out\n        /* \"#utility.yul\":4372:4768   */\n    tag_31:\n        /* \"#utility.yul\":4521:4523   */\n      0x20\n        /* \"#utility.yul\":4510:4519   */\n      dup2\n        /* \"#utility.yul\":4503:4524   */\n      mstore\n        /* \"#utility.yul\":4484:4488   */\n      0x00\n        /* \"#utility.yul\":4553:4559   */\n      dup3\n        /* \"#utility.yul\":4547:4560   */\n      mload\n        /* \"#utility.yul\":4596:4602   */\n      dup1\n        /* \"#utility.yul\":4591:4593   */\n      0x20\n        /* \"#utility.yul\":4580:4589   */\n      dup5\n        /* \"#utility.yul\":4576:4594   */\n      add\n        /* \"#utility.yul\":4569:4603   */\n      mstore\n        /* \"#utility.yul\":4612:4691   */\n      tag_212\n        /* \"#utility.yul\":4684:4690   */\n      dup2\n        /* \"#utility.yul\":4679:4681   */\n      0x40\n        /* \"#utility.yul\":4668:4677   */\n      dup6\n        /* \"#utility.yul\":4664:4682   */\n      add\n        /* \"#utility.yul\":4659:4661   */\n      0x20\n        /* \"#utility.yul\":4651:4657   */\n      dup8\n        /* \"#utility.yul\":4647:4662   */\n      add\n        /* \"#utility.yul\":4612:4691   */\n      tag_164\n      jump\t// in\n    tag_212:\n        /* \"#utility.yul\":4752:4754   */\n      0x1f\n        /* \"#utility.yul\":4731:4746   */\n      add\n      not(0x1f)\n        /* \"#utility.yul\":4727:4756   */\n      and\n        /* \"#utility.yul\":4712:4757   */\n      swap2\n      swap1\n      swap2\n      add\n        /* \"#utility.yul\":4759:4761   */\n      0x40\n        /* \"#utility.yul\":4708:4762   */\n      add\n      swap3\n        /* \"#utility.yul\":4372:4768   */\n      swap2\n      pop\n      pop\n      jump\t// out\n        /* \"#utility.yul\":4773:4900   */\n    tag_165:\n        /* \"#utility.yul\":4834:4844   */\n      0x4e487b71\n        /* \"#utility.yul\":4829:4832   */\n      0xe0\n        /* \"#utility.yul\":4825:4845   */\n      shl\n        /* \"#utility.yul\":4822:4823   */\n      0x00\n        /* \"#utility.yul\":4815:4846   */\n      mstore\n        /* \"#utility.yul\":4865:4869   */\n      0x11\n        /* \"#utility.yul\":4862:4863   */\n      0x04\n        /* \"#utility.yul\":4855:4870   */\n      mstore\n        /* \"#utility.yul\":4889:4893   */\n      0x24\n        /* \"#utility.yul\":4886:4887   */\n      0x00\n        /* \"#utility.yul\":4879:4894   */\n      revert\n        /* \"#utility.yul\":4905:5030   */\n    tag_38:\n        /* \"#utility.yul\":4970:4979   */\n      dup1\n      dup3\n      add\n        /* \"#utility.yul\":4991:5001   */\n      dup1\n      dup3\n      gt\n        /* \"#utility.yul\":4988:5024   */\n      iszero\n      tag_36\n      jumpi\n        /* \"#utility.yul\":5004:5022   */\n      tag_36\n      tag_165\n      jump\t// in\n        /* \"#utility.yul\":5035:5162   */\n    tag_48:\n        /* \"#utility.yul\":5096:5106   */\n      0x4e487b71\n        /* \"#utility.yul\":5091:5094   */\n      0xe0\n        /* \"#utility.yul\":5087:5107   */\n      shl\n        /* \"#utility.yul\":5084:5085   */\n      0x00\n        /* \"#utility.yul\":5077:5108   */\n      mstore\n        /* \"#utility.yul\":5127:5131   */\n      0x32\n        /* \"#utility.yul\":5124:5125   */\n      0x04\n        /* \"#utility.yul\":5117:5132   */\n      mstore\n        /* \"#utility.yul\":5151:5155   */\n      0x24\n        /* \"#utility.yul\":5148:5149   */\n      0x00\n        /* \"#utility.yul\":5141:5156   */\n      revert\n        /* \"#utility.yul\":5167:5302   */\n    tag_57:\n        /* \"#utility.yul\":5206:5209   */\n      0x00\n        /* \"#utility.yul\":5227:5244   */\n      0x01\n      dup3\n      add\n        /* \"#utility.yul\":5224:5267   */\n      tag_220\n      jumpi\n        /* \"#utility.yul\":5247:5265   */\n      tag_220\n      tag_165\n      jump\t// in\n    tag_220:\n      pop\n        /* \"#utility.yul\":5294:5295   */\n      0x01\n        /* \"#utility.yul\":5283:5296   */\n      add\n      swap1\n        /* \"#utility.yul\":5167:5302   */\n      jump\t// out\n        /* \"#utility.yul\":5307:5435   */\n    tag_85:\n        /* \"#utility.yul\":5374:5383   */\n      dup2\n      dup2\n      sub\n        /* \"#utility.yul\":5395:5406   */\n      dup2\n      dup2\n      gt\n        /* \"#utility.yul\":5392:5429   */\n      iszero\n      tag_36\n      jumpi\n        /* \"#utility.yul\":5409:5427   */\n      tag_36\n      tag_165\n      jump\t// in\n        /* \"#utility.yul\":5440:5576   */\n    tag_94:\n        /* \"#utility.yul\":5479:5482   */\n      0x00\n        /* \"#utility.yul\":5507:5512   */\n      dup2\n        /* \"#utility.yul\":5497:5536   */\n      tag_226\n      jumpi\n        /* \"#utility.yul\":5516:5534   */\n      tag_226\n      tag_165\n      jump\t// in\n    tag_226:\n      pop\n      not(0x00)\n        /* \"#utility.yul\":5552:5570   */\n      add\n      swap1\n        /* \"#utility.yul\":5440:5576   */\n      jump\t// out\n        /* \"#utility.yul\":5581:5708   */\n    tag_166:\n        /* \"#utility.yul\":5642:5652   */\n      0x4e487b71\n        /* \"#utility.yul\":5637:5640   */\n      0xe0\n        /* \"#utility.yul\":5633:5653   */\n      shl\n        /* \"#utility.yul\":5630:5631   */\n      0x00\n        /* \"#utility.yul\":5623:5654   */\n      mstore\n        /* \"#utility.yul\":5673:5677   */\n      0x12\n        /* \"#utility.yul\":5670:5671   */\n      0x04\n        /* \"#utility.yul\":5663:5678   */\n      mstore\n        /* \"#utility.yul\":5697:5701   */\n      0x24\n        /* \"#utility.yul\":5694:5695   */\n      0x00\n        /* \"#utility.yul\":5687:5702   */\n      revert\n        /* \"#utility.yul\":5713:5833   */\n    tag_108:\n        /* \"#utility.yul\":5753:5754   */\n      0x00\n        /* \"#utility.yul\":5779:5780   */\n      dup3\n        /* \"#utility.yul\":5769:5804   */\n      tag_230\n      jumpi\n        /* \"#utility.yul\":5784:5802   */\n      tag_230\n      tag_166\n      jump\t// in\n    tag_230:\n      pop\n        /* \"#utility.yul\":5818:5827   */\n      div\n      swap1\n        /* \"#utility.yul\":5713:5833   */\n      jump\t// out\n        /* \"#utility.yul\":5838:5950   */\n    tag_125:\n        /* \"#utility.yul\":5870:5871   */\n      0x00\n        /* \"#utility.yul\":5896:5897   */\n      dup3\n        /* \"#utility.yul\":5886:5921   */\n      tag_233\n      jumpi\n        /* \"#utility.yul\":5901:5919   */\n      tag_233\n      tag_166\n      jump\t// in\n    tag_233:\n      pop\n        /* \"#utility.yul\":5935:5944   */\n      mod\n      swap1\n        /* \"#utility.yul\":5838:5950   */\n      jump\t// out\n        /* \"#utility.yul\":5955:6865   */\n    tag_136:\n        /* \"#utility.yul\":6230:6233   */\n      0x00\n        /* \"#utility.yul\":6268:6274   */\n      dup6\n        /* \"#utility.yul\":6262:6275   */\n      mload\n        /* \"#utility.yul\":6284:6350   */\n      tag_235\n        /* \"#utility.yul\":6343:6349   */\n      dup2\n        /* \"#utility.yul\":6338:6341   */\n      dup5\n        /* \"#utility.yul\":6331:6335   */\n      0x20\n        /* \"#utility.yul\":6323:6329   */\n      dup11\n        /* \"#utility.yul\":6319:6336   */\n      add\n        /* \"#utility.yul\":6284:6350   */\n      tag_164\n      jump\t// in\n    tag_235:\n        /* \"#utility.yul\":6413:6426   */\n      dup6\n      mload\n        /* \"#utility.yul\":6372:6388   */\n      swap1\n      dup4\n      add\n      swap1\n        /* \"#utility.yul\":6435:6505   */\n      tag_236\n        /* \"#utility.yul\":6413:6426   */\n      dup2\n        /* \"#utility.yul\":6372:6388   */\n      dup4\n        /* \"#utility.yul\":6482:6486   */\n      0x20\n        /* \"#utility.yul\":6470:6487   */\n      dup11\n      add\n        /* \"#utility.yul\":6435:6505   */\n      tag_164\n      jump\t// in\n    tag_236:\n        /* \"#utility.yul\":6572:6585   */\n      dup6\n      mload\n        /* \"#utility.yul\":6527:6547   */\n      swap2\n      add\n      swap1\n        /* \"#utility.yul\":6594:6664   */\n      tag_237\n        /* \"#utility.yul\":6572:6585   */\n      dup2\n        /* \"#utility.yul\":6527:6547   */\n      dup4\n        /* \"#utility.yul\":6641:6645   */\n      0x20\n        /* \"#utility.yul\":6629:6646   */\n      dup10\n      add\n        /* \"#utility.yul\":6594:6664   */\n      tag_164\n      jump\t// in\n    tag_237:\n        /* \"#utility.yul\":6731:6744   */\n      dup5\n      mload\n        /* \"#utility.yul\":6686:6706   */\n      swap2\n      add\n      swap1\n        /* \"#utility.yul\":6753:6823   */\n      tag_238\n        /* \"#utility.yul\":6731:6744   */\n      dup2\n        /* \"#utility.yul\":6686:6706   */\n      dup4\n        /* \"#utility.yul\":6800:6804   */\n      0x20\n        /* \"#utility.yul\":6788:6805   */\n      dup9\n      add\n        /* \"#utility.yul\":6753:6823   */\n      tag_164\n      jump\t// in\n    tag_238:\n        /* \"#utility.yul\":6839:6859   */\n      add\n      swap7\n        /* \"#utility.yul\":5955:6865   */\n      swap6\n      pop\n      pop\n      pop\n      pop\n      pop\n      pop\n      jump\t// out\n\n    auxdata: 0xa2646970667358221220ce3b5744e87db9676f8be8f1ed09b9b8f8826b77b452f9eed2e29e60285ae8e264736f6c63430008150033\n}\n",
				"bytecode": {
					"linkReferences": {},
					"object": "608060405234801561000f575f80fd5b50610f568061001d5f395ff3fe608060405234801561000f575f80fd5b5060043610610055575f3560e01c8063088b9bf61461005957806374c3ff2e14610082578063b12601da146100a3578063cbe541d1146100b6578063cc0a914e146100d6575b5f80fd5b61006c610067366004610c36565b6100e9565b6040516100799190610c96565b60405180910390f35b610095610090366004610cd9565b6102fe565b604051908152602001610079565b6100956100b1366004610d68565b6103ba565b6100c96100c4366004610daa565b61046f565b6040516100799190610de3565b6100c96100e4366004610cd9565b610985565b81518151606091905f6100fc8284610e29565b67ffffffffffffffff81111561011457610114610b74565b60405190808252806020026020018201604052801561013d578160200160208202803683370190505b5090505f805f5b858310801561015257508482105b156102315787828151811061016957610169610e3c565b602002602001015189848151811061018357610183610e3c565b602002602001015110156101da578883815181106101a3576101a3610e3c565b60200260200101518482815181106101bd576101bd610e3c565b6020908102919091010152826101d281610e50565b93505061021f565b8782815181106101ec576101ec610e3c565b602002602001015184828151811061020657610206610e3c565b60209081029190910101528161021b81610e50565b9250505b8061022981610e50565b915050610144565b858310156102905788838151811061024b5761024b610e3c565b602002602001015184828151811061026557610265610e3c565b60209081029190910101528261027a81610e50565b935050808061028890610e50565b915050610231565b848210156102ef578782815181106102aa576102aa610e3c565b60200260200101518482815181106102c4576102c4610e3c565b6020908102919091010152816102d981610e50565b92505080806102e790610e50565b915050610290565b50919450505050505b92915050565b80515f90829080830361031457505f9392505050565b61034782610323600184610e68565b8151811061033357610333610e3c565b01602001516001600160f81b031916610a62565b9250825f610356600184610e68565b90505b80156103b1578061036981610e7b565b9150505f61038285838151811061033357610333610e3c565b90508281101561039d576103968187610e68565b95506103aa565b6103a78187610e29565b95505b9150610359565b50505050919050565b81515f9081908082036103d2575f19925050506102f8565b80821015610464575f60026103e78484610e68565b6103f19190610ea4565b6103fb9084610e29565b905085818151811061040f5761040f610e3c565b602002602001015185036104275792506102f8915050565b85818151811061043957610439610e3c565b602002602001015185111561045a57610453816001610e29565b925061045e565b8091505b506103d2565b505f19949350505050565b60605f60405180610140016040528060405180602001604052805f8152508152602001604051806040016040528060018152602001604960f81b815250815260200160405180604001604052806002815260200161494960f01b81525081526020016040518060400160405280600381526020016249494960e81b81525081526020016040518060400160405280600281526020016124ab60f11b8152508152602001604051806040016040528060018152602001602b60f91b815250815260200160405180604001604052806002815260200161564960f01b81525081526020016040518060400160405280600381526020016256494960e81b8152508152602001604051806040016040528060048152602001635649494960e01b815250815260200160405180604001604052806002815260200161092b60f31b81525081525090505f60405180610140016040528060405180602001604052805f8152508152602001604051806040016040528060018152602001600b60fb1b8152508152602001604051806040016040528060028152602001610b0b60f31b8152508152602001604051806040016040528060038152602001620b0b0b60eb1b815250815260200160405180604001604052806002815260200161161360f21b8152508152602001604051806040016040528060018152602001601360fa1b815250815260200160405180604001604052806002815260200161098b60f31b815250815260200160405180604001604052806003815260200162098b0b60eb1b815250815260200160405180604001604052806004815260200163098b0b0b60e31b815250815260200160405180604001604052806002815260200161584360f01b81525081525090505f60405180610140016040528060405180602001604052805f8152508152602001604051806040016040528060018152602001604360f81b815250815260200160405180604001604052806002815260200161434360f01b81525081526020016040518060400160405280600381526020016243434360e81b81525081526020016040518060400160405280600281526020016110d160f21b8152508152602001604051806040016040528060018152602001601160fa1b815250815260200160405180604001604052806002815260200161444360f01b81525081526020016040518060400160405280600381526020016244434360e81b8152508152602001604051806040016040528060048152602001634443434360e01b815250815260200160405180604001604052806002815260200161434d60f01b81525081525090505f604051806080016040528060405180602001604052805f8152508152602001604051806040016040528060018152602001604d60f81b8152508152602001604051806040016040528060028152602001614d4d60f01b8152508152602001604051806040016040528060038152602001624d4d4d60e81b8152508152509050806103e8876108c99190610ea4565b600481106108d9576108d9610e3c565b602002015182600a6108ec60648a610ea4565b6108f69190610eb7565b600a811061090657610906610e3c565b602002015184600a610918818b610ea4565b6109229190610eb7565b600a811061093257610932610e3c565b602002015186610943600a8b610eb7565b600a811061095357610953610e3c565b602002015160405160200161096b9493929190610eca565b604051602081830303815290604052945050505050919050565b805160609082906001811161099c57509192915050565b5f8167ffffffffffffffff8111156109b6576109b6610b74565b6040519080825280601f01601f1916602001820160405280156109e0576020820181803683370190505b5090505f5b82811015610a595783816109fa600186610e68565b610a049190610e68565b81518110610a1457610a14610e3c565b602001015160f81c60f81b828281518110610a3157610a31610e3c565b60200101906001600160f81b03191690815f1a90535080610a5181610e50565b9150506109e5565b50949350505050565b5f6001600160f81b03198216604960f81b03610a8057506001919050565b6001600160f81b03198216602b60f91b03610a9d57506005919050565b6001600160f81b03198216600b60fb1b03610aba5750600a919050565b6001600160f81b03198216601360fa1b03610ad757506032919050565b6001600160f81b03198216604360f81b03610af457506064919050565b6001600160f81b03198216601160fa1b03610b1257506101f4919050565b6001600160f81b03198216604d60f81b03610b3057506103e8919050565b60405162461bcd60e51b8152602060048201526015602482015274125b9d985b1a5908149bdb585b881b9d5b595c985b605a1b604482015260640160405180910390fd5b634e487b7160e01b5f52604160045260245ffd5b604051601f8201601f1916810167ffffffffffffffff81118282101715610bb157610bb1610b74565b604052919050565b5f82601f830112610bc8575f80fd5b8135602067ffffffffffffffff821115610be457610be4610b74565b8160051b610bf3828201610b88565b9283528481018201928281019087851115610c0c575f80fd5b83870192505b84831015610c2b57823582529183019190830190610c12565b979650505050505050565b5f8060408385031215610c47575f80fd5b823567ffffffffffffffff80821115610c5e575f80fd5b610c6a86838701610bb9565b93506020850135915080821115610c7f575f80fd5b50610c8c85828601610bb9565b9150509250929050565b602080825282518282018190525f9190848201906040850190845b81811015610ccd57835183529284019291840191600101610cb1565b50909695505050505050565b5f6020808385031215610cea575f80fd5b823567ffffffffffffffff80821115610d01575f80fd5b818501915085601f830112610d14575f80fd5b813581811115610d2657610d26610b74565b610d38601f8201601f19168501610b88565b91508082528684828501011115610d4d575f80fd5b80848401858401375f90820190930192909252509392505050565b5f8060408385031215610d79575f80fd5b823567ffffffffffffffff811115610d8f575f80fd5b610d9b85828601610bb9565b95602094909401359450505050565b5f60208284031215610dba575f80fd5b5035919050565b5f5b83811015610ddb578181015183820152602001610dc3565b50505f910152565b602081525f8251806020840152610e01816040850160208701610dc1565b601f01601f19169190910160400192915050565b634e487b7160e01b5f52601160045260245ffd5b808201808211156102f8576102f8610e15565b634e487b7160e01b5f52603260045260245ffd5b5f60018201610e6157610e61610e15565b5060010190565b818103818111156102f8576102f8610e15565b5f81610e8957610e89610e15565b505f190190565b634e487b7160e01b5f52601260045260245ffd5b5f82610eb257610eb2610e90565b500490565b5f82610ec557610ec5610e90565b500690565b5f8551610edb818460208a01610dc1565b855190830190610eef818360208a01610dc1565b8551910190610f02818360208901610dc1565b8451910190610f15818360208801610dc1565b01969550505050505056fea2646970667358221220ce3b5744e87db9676f8be8f1ed09b9b8f8826b77b452f9eed2e29e60285ae8e264736f6c63430008150033",
					"opcodes": "PUSH1 0x80 PUSH1 0x40 MSTORE CALLVALUE DUP1 ISZERO PUSH2 0xF JUMPI PUSH0 DUP1 REVERT JUMPDEST POP PUSH2 0xF56 DUP1 PUSH2 0x1D PUSH0 CODECOPY PUSH0 RETURN INVALID PUSH1 0x80 PUSH1 0x40 MSTORE CALLVALUE DUP1 ISZERO PUSH2 0xF JUMPI PUSH0 DUP1 REVERT JUMPDEST POP PUSH1 0x4 CALLDATASIZE LT PUSH2 0x55 JUMPI PUSH0 CALLDATALOAD PUSH1 0xE0 SHR DUP1 PUSH4 0x88B9BF6 EQ PUSH2 0x59 JUMPI DUP1 PUSH4 0x74C3FF2E EQ PUSH2 0x82 JUMPI DUP1 PUSH4 0xB12601DA EQ PUSH2 0xA3 JUMPI DUP1 PUSH4 0xCBE541D1 EQ PUSH2 0xB6 JUMPI DUP1 PUSH4 0xCC0A914E EQ PUSH2 0xD6 JUMPI JUMPDEST PUSH0 DUP1 REVERT JUMPDEST PUSH2 0x6C PUSH2 0x67 CALLDATASIZE PUSH1 0x4 PUSH2 0xC36 JUMP JUMPDEST PUSH2 0xE9 JUMP JUMPDEST PUSH1 0x40 MLOAD PUSH2 0x79 SWAP2 SWAP1 PUSH2 0xC96 JUMP JUMPDEST PUSH1 0x40 MLOAD DUP1 SWAP2 SUB SWAP1 RETURN JUMPDEST PUSH2 0x95 PUSH2 0x90 CALLDATASIZE PUSH1 0x4 PUSH2 0xCD9 JUMP JUMPDEST PUSH2 0x2FE JUMP JUMPDEST PUSH1 0x40 MLOAD SWAP1 DUP2 MSTORE PUSH1 0x20 ADD PUSH2 0x79 JUMP JUMPDEST PUSH2 0x95 PUSH2 0xB1 CALLDATASIZE PUSH1 0x4 PUSH2 0xD68 JUMP JUMPDEST PUSH2 0x3BA JUMP JUMPDEST PUSH2 0xC9 PUSH2 0xC4 CALLDATASIZE PUSH1 0x4 PUSH2 0xDAA JUMP JUMPDEST PUSH2 0x46F JUMP JUMPDEST PUSH1 0x40 MLOAD PUSH2 0x79 SWAP2 SWAP1 PUSH2 0xDE3 JUMP JUMPDEST PUSH2 0xC9 PUSH2 0xE4 CALLDATASIZE PUSH1 0x4 PUSH2 0xCD9 JUMP JUMPDEST PUSH2 0x985 JUMP JUMPDEST DUP2 MLOAD DUP2 MLOAD PUSH1 0x60 SWAP2 SWAP1 PUSH0 PUSH2 0xFC DUP3 DUP5 PUSH2 0xE29 JUMP JUMPDEST PUSH8 0xFFFFFFFFFFFFFFFF DUP2 GT ISZERO PUSH2 0x114 JUMPI PUSH2 0x114 PUSH2 0xB74 JUMP JUMPDEST PUSH1 0x40 MLOAD SWAP1 DUP1 DUP3 MSTORE DUP1 PUSH1 0x20 MUL PUSH1 0x20 ADD DUP3 ADD PUSH1 0x40 MSTORE DUP1 ISZERO PUSH2 0x13D JUMPI DUP2 PUSH1 0x20 ADD PUSH1 0x20 DUP3 MUL DUP1 CALLDATASIZE DUP4 CALLDATACOPY ADD SWAP1 POP JUMPDEST POP SWAP1 POP PUSH0 DUP1 PUSH0 JUMPDEST DUP6 DUP4 LT DUP1 ISZERO PUSH2 0x152 JUMPI POP DUP5 DUP3 LT JUMPDEST ISZERO PUSH2 0x231 JUMPI DUP8 DUP3 DUP2 MLOAD DUP2 LT PUSH2 0x169 JUMPI PUSH2 0x169 PUSH2 0xE3C JUMP JUMPDEST PUSH1 0x20 MUL PUSH1 0x20 ADD ADD MLOAD DUP10 DUP5 DUP2 MLOAD DUP2 LT PUSH2 0x183 JUMPI PUSH2 0x183 PUSH2 0xE3C JUMP JUMPDEST PUSH1 0x20 MUL PUSH1 0x20 ADD ADD MLOAD LT ISZERO PUSH2 0x1DA JUMPI DUP9 DUP4 DUP2 MLOAD DUP2 LT PUSH2 0x1A3 JUMPI PUSH2 0x1A3 PUSH2 0xE3C JUMP JUMPDEST PUSH1 0x20 MUL PUSH1 0x20 ADD ADD MLOAD DUP5 DUP3 DUP2 MLOAD DUP2 LT PUSH2 0x1BD JUMPI PUSH2 0x1BD PUSH2 0xE3C JUMP JUMPDEST PUSH1 0x20 SWAP1 DUP2 MUL SWAP2 SWAP1 SWAP2 ADD ADD MSTORE DUP3 PUSH2 0x1D2 DUP2 PUSH2 0xE50 JUMP JUMPDEST SWAP4 POP POP PUSH2 0x21F JUMP JUMPDEST DUP8 DUP3 DUP2 MLOAD DUP2 LT PUSH2 0x1EC JUMPI PUSH2 0x1EC PUSH2 0xE3C JUMP JUMPDEST PUSH1 0x20 MUL PUSH1 0x20 ADD ADD MLOAD DUP5 DUP3 DUP2 MLOAD DUP2 LT PUSH2 0x206 JUMPI PUSH2 0x206 PUSH2 0xE3C JUMP JUMPDEST PUSH1 0x20 SWAP1 DUP2 MUL SWAP2 SWAP1 SWAP2 ADD ADD MSTORE DUP2 PUSH2 0x21B DUP2 PUSH2 0xE50 JUMP JUMPDEST SWAP3 POP POP JUMPDEST DUP1 PUSH2 0x229 DUP2 PUSH2 0xE50 JUMP JUMPDEST SWAP2 POP POP PUSH2 0x144 JUMP JUMPDEST DUP6 DUP4 LT ISZERO PUSH2 0x290 JUMPI DUP9 DUP4 DUP2 MLOAD DUP2 LT PUSH2 0x24B JUMPI PUSH2 0x24B PUSH2 0xE3C JUMP JUMPDEST PUSH1 0x20 MUL PUSH1 0x20 ADD ADD MLOAD DUP5 DUP3 DUP2 MLOAD DUP2 LT PUSH2 0x265 JUMPI PUSH2 0x265 PUSH2 0xE3C JUMP JUMPDEST PUSH1 0x20 SWAP1 DUP2 MUL SWAP2 SWAP1 SWAP2 ADD ADD MSTORE DUP3 PUSH2 0x27A DUP2 PUSH2 0xE50 JUMP JUMPDEST SWAP4 POP POP DUP1 DUP1 PUSH2 0x288 SWAP1 PUSH2 0xE50 JUMP JUMPDEST SWAP2 POP POP PUSH2 0x231 JUMP JUMPDEST DUP5 DUP3 LT ISZERO PUSH2 0x2EF JUMPI DUP8 DUP3 DUP2 MLOAD DUP2 LT PUSH2 0x2AA JUMPI PUSH2 0x2AA PUSH2 0xE3C JUMP JUMPDEST PUSH1 0x20 MUL PUSH1 0x20 ADD ADD MLOAD DUP5 DUP3 DUP2 MLOAD DUP2 LT PUSH2 0x2C4 JUMPI PUSH2 0x2C4 PUSH2 0xE3C JUMP JUMPDEST PUSH1 0x20 SWAP1 DUP2 MUL SWAP2 SWAP1 SWAP2 ADD ADD MSTORE DUP2 PUSH2 0x2D9 DUP2 PUSH2 0xE50 JUMP JUMPDEST SWAP3 POP POP DUP1 DUP1 PUSH2 0x2E7 SWAP1 PUSH2 0xE50 JUMP JUMPDEST SWAP2 POP POP PUSH2 0x290 JUMP JUMPDEST POP SWAP2 SWAP5 POP POP POP POP POP JUMPDEST SWAP3 SWAP2 POP POP JUMP JUMPDEST DUP1 MLOAD PUSH0 SWAP1 DUP3 SWAP1 DUP1 DUP4 SUB PUSH2 0x314 JUMPI POP PUSH0 SWAP4 SWAP3 POP POP POP JUMP JUMPDEST PUSH2 0x347 DUP3 PUSH2 0x323 PUSH1 0x1 DUP5 PUSH2 0xE68 JUMP JUMPDEST DUP2 MLOAD DUP2 LT PUSH2 0x333 JUMPI PUSH2 0x333 PUSH2 0xE3C JUMP JUMPDEST ADD PUSH1 0x20 ADD MLOAD PUSH1 0x1 PUSH1 0x1 PUSH1 0xF8 SHL SUB NOT AND PUSH2 0xA62 JUMP JUMPDEST SWAP3 POP DUP3 PUSH0 PUSH2 0x356 PUSH1 0x1 DUP5 PUSH2 0xE68 JUMP JUMPDEST SWAP1 POP JUMPDEST DUP1 ISZERO PUSH2 0x3B1 JUMPI DUP1 PUSH2 0x369 DUP2 PUSH2 0xE7B JUMP JUMPDEST SWAP2 POP POP PUSH0 PUSH2 0x382 DUP6 DUP4 DUP2 MLOAD DUP2 LT PUSH2 0x333 JUMPI PUSH2 0x333 PUSH2 0xE3C JUMP JUMPDEST SWAP1 POP DUP3 DUP2 LT ISZERO PUSH2 0x39D JUMPI PUSH2 0x396 DUP2 DUP8 PUSH2 0xE68 JUMP JUMPDEST SWAP6 POP PUSH2 0x3AA JUMP JUMPDEST PUSH2 0x3A7 DUP2 DUP8 PUSH2 0xE29 JUMP JUMPDEST SWAP6 POP JUMPDEST SWAP2 POP PUSH2 0x359 JUMP JUMPDEST POP POP POP POP SWAP2 SWAP1 POP JUMP JUMPDEST DUP2 MLOAD PUSH0 SWAP1 DUP2 SWAP1 DUP1 DUP3 SUB PUSH2 0x3D2 JUMPI PUSH0 NOT SWAP3 POP POP POP PUSH2 0x2F8 JUMP JUMPDEST DUP1 DUP3 LT ISZERO PUSH2 0x464 JUMPI PUSH0 PUSH1 0x2 PUSH2 0x3E7 DUP5 DUP5 PUSH2 0xE68 JUMP JUMPDEST PUSH2 0x3F1 SWAP2 SWAP1 PUSH2 0xEA4 JUMP JUMPDEST PUSH2 0x3FB SWAP1 DUP5 PUSH2 0xE29 JUMP JUMPDEST SWAP1 POP DUP6 DUP2 DUP2 MLOAD DUP2 LT PUSH2 0x40F JUMPI PUSH2 0x40F PUSH2 0xE3C JUMP JUMPDEST PUSH1 0x20 MUL PUSH1 0x20 ADD ADD MLOAD DUP6 SUB PUSH2 0x427 JUMPI SWAP3 POP PUSH2 0x2F8 SWAP2 POP POP JUMP JUMPDEST DUP6 DUP2 DUP2 MLOAD DUP2 LT PUSH2 0x439 JUMPI PUSH2 0x439 PUSH2 0xE3C JUMP JUMPDEST PUSH1 0x20 MUL PUSH1 0x20 ADD ADD MLOAD DUP6 GT ISZERO PUSH2 0x45A JUMPI PUSH2 0x453 DUP2 PUSH1 0x1 PUSH2 0xE29 JUMP JUMPDEST SWAP3 POP PUSH2 0x45E JUMP JUMPDEST DUP1 SWAP2 POP JUMPDEST POP PUSH2 0x3D2 JUMP JUMPDEST POP PUSH0 NOT SWAP5 SWAP4 POP POP POP POP JUMP JUMPDEST PUSH1 0x60 PUSH0 PUSH1 0x40 MLOAD DUP1 PUSH2 0x140 ADD PUSH1 0x40 MSTORE DUP1 PUSH1 0x40 MLOAD DUP1 PUSH1 0x20 ADD PUSH1 0x40 MSTORE DUP1 PUSH0 DUP2 MSTORE POP DUP2 MSTORE PUSH1 0x20 ADD PUSH1 0x40 MLOAD DUP1 PUSH1 0x40 ADD PUSH1 0x40 MSTORE DUP1 PUSH1 0x1 DUP2 MSTORE PUSH1 0x20 ADD PUSH1 0x49 PUSH1 0xF8 SHL DUP2 MSTORE POP DUP2 MSTORE PUSH1 0x20 ADD PUSH1 0x40 MLOAD DUP1 PUSH1 0x40 ADD PUSH1 0x40 MSTORE DUP1 PUSH1 0x2 DUP2 MSTORE PUSH1 0x20 ADD PUSH2 0x4949 PUSH1 0xF0 SHL DUP2 MSTORE POP DUP2 MSTORE PUSH1 0x20 ADD PUSH1 0x40 MLOAD DUP1 PUSH1 0x40 ADD PUSH1 0x40 MSTORE DUP1 PUSH1 0x3 DUP2 MSTORE PUSH1 0x20 ADD PUSH3 0x494949 PUSH1 0xE8 SHL DUP2 MSTORE POP DUP2 MSTORE PUSH1 0x20 ADD PUSH1 0x40 MLOAD DUP1 PUSH1 0x40 ADD PUSH1 0x40 MSTORE DUP1 PUSH1 0x2 DUP2 MSTORE PUSH1 0x20 ADD PUSH2 0x24AB PUSH1 0xF1 SHL DUP2 MSTORE POP DUP2 MSTORE PUSH1 0x20 ADD PUSH1 0x40 MLOAD DUP1 PUSH1 0x40 ADD PUSH1 0x40 MSTORE DUP1 PUSH1 0x1 DUP2 MSTORE PUSH1 0x20 ADD PUSH1 0x2B PUSH1 0xF9 SHL DUP2 MSTORE POP DUP2 MSTORE PUSH1 0x20 ADD PUSH1 0x40 MLOAD DUP1 PUSH1 0x40 ADD PUSH1 0x40 MSTORE DUP1 PUSH1 0x2 DUP2 MSTORE PUSH1 0x20 ADD PUSH2 0x5649 PUSH1 0xF0 SHL DUP2 MSTORE POP DUP2 MSTORE PUSH1 0x20 ADD PUSH1 0x40 MLOAD DUP1 PUSH1 0x40 ADD PUSH1 0x40 MSTORE DUP1 PUSH1 0x3 DUP2 MSTORE PUSH1 0x20 ADD PUSH3 0x564949 PUSH1 0xE8 SHL DUP2 MSTORE POP DUP2 MSTORE PUSH1 0x20 ADD PUSH1 0x40 MLOAD DUP1 PUSH1 0x40 ADD PUSH1 0x40 MSTORE DUP1 PUSH1 0x4 DUP2 MSTORE PUSH1 0x20 ADD PUSH4 0x56494949 PUSH1 0xE0 SHL DUP2 MSTORE POP DUP2 MSTORE PUSH1 0x20 ADD PUSH1 0x40 MLOAD DUP1 PUSH1 0x40 ADD PUSH1 0x40 MSTORE DUP1 PUSH1 0x2 DUP2 MSTORE PUSH1 0x20 ADD PUSH2 0x92B PUSH1 0xF3 SHL DUP2 MSTORE POP DUP2 MSTORE POP SWAP1 POP PUSH0 PUSH1 0x40 MLOAD DUP1 PUSH2 0x140 ADD PUSH1 0x40 MSTORE DUP1 PUSH1 0x40 MLOAD DUP1 PUSH1 0x20 ADD PUSH1 0x40 MSTORE DUP1 PUSH0 DUP2 MSTORE POP DUP2 MSTORE PUSH1 0x20 ADD PUSH1 0x40 MLOAD DUP1 PUSH1 0x40 ADD PUSH1 0x40 MSTORE DUP1 PUSH1 0x1 DUP2 MSTORE PUSH1 0x20 ADD PUSH1 0xB PUSH1 0xFB SHL DUP2 MSTORE POP DUP2 MSTORE PUSH1 0x20 ADD PUSH1 0x40 MLOAD DUP1 PUSH1 0x40 ADD PUSH1 0x40 MSTORE DUP1 PUSH1 0x2 DUP2 MSTORE PUSH1 0x20 ADD PUSH2 0xB0B PUSH1 0xF3 SHL DUP2 MSTORE POP DUP2 MSTORE PUSH1 0x20 ADD PUSH1 0x40 MLOAD DUP1 PUSH1 0x40 ADD PUSH1 0x40 MSTORE DUP1 PUSH1 0x3 DUP2 MSTORE PUSH1 0x20 ADD PUSH3 0xB0B0B PUSH1 0xEB SHL DUP2 MSTORE POP DUP2 MSTORE PUSH1 0x20 ADD PUSH1 0x40 MLOAD DUP1 PUSH1 0x40 ADD PUSH1 0x40 MSTORE DUP1 PUSH1 0x2 DUP2 MSTORE PUSH1 0x20 ADD PUSH2 0x1613 PUSH1 0xF2 SHL DUP2 MSTORE POP DUP2 MSTORE PUSH1 0x20 ADD PUSH1 0x40 MLOAD DUP1 PUSH1 0x40 ADD PUSH1 0x40 MSTORE DUP1 PUSH1 0x1 DUP2 MSTORE PUSH1 0x20 ADD PUSH1 0x13 PUSH1 0xFA SHL DUP2 MSTORE POP DUP2 MSTORE PUSH1 0x20 ADD PUSH1 0x40 MLOAD DUP1 PUSH1 0x40 ADD PUSH1 0x40 MSTORE DUP1 PUSH1 0x2 DUP2 MSTORE PUSH1 0x20 ADD PUSH2 0x98B PUSH1 0xF3 SHL DUP2 MSTORE POP DUP2 MSTORE PUSH1 0x20 ADD PUSH1 0x40 MLOAD DUP1 PUSH1 0x40 ADD PUSH1 0x40 MSTORE DUP1 PUSH1 0x3 DUP2 MSTORE PUSH1 0x20 ADD PUSH3 0x98B0B PUSH1 0xEB SHL DUP2 MSTORE POP DUP2 MSTORE PUSH1 0x20 ADD PUSH1 0x40 MLOAD DUP1 PUSH1 0x40 ADD PUSH1 0x40 MSTORE DUP1 PUSH1 0x4 DUP2 MSTORE PUSH1 0x20 ADD PUSH4 0x98B0B0B PUSH1 0xE3 SHL DUP2 MSTORE POP DUP2 MSTORE PUSH1 0x20 ADD PUSH1 0x40 MLOAD DUP1 PUSH1 0x40 ADD PUSH1 0x40 MSTORE DUP1 PUSH1 0x2 DUP2 MSTORE PUSH1 0x20 ADD PUSH2 0x5843 PUSH1 0xF0 SHL DUP2 MSTORE POP DUP2 MSTORE POP SWAP1 POP PUSH0 PUSH1 0x40 MLOAD DUP1 PUSH2 0x140 ADD PUSH1 0x40 MSTORE DUP1 PUSH1 0x40 MLOAD DUP1 PUSH1 0x20 ADD PUSH1 0x40 MSTORE DUP1 PUSH0 DUP2 MSTORE POP DUP2 MSTORE PUSH1 0x20 ADD PUSH1 0x40 MLOAD DUP1 PUSH1 0x40 ADD PUSH1 0x40 MSTORE DUP1 PUSH1 0x1 DUP2 MSTORE PUSH1 0x20 ADD PUSH1 0x43 PUSH1 0xF8 SHL DUP2 MSTORE POP DUP2 MSTORE PUSH1 0x20 ADD PUSH1 0x40 MLOAD DUP1 PUSH1 0x40 ADD PUSH1 0x40 MSTORE DUP1 PUSH1 0x2 DUP2 MSTORE PUSH1 0x20 ADD PUSH2 0x4343 PUSH1 0xF0 SHL DUP2 MSTORE POP DUP2 MSTORE PUSH1 0x20 ADD PUSH1 0x40 MLOAD DUP1 PUSH1 0x40 ADD PUSH1 0x40 MSTORE DUP1 PUSH1 0x3 DUP2 MSTORE PUSH1 0x20 ADD PUSH3 0x434343 PUSH1 0xE8 SHL DUP2 MSTORE POP DUP2 MSTORE PUSH1 0x20 ADD PUSH1 0x40 MLOAD DUP1 PUSH1 0x40 ADD PUSH1 0x40 MSTORE DUP1 PUSH1 0x2 DUP2 MSTORE PUSH1 0x20 ADD PUSH2 0x10D1 PUSH1 0xF2 SHL DUP2 MSTORE POP DUP2 MSTORE PUSH1 0x20 ADD PUSH1 0x40 MLOAD DUP1 PUSH1 0x40 ADD PUSH1 0x40 MSTORE DUP1 PUSH1 0x1 DUP2 MSTORE PUSH1 0x20 ADD PUSH1 0x11 PUSH1 0xFA SHL DUP2 MSTORE POP DUP2 MSTORE PUSH1 0x20 ADD PUSH1 0x40 MLOAD DUP1 PUSH1 0x40 ADD PUSH1 0x40 MSTORE DUP1 PUSH1 0x2 DUP2 MSTORE PUSH1 0x20 ADD PUSH2 0x4443 PUSH1 0xF0 SHL DUP2 MSTORE POP DUP2 MSTORE PUSH1 0x20 ADD PUSH1 0x40 MLOAD DUP1 PUSH1 0x40 ADD PUSH1 0x40 MSTORE DUP1 PUSH1 0x3 DUP2 MSTORE PUSH1 0x20 ADD PUSH3 0x444343 PUSH1 0xE8 SHL DUP2 MSTORE POP DUP2 MSTORE PUSH1 0x20 ADD PUSH1 0x40 MLOAD DUP1 PUSH1 0x40 ADD PUSH1 0x40 MSTORE DUP1 PUSH1 0x4 DUP2 MSTORE PUSH1 0x20 ADD PUSH4 0x44434343 PUSH1 0xE0 SHL DUP2 MSTORE POP DUP2 MSTORE PUSH1 0x20 ADD PUSH1 0x40 MLOAD DUP1 PUSH1 0x40 ADD PUSH1 0x40 MSTORE DUP1 PUSH1 0x2 DUP2 MSTORE PUSH1 0x20 ADD PUSH2 0x434D PUSH1 0xF0 SHL DUP2 MSTORE POP DUP2 MSTORE POP SWAP1 POP PUSH0 PUSH1 0x40 MLOAD DUP1 PUSH1 0x80 ADD PUSH1 0x40 MSTORE DUP1 PUSH1 0x40 MLOAD DUP1 PUSH1 0x20 ADD PUSH1 0x40 MSTORE DUP1 PUSH0 DUP2 MSTORE POP DUP2 MSTORE PUSH1 0x20 ADD PUSH1 0x40 MLOAD DUP1 PUSH1 0x40 ADD PUSH1 0x40 MSTORE DUP1 PUSH1 0x1 DUP2 MSTORE PUSH1 0x20 ADD PUSH1 0x4D PUSH1 0xF8 SHL DUP2 MSTORE POP DUP2 MSTORE PUSH1 0x20 ADD PUSH1 0x40 MLOAD DUP1 PUSH1 0x40 ADD PUSH1 0x40 MSTORE DUP1 PUSH1 0x2 DUP2 MSTORE PUSH1 0x20 ADD PUSH2 0x4D4D PUSH1 0xF0 SHL DUP2 MSTORE POP DUP2 MSTORE PUSH1 0x20 ADD PUSH1 0x40 MLOAD DUP1 PUSH1 0x40 ADD PUSH1 0x40 MSTORE DUP1 PUSH1 0x3 DUP2 MSTORE PUSH1 0x20 ADD PUSH3 0x4D4D4D PUSH1 0xE8 SHL DUP2 MSTORE POP DUP2 MSTORE POP SWAP1 POP DUP1 PUSH2 0x3E8 DUP8 PUSH2 0x8C9 SWAP2 SWAP1 PUSH2 0xEA4 JUMP JUMPDEST PUSH1 0x4 DUP2 LT PUSH2 0x8D9 JUMPI PUSH2 0x8D9 PUSH2 0xE3C JUMP JUMPDEST PUSH1 0x20 MUL ADD MLOAD DUP3 PUSH1 0xA PUSH2 0x8EC PUSH1 0x64 DUP11 PUSH2 0xEA4 JUMP JUMPDEST PUSH2 0x8F6 SWAP2 SWAP1 PUSH2 0xEB7 JUMP JUMPDEST PUSH1 0xA DUP2 LT PUSH2 0x906 JUMPI PUSH2 0x906 PUSH2 0xE3C JUMP JUMPDEST PUSH1 0x20 MUL ADD MLOAD DUP5 PUSH1 0xA PUSH2 0x918 DUP2 DUP12 PUSH2 0xEA4 JUMP JUMPDEST PUSH2 0x922 SWAP2 SWAP1 PUSH2 0xEB7 JUMP JUMPDEST PUSH1 0xA DUP2 LT PUSH2 0x932 JUMPI PUSH2 0x932 PUSH2 0xE3C JUMP JUMPDEST PUSH1 0x20 MUL ADD MLOAD DUP7 PUSH2 0x943 PUSH1 0xA DUP12 PUSH2 0xEB7 JUMP JUMPDEST PUSH1 0xA DUP2 LT PUSH2 0x953 JUMPI PUSH2 0x953 PUSH2 0xE3C JUMP JUMPDEST PUSH1 0x20 MUL ADD MLOAD PUSH1 0x40 MLOAD PUSH1 0x20 ADD PUSH2 0x96B SWAP5 SWAP4 SWAP3 SWAP2 SWAP1 PUSH2 0xECA JUMP JUMPDEST PUSH1 0x40 MLOAD PUSH1 0x20 DUP2 DUP4 SUB SUB DUP2 MSTORE SWAP1 PUSH1 0x40 MSTORE SWAP5 POP POP POP POP POP SWAP2 SWAP1 POP JUMP JUMPDEST DUP1 MLOAD PUSH1 0x60 SWAP1 DUP3 SWAP1 PUSH1 0x1 DUP2 GT PUSH2 0x99C JUMPI POP SWAP2 SWAP3 SWAP2 POP POP JUMP JUMPDEST PUSH0 DUP2 PUSH8 0xFFFFFFFFFFFFFFFF DUP2 GT ISZERO PUSH2 0x9B6 JUMPI PUSH2 0x9B6 PUSH2 0xB74 JUMP JUMPDEST PUSH1 0x40 MLOAD SWAP1 DUP1 DUP3 MSTORE DUP1 PUSH1 0x1F ADD PUSH1 0x1F NOT AND PUSH1 0x20 ADD DUP3 ADD PUSH1 0x40 MSTORE DUP1 ISZERO PUSH2 0x9E0 JUMPI PUSH1 0x20 DUP3 ADD DUP2 DUP1 CALLDATASIZE DUP4 CALLDATACOPY ADD SWAP1 POP JUMPDEST POP SWAP1 POP PUSH0 JUMPDEST DUP3 DUP2 LT ISZERO PUSH2 0xA59 JUMPI DUP4 DUP2 PUSH2 0x9FA PUSH1 0x1 DUP7 PUSH2 0xE68 JUMP JUMPDEST PUSH2 0xA04 SWAP2 SWAP1 PUSH2 0xE68 JUMP JUMPDEST DUP2 MLOAD DUP2 LT PUSH2 0xA14 JUMPI PUSH2 0xA14 PUSH2 0xE3C JUMP JUMPDEST PUSH1 0x20 ADD ADD MLOAD PUSH1 0xF8 SHR PUSH1 0xF8 SHL DUP3 DUP3 DUP2 MLOAD DUP2 LT PUSH2 0xA31 JUMPI PUSH2 0xA31 PUSH2 0xE3C JUMP JUMPDEST PUSH1 0x20 ADD ADD SWAP1 PUSH1 0x1 PUSH1 0x1 PUSH1 0xF8 SHL SUB NOT AND SWAP1 DUP2 PUSH0 BYTE SWAP1 MSTORE8 POP DUP1 PUSH2 0xA51 DUP2 PUSH2 0xE50 JUMP JUMPDEST SWAP2 POP POP PUSH2 0x9E5 JUMP JUMPDEST POP SWAP5 SWAP4 POP POP POP POP JUMP JUMPDEST PUSH0 PUSH1 0x1 PUSH1 0x1 PUSH1 0xF8 SHL SUB NOT DUP3 AND PUSH1 0x49 PUSH1 0xF8 SHL SUB PUSH2 0xA80 JUMPI POP PUSH1 0x1 SWAP2 SWAP1 POP JUMP JUMPDEST PUSH1 0x1 PUSH1 0x1 PUSH1 0xF8 SHL SUB NOT DUP3 AND PUSH1 0x2B PUSH1 0xF9 SHL SUB PUSH2 0xA9D JUMPI POP PUSH1 0x5 SWAP2 SWAP1 POP JUMP JUMPDEST PUSH1 0x1 PUSH1 0x1 PUSH1 0xF8 SHL SUB NOT DUP3 AND PUSH1 0xB PUSH1 0xFB SHL SUB PUSH2 0xABA JUMPI POP PUSH1 0xA SWAP2 SWAP1 POP JUMP JUMPDEST PUSH1 0x1 PUSH1 0x1 PUSH1 0xF8 SHL SUB NOT DUP3 AND PUSH1 0x13 PUSH1 0xFA SHL SUB PUSH2 0xAD7 JUMPI POP PUSH1 0x32 SWAP2 SWAP1 POP JUMP JUMPDEST PUSH1 0x1 PUSH1 0x1 PUSH1 0xF8 SHL SUB NOT DUP3 AND PUSH1 0x43 PUSH1 0xF8 SHL SUB PUSH2 0xAF4 JUMPI POP PUSH1 0x64 SWAP2 SWAP1 POP JUMP JUMPDEST PUSH1 0x1 PUSH1 0x1 PUSH1 0xF8 SHL SUB NOT DUP3 AND PUSH1 0x11 PUSH1 0xFA SHL SUB PUSH2 0xB12 JUMPI POP PUSH2 0x1F4 SWAP2 SWAP1 POP JUMP JUMPDEST PUSH1 0x1 PUSH1 0x1 PUSH1 0xF8 SHL SUB NOT DUP3 AND PUSH1 0x4D PUSH1 0xF8 SHL SUB PUSH2 0xB30 JUMPI POP PUSH2 0x3E8 SWAP2 SWAP1 POP JUMP JUMPDEST PUSH1 0x40 MLOAD PUSH3 0x461BCD PUSH1 0xE5 SHL DUP2 MSTORE PUSH1 0x20 PUSH1 0x4 DUP3 ADD MSTORE PUSH1 0x15 PUSH1 0x24 DUP3 ADD MSTORE PUSH21 0x125B9D985B1A5908149BDB585B881B9D5B595C985B PUSH1 0x5A SHL PUSH1 0x44 DUP3 ADD MSTORE PUSH1 0x64 ADD PUSH1 0x40 MLOAD DUP1 SWAP2 SUB SWAP1 REVERT JUMPDEST PUSH4 0x4E487B71 PUSH1 0xE0 SHL PUSH0 MSTORE PUSH1 0x41 PUSH1 0x4 MSTORE PUSH1 0x24 PUSH0 REVERT JUMPDEST PUSH1 0x40 MLOAD PUSH1 0x1F DUP3 ADD PUSH1 0x1F NOT AND DUP2 ADD PUSH8 0xFFFFFFFFFFFFFFFF DUP2 GT DUP3 DUP3 LT OR ISZERO PUSH2 0xBB1 JUMPI PUSH2 0xBB1 PUSH2 0xB74 JUMP JUMPDEST PUSH1 0x40 MSTORE SWAP2 SWAP1 POP JUMP JUMPDEST PUSH0 DUP3 PUSH1 0x1F DUP4 ADD SLT PUSH2 0xBC8 JUMPI PUSH0 DUP1 REVERT JUMPDEST DUP2 CALLDATALOAD PUSH1 0x20 PUSH8 0xFFFFFFFFFFFFFFFF DUP3 GT ISZERO PUSH2 0xBE4 JUMPI PUSH2 0xBE4 PUSH2 0xB74 JUMP JUMPDEST DUP2 PUSH1 0x5 SHL PUSH2 0xBF3 DUP3 DUP3 ADD PUSH2 0xB88 JUMP JUMPDEST SWAP3 DUP4 MSTORE DUP5 DUP2 ADD DUP3 ADD SWAP3 DUP3 DUP2 ADD SWAP1 DUP8 DUP6 GT ISZERO PUSH2 0xC0C JUMPI PUSH0 DUP1 REVERT JUMPDEST DUP4 DUP8 ADD SWAP3 POP JUMPDEST DUP5 DUP4 LT ISZERO PUSH2 0xC2B JUMPI DUP3 CALLDATALOAD DUP3 MSTORE SWAP2 DUP4 ADD SWAP2 SWAP1 DUP4 ADD SWAP1 PUSH2 0xC12 JUMP JUMPDEST SWAP8 SWAP7 POP POP POP POP POP POP POP JUMP JUMPDEST PUSH0 DUP1 PUSH1 0x40 DUP4 DUP6 SUB SLT ISZERO PUSH2 0xC47 JUMPI PUSH0 DUP1 REVERT JUMPDEST DUP3 CALLDATALOAD PUSH8 0xFFFFFFFFFFFFFFFF DUP1 DUP3 GT ISZERO PUSH2 0xC5E JUMPI PUSH0 DUP1 REVERT JUMPDEST PUSH2 0xC6A DUP7 DUP4 DUP8 ADD PUSH2 0xBB9 JUMP JUMPDEST SWAP4 POP PUSH1 0x20 DUP6 ADD CALLDATALOAD SWAP2 POP DUP1 DUP3 GT ISZERO PUSH2 0xC7F JUMPI PUSH0 DUP1 REVERT JUMPDEST POP PUSH2 0xC8C DUP6 DUP3 DUP7 ADD PUSH2 0xBB9 JUMP JUMPDEST SWAP2 POP POP SWAP3 POP SWAP3 SWAP1 POP JUMP JUMPDEST PUSH1 0x20 DUP1 DUP3 MSTORE DUP3 MLOAD DUP3 DUP3 ADD DUP2 SWAP1 MSTORE PUSH0 SWAP2 SWAP1 DUP5 DUP3 ADD SWAP1 PUSH1 0x40 DUP6 ADD SWAP1 DUP5 JUMPDEST DUP2 DUP2 LT ISZERO PUSH2 0xCCD JUMPI DUP4 MLOAD DUP4 MSTORE SWAP3 DUP5 ADD SWAP3 SWAP2 DUP5 ADD SWAP2 PUSH1 0x1 ADD PUSH2 0xCB1 JUMP JUMPDEST POP SWAP1 SWAP7 SWAP6 POP POP POP POP POP POP JUMP JUMPDEST PUSH0 PUSH1 0x20 DUP1 DUP4 DUP6 SUB SLT ISZERO PUSH2 0xCEA JUMPI PUSH0 DUP1 REVERT JUMPDEST DUP3 CALLDATALOAD PUSH8 0xFFFFFFFFFFFFFFFF DUP1 DUP3 GT ISZERO PUSH2 0xD01 JUMPI PUSH0 DUP1 REVERT JUMPDEST DUP2 DUP6 ADD SWAP2 POP DUP6 PUSH1 0x1F DUP4 ADD SLT PUSH2 0xD14 JUMPI PUSH0 DUP1 REVERT JUMPDEST DUP2 CALLDATALOAD DUP2 DUP2 GT ISZERO PUSH2 0xD26 JUMPI PUSH2 0xD26 PUSH2 0xB74 JUMP JUMPDEST PUSH2 0xD38 PUSH1 0x1F DUP3 ADD PUSH1 0x1F NOT AND DUP6 ADD PUSH2 0xB88 JUMP JUMPDEST SWAP2 POP DUP1 DUP3 MSTORE DUP7 DUP5 DUP3 DUP6 ADD ADD GT ISZERO PUSH2 0xD4D JUMPI PUSH0 DUP1 REVERT JUMPDEST DUP1 DUP5 DUP5 ADD DUP6 DUP5 ADD CALLDATACOPY PUSH0 SWAP1 DUP3 ADD SWAP1 SWAP4 ADD SWAP3 SWAP1 SWAP3 MSTORE POP SWAP4 SWAP3 POP POP POP JUMP JUMPDEST PUSH0 DUP1 PUSH1 0x40 DUP4 DUP6 SUB SLT ISZERO PUSH2 0xD79 JUMPI PUSH0 DUP1 REVERT JUMPDEST DUP3 CALLDATALOAD PUSH8 0xFFFFFFFFFFFFFFFF DUP2 GT ISZERO PUSH2 0xD8F JUMPI PUSH0 DUP1 REVERT JUMPDEST PUSH2 0xD9B DUP6 DUP3 DUP7 ADD PUSH2 0xBB9 JUMP JUMPDEST SWAP6 PUSH1 0x20 SWAP5 SWAP1 SWAP5 ADD CALLDATALOAD SWAP5 POP POP POP POP JUMP JUMPDEST PUSH0 PUSH1 0x20 DUP3 DUP5 SUB SLT ISZERO PUSH2 0xDBA JUMPI PUSH0 DUP1 REVERT JUMPDEST POP CALLDATALOAD SWAP2 SWAP1 POP JUMP JUMPDEST PUSH0 JUMPDEST DUP4 DUP2 LT ISZERO PUSH2 0xDDB JUMPI DUP2 DUP2 ADD MLOAD DUP4 DUP3 ADD MSTORE PUSH1 0x20 ADD PUSH2 0xDC3 JUMP JUMPDEST POP POP PUSH0 SWAP2 ADD MSTORE JUMP JUMPDEST PUSH1 0x20 DUP2 MSTORE PUSH0 DUP3 MLOAD DUP1 PUSH1 0x20 DUP5 ADD MSTORE PUSH2 0xE01 DUP2 PUSH1 0x40 DUP6 ADD PUSH1 0x20 DUP8 ADD PUSH2 0xDC1 JUMP JUMPDEST PUSH1 0x1F ADD PUSH1 0x1F NOT AND SWAP2 SWAP1 SWAP2 ADD PUSH1 0x40 ADD SWAP3 SWAP2 POP POP JUMP JUMPDEST PUSH4 0x4E487B71 PUSH1 0xE0 SHL PUSH0 MSTORE PUSH1 0x11 PUSH1 0x4 MSTORE PUSH1 0x24 PUSH0 REVERT JUMPDEST DUP1 DUP3 ADD DUP1 DUP3 GT ISZERO PUSH2 0x2F8 JUMPI PUSH2 0x2F8 PUSH2 0xE15 JUMP JUMPDEST PUSH4 0x4E487B71 PUSH1 0xE0 SHL PUSH0 MSTORE PUSH1 0x32 PUSH1 0x4 MSTORE PUSH1 0x24 PUSH0 REVERT JUMPDEST PUSH0 PUSH1 0x1 DUP3 ADD PUSH2 0xE61 JUMPI PUSH2 0xE61 PUSH2 0xE15 JUMP JUMPDEST POP PUSH1 0x1 ADD SWAP1 JUMP JUMPDEST DUP2 DUP2 SUB DUP2 DUP2 GT ISZERO PUSH2 0x2F8 JUMPI PUSH2 0x2F8 PUSH2 0xE15 JUMP JUMPDEST PUSH0 DUP2 PUSH2 0xE89 JUMPI PUSH2 0xE89 PUSH2 0xE15 JUMP JUMPDEST POP PUSH0 NOT ADD SWAP1 JUMP JUMPDEST PUSH4 0x4E487B71 PUSH1 0xE0 SHL PUSH0 MSTORE PUSH1 0x12 PUSH1 0x4 MSTORE PUSH1 0x24 PUSH0 REVERT JUMPDEST PUSH0 DUP3 PUSH2 0xEB2 JUMPI PUSH2 0xEB2 PUSH2 0xE90 JUMP JUMPDEST POP DIV SWAP1 JUMP JUMPDEST PUSH0 DUP3 PUSH2 0xEC5 JUMPI PUSH2 0xEC5 PUSH2 0xE90 JUMP JUMPDEST POP MOD SWAP1 JUMP JUMPDEST PUSH0 DUP6 MLOAD PUSH2 0xEDB DUP2 DUP5 PUSH1 0x20 DUP11 ADD PUSH2 0xDC1 JUMP JUMPDEST DUP6 MLOAD SWAP1 DUP4 ADD SWAP1 PUSH2 0xEEF DUP2 DUP4 PUSH1 0x20 DUP11 ADD PUSH2 0xDC1 JUMP JUMPDEST DUP6 MLOAD SWAP2 ADD SWAP1 PUSH2 0xF02 DUP2 DUP4 PUSH1 0x20 DUP10 ADD PUSH2 0xDC1 JUMP JUMPDEST DUP5 MLOAD SWAP2 ADD SWAP1 PUSH2 0xF15 DUP2 DUP4 PUSH1 0x20 DUP9 ADD PUSH2 0xDC1 JUMP JUMPDEST ADD SWAP7 SWAP6 POP POP POP POP POP POP JUMP INVALID LOG2 PUSH5 0x6970667358 0x22 SLT KECCAK256 0xCE EXTCODESIZE JUMPI PREVRANDAO 0xE8 PUSH30 0xB9676F8BE8F1ED09B9B8F8826B77B452F9EED2E29E60285AE8E264736F6C PUSH4 0x43000815 STOP CALLER "
				},
				"gasEstimates": {
					"creation": {
						"codeDepositCost": "785200",
						"executionCost": "816",
						"totalCost": "786016"
					},
					"external": {
						"binarySearch(uint256[],uint256)": "infinite",
						"getReverseStr(string)": "infinite",
						"merge(uint256[],uint256[])": "infinite",
						"numToRoman(uint256)": "infinite",
						"romanToNum(string)": "infinite"
					},
					"internal": {
						"getValue(bytes1)": "infinite"
					}
				},
				"methodIdentifiers": {
					"binarySearch(uint256[],uint256)": "b12601da",
					"getReverseStr(string)": "cc0a914e",
					"merge(uint256[],uint256[])": "088b9bf6",
					"numToRoman(uint256)": "cbe541d1",
					"romanToNum(string)": "74c3ff2e"
				}
			},
			"storageLayout": {
				"storage": [],
				"types": null
			},
			"userdoc": {
				"kind": "user",
				"methods": {},
				"version": 1
			}
		}
	}
}