{
	"data": {
		"bytecode": {
			"linkReferences": {},
			"object": "608060405234801561000f575f80fd5b50610f568061001d5f395ff3fe608060405234801561000f575f80fd5b5060043610610055575f3560e01c8063088b9bf61461005957806374c3ff2e14610082578063b12601da146100a3578063cbe541d1146100b6578063cc0a914e146100d6575b5f80fd5b61006c610067366004610c36565b6100e9565b6040516100799190610c96565b60405180910390f35b610095610090366004610cd9565b6102fe565b604051908152602001610079565b6100956100b1366004610d68565b6103ba565b6100c96100c4366004610daa565b61046f565b6040516100799190610de3565b6100c96100e4366004610cd9565b610985565b81518151606091905f6100fc8284610e29565b67ffffffffffffffff81111561011457610114610b74565b60405190808252806020026020018201604052801561013d578160200160208202803683370190505b5090505f805f5b858310801561015257508482105b156102315787828151811061016957610169610e3c565b602002602001015189848151811061018357610183610e3c565b602002602001015110156101da578883815181106101a3576101a3610e3c565b60200260200101518482815181106101bd576101bd610e3c565b6020908102919091010152826101d281610e50565b93505061021f565b8782815181106101ec576101ec610e3c565b602002602001015184828151811061020657610206610e3c565b60209081029190910101528161021b81610e50565b9250505b8061022981610e50565b915050610144565b858310156102905788838151811061024b5761024b610e3c565b602002602001015184828151811061026557610265610e3c565b60209081029190910101528261027a81610e50565b935050808061028890610e50565b915050610231565b848210156102ef578782815181106102aa576102aa610e3c565b60200260200101518482815181106102c4576102c4610e3c565b6020908102919091010152816102d981610e50565b92505080806102e790610e50565b915050610290565b50919450505050505b92915050565b80515f90829080830361031457505f9392505050565b61034782610323600184610e68565b8151811061033357610333610e3c565b01602001516001600160f81b031916610a62565b9250825f610356600184610e68565b90505b80156103b1578061036981610e7b565b9150505f61038285838151811061033357610333610e3c565b90508281101561039d576103968187610e68565b95506103aa565b6103a78187610e29565b95505b9150610359565b50505050919050565b81515f9081908082036103d2575f19925050506102f8565b80821015610464575f60026103e78484610e68565b6103f19190610ea4565b6103fb9084610e29565b905085818151811061040f5761040f610e3c565b602002602001015185036104275792506102f8915050565b85818151811061043957610439610e3c565b602002602001015185111561045a57610453816001610e29565b925061045e565b8091505b506103d2565b505f19949350505050565b60605f60405180610140016040528060405180602001604052805f8152508152602001604051806040016040528060018152602001604960f81b815250815260200160405180604001604052806002815260200161494960f01b81525081526020016040518060400160405280600381526020016249494960e81b81525081526020016040518060400160405280600281526020016124ab60f11b8152508152602001604051806040016040528060018152602001602b60f91b815250815260200160405180604001604052806002815260200161564960f01b81525081526020016040518060400160405280600381526020016256494960e81b8152508152602001604051806040016040528060048152602001635649494960e01b815250815260200160405180604001604052806002815260200161092b60f31b81525081525090505f60405180610140016040528060405180602001604052805f8152508152602001604051806040016040528060018152602001600b60fb1b8152508152602001604051806040016040528060028152602001610b0b60f31b8152508152602001604051806040016040528060038152602001620b0b0b60eb1b815250815260200160405180604001604052806002815260200161161360f21b8152508152602001604051806040016040528060018152602001601360fa1b815250815260200160405180604001604052806002815260200161098b60f31b815250815260200160405180604001604052806003815260200162098b0b60eb1b815250815260200160405180604001604052806004815260200163098b0b0b60e31b815250815260200160405180604001604052806002815260200161584360f01b81525081525090505f60405180610140016040528060405180602001604052805f8152508152602001604051806040016040528060018152602001604360f81b815250815260200160405180604001604052806002815260200161434360f01b81525081526020016040518060400160405280600381526020016243434360e81b81525081526020016040518060400160405280600281526020016110d160f21b8152508152602001604051806040016040528060018152602001601160fa1b815250815260200160405180604001604052806002815260200161444360f01b81525081526020016040518060400160405280600381526020016244434360e81b8152508152602001604051806040016040528060048152602001634443434360e01b815250815260200160405180604001604052806002815260200161434d60f01b81525081525090505f604051806080016040528060405180602001604052805f8152508152602001604051806040016040528060018152602001604d60f81b8152508152602001604051806040016040528060028152602001614d4d60f01b8152508152602001604051806040016040528060038152602001624d4d4d60e81b8152508152509050806103e8876108c99190610ea4565b600481106108d9576108d9610e3c565b602002015182600a6108ec60648a610ea4565b6108f69190610eb7565b600a811061090657610906610e3c565b602002015184600a610918818b610ea4565b6109229190610eb7565b600a811061093257610932610e3c565b602002015186610943600a8b610eb7565b600a811061095357610953610e3c565b602002015160405160200161096b9493929190610eca565b604051602081830303815290604052945050505050919050565b805160609082906001811161099c57509192915050565b5f8167ffffffffffffffff8111156109b6576109b6610b74565b6040519080825280601f01601f1916602001820160405280156109e0576020820181803683370190505b5090505f5b82811015610a595783816109fa600186610e68565b610a049190610e68565b81518110610a1457610a14610e3c565b602001015160f81c60f81b828281518110610a3157610a31610e3c565b60200101906001600160f81b03191690815f1a90535080610a5181610e50565b9150506109e5565b50949350505050565b5f6001600160f81b03198216604960f81b03610a8057506001919050565b6001600160f81b03198216602b60f91b03610a9d57506005919050565b6001600160f81b03198216600b60fb1b03610aba5750600a919050565b6001600160f81b03198216601360fa1b03610ad757506032919050565b6001600160f81b03198216604360f81b03610af457506064919050565b6001600160f81b03198216601160fa1b03610b1257506101f4919050565b6001600160f81b03198216604d60f81b03610b3057506103e8919050565b60405162461bcd60e51b8152602060048201526015602482015274125b9d985b1a5908149bdb585b881b9d5b595c985b605a1b604482015260640160405180910390fd5b634e487b7160e01b5f52604160045260245ffd5b604051601f8201601f1916810167ffffffffffffffff81118282101715610bb157610bb1610b74565b604052919050565b5f82601f830112610bc8575f80fd5b8135602067ffffffffffffffff821115610be457610be4610b74565b8160051b610bf3828201610b88565b9283528481018201928281019087851115610c0c575f80fd5b83870192505b84831015610c2b57823582529183019190830190610c12565b979650505050505050565b5f8060408385031215610c47575f80fd5b823567ffffffffffffffff80821115610c5e575f80fd5b610c6a86838701610bb9565b93506020850135915080821115610c7f575f80fd5b50610c8c85828601610bb9565b9150509250929050565b602080825282518282018190525f9190848201906040850190845b81811015610ccd57835183529284019291840191600101610cb1565b50909695505050505050565b5f6020808385031215610cea575f80fd5b823567ffffffffffffffff80821115610d01575f80fd5b818501915085601f830112610d14575f80fd5b813581811115610d2657610d26610b74565b610d38601f8201601f19168501610b88565b91508082528684828501011115610d4d575f80fd5b80848401858401375f90820190930192909252509392505050565b5f8060408385031215610d79575f80fd5b823567ffffffffffffffff811115610d8f575f80fd5b610d9b85828601610bb9565b95602094909401359450505050565b5f60208284031215610dba575f80fd5b5035919050565b5f5b83811015610ddb578181015183820152602001610dc3565b50505f910152565b602081525f8251806020840152610e01816040850160208701610dc1565b601f01601f19169190910160400192915050565b634e487b7160e01b5f52601160045260245ffd5b808201808211156102f8576102f8610e15565b634e487b7160e01b5f52603260045260245ffd5b5f60018201610e6157610e61610e15565b5060010190565b818103818111156102f8576102f8610e15565b5f81610e8957610e89610e15565b505f190190565b634e487b7160e01b5f52601260045260245ffd5b5f82610eb257610eb2610e90565b500490565b5f82610ec557610ec5610e90565b500690565b5f8551610edb818460208a01610dc1565b855190830190610eef818360208a01610dc1565b8551910190610f02818360208901610dc1565b8451910190610f15818360208801610dc1565b01969550505050505056fea2646970667358221220ce3b5744e87db9676f8be8f1ed09b9b8f8826b77b452f9eed2e29e60285ae8e264736f6c63430008150033",
			"opcodes": "PUSH1 0x80 PUSH1 0x40 MSTORE CALLVALUE DUP1 ISZERO PUSH2 0xF JUMPI PUSH0 DUP1 REVERT JUMPDEST POP PUSH2 0xF56 DUP1 PUSH2 0x1D PUSH0 CODECOPY PUSH0 RETURN INVALID PUSH1 0x80 PUSH1 0x40 MSTORE CALLVALUE DUP1 ISZERO PUSH2 0xF JUMPI PUSH0 DUP1 REVERT JUMPDEST POP PUSH1 0x4 CALLDATASIZE LT PUSH2 0x55 JUMPI PUSH0 CALLDATALOAD PUSH1 0xE0 SHR DUP1 PUSH4 0x88B9BF6 EQ PUSH2 0x59 JUMPI DUP1 PUSH4 0x74C3FF2E EQ PUSH2 0x82 JUMPI DUP1 PUSH4 0xB12601DA EQ PUSH2 0xA3 JUMPI DUP1 PUSH4 0xCBE541D1 EQ PUSH2 0xB6 JUMPI DUP1 PUSH4 0xCC0A914E EQ PUSH2 0xD6 JUMPI JUMPDEST PUSH0 DUP1 REVERT JUMPDEST PUSH2 0x6C PUSH2 0x67 CALLDATASIZE PUSH1 0x4 PUSH2 0xC36 JUMP JUMPDEST PUSH2 0xE9 JUMP JUMPDEST PUSH1 0x40 MLOAD PUSH2 0x79 SWAP2 SWAP1 PUSH2 0xC96 JUMP JUMPDEST PUSH1 0x40 MLOAD DUP1 SWAP2 SUB SWAP1 RETURN JUMPDEST PUSH2 0x95 PUSH2 0x90 CALLDATASIZE PUSH1 0x4 PUSH2 0xCD9 JUMP JUMPDEST PUSH2 0x2FE JUMP JUMPDEST PUSH1 0x40 MLOAD SWAP1 DUP2 MSTORE PUSH1 0x20 ADD PUSH2 0x79 JUMP JUMPDEST PUSH2 0x95 PUSH2 0xB1 CALLDATASIZE PUSH1 0x4 PUSH2 0xD68 JUMP JUMPDEST PUSH2 0x3BA JUMP JUMPDEST PUSH2 0xC9 PUSH2 0xC4 CALLDATASIZE PUSH1 0x4 PUSH2 0xDAA JUMP JUMPDEST PUSH2 0x46F JUMP JUMPDEST PUSH1 0x40 MLOAD PUSH2 0x79 SWAP2 SWAP1 PUSH2 0xDE3 JUMP JUMPDEST PUSH2 0xC9 PUSH2 0xE4 CALLDATASIZE PUSH1 0x4 PUSH2 0xCD9 JUMP JUMPDEST PUSH2 0x985 JUMP JUMPDEST DUP2 MLOAD DUP2 MLOAD PUSH1 0x60 SWAP2 SWAP1 PUSH0 PUSH2 0xFC DUP3 DUP5 PUSH2 0xE29 JUMP JUMPDEST PUSH8 0xFFFFFFFFFFFFFFFF DUP2 GT ISZERO PUSH2 0x114 JUMPI PUSH2 0x114 PUSH2 0xB74 JUMP JUMPDEST PUSH1 0x40 MLOAD SWAP1 DUP1 DUP3 MSTORE DUP1 PUSH1 0x20 MUL PUSH1 0x20 ADD DUP3 ADD PUSH1 0x40 MSTORE DUP1 ISZERO PUSH2 0x13D JUMPI DUP2 PUSH1 0x20 ADD PUSH1 0x20 DUP3 MUL DUP1 CALLDATASIZE DUP4 CALLDATACOPY ADD SWAP1 POP JUMPDEST POP SWAP1 POP PUSH0 DUP1 PUSH0 JUMPDEST DUP6 DUP4 LT DUP1 ISZERO PUSH2 0x152 JUMPI POP DUP5 DUP3 LT JUMPDEST ISZERO PUSH2 0x231 JUMPI DUP8 DUP3 DUP2 MLOAD DUP2 LT PUSH2 0x169 JUMPI PUSH2 0x169 PUSH2 0xE3C JUMP JUMPDEST PUSH1 0x20 MUL PUSH1 0x20 ADD ADD MLOAD DUP10 DUP5 DUP2 MLOAD DUP2 LT PUSH2 0x183 JUMPI PUSH2 0x183 PUSH2 0xE3C JUMP JUMPDEST PUSH1 0x20 MUL PUSH1 0x20 ADD ADD MLOAD LT ISZERO PUSH2 0x1DA JUMPI DUP9 DUP4 DUP2 MLOAD DUP2 LT PUSH2 0x1A3 JUMPI PUSH2 0x1A3 PUSH2 0xE3C JUMP JUMPDEST PUSH1 0x20 MUL PUSH1 0x20 ADD ADD MLOAD DUP5 DUP3 DUP2 MLOAD DUP2 LT PUSH2 0x1BD JUMPI PUSH2 0x1BD PUSH2 0xE3C JUMP JUMPDEST PUSH1 0x20 SWAP1 DUP2 MUL SWAP2 SWAP1 SWAP2 ADD ADD MSTORE DUP3 PUSH2 0x1D2 DUP2 PUSH2 0xE50 JUMP JUMPDEST SWAP4 POP POP PUSH2 0x21F JUMP JUMPDEST DUP8 DUP3 DUP2 MLOAD DUP2 LT PUSH2 0x1EC JUMPI PUSH2 0x1EC PUSH2 0xE3C JUMP JUMPDEST PUSH1 0x20 MUL PUSH1 0x20 ADD ADD MLOAD DUP5 DUP3 DUP2 MLOAD DUP2 LT PUSH2 0x206 JUMPI PUSH2 0x206 PUSH2 0xE3C JUMP JUMPDEST PUSH1 0x20 SWAP1 DUP2 MUL SWAP2 SWAP1 SWAP2 ADD ADD MSTORE DUP2 PUSH2 0x21B DUP2 PUSH2 0xE50 JUMP JUMPDEST SWAP3 POP POP JUMPDEST DUP1 PUSH2 0x229 DUP2 PUSH2 0xE50 JUMP JUMPDEST SWAP2 POP POP PUSH2 0x144 JUMP JUMPDEST DUP6 DUP4 LT ISZERO PUSH2 0x290 JUMPI DUP9 DUP4 DUP2 MLOAD DUP2 LT PUSH2 0x24B JUMPI PUSH2 0x24B PUSH2 0xE3C JUMP JUMPDEST PUSH1 0x20 MUL PUSH1 0x20 ADD ADD MLOAD DUP5 DUP3 DUP2 MLOAD DUP2 LT PUSH2 0x265 JUMPI PUSH2 0x265 PUSH2 0xE3C JUMP JUMPDEST PUSH1 0x20 SWAP1 DUP2 MUL SWAP2 SWAP1 SWAP2 ADD ADD MSTORE DUP3 PUSH2 0x27A DUP2 PUSH2 0xE50 JUMP JUMPDEST SWAP4 POP POP DUP1 DUP1 PUSH2 0x288 SWAP1 PUSH2 0xE50 JUMP JUMPDEST SWAP2 POP POP PUSH2 0x231 JUMP JUMPDEST DUP5 DUP3 LT ISZERO PUSH2 0x2EF JUMPI DUP8 DUP3 DUP2 MLOAD DUP2 LT PUSH2 0x2AA JUMPI PUSH2 0x2AA PUSH2 0xE3C JUMP JUMPDEST PUSH1 0x20 MUL PUSH1 0x20 ADD ADD MLOAD DUP5 DUP3 DUP2 MLOAD DUP2 LT PUSH2 0x2C4 JUMPI PUSH2 0x2C4 PUSH2 0xE3C JUMP JUMPDEST PUSH1 0x20 SWAP1 DUP2 MUL SWAP2 SWAP1 SWAP2 ADD ADD MSTORE DUP2 PUSH2 0x2D9 DUP2 PUSH2 0xE50 JUMP JUMPDEST SWAP3 POP POP DUP1 DUP1 PUSH2 0x2E7 SWAP1 PUSH2 0xE50 JUMP JUMPDEST SWAP2 POP POP PUSH2 0x290 JUMP JUMPDEST POP SWAP2 SWAP5 POP POP POP POP POP JUMPDEST SWAP3 SWAP2 POP POP JUMP JUMPDEST DUP1 MLOAD PUSH0 SWAP1 DUP3 SWAP1 DUP1 DUP4 SUB PUSH2 0x314 JUMPI POP PUSH0 SWAP4 SWAP3 POP POP POP JUMP JUMPDEST PUSH2 0x347 DUP3 PUSH2 0x323 PUSH1 0x1 DUP5 PUSH2 0xE68 JUMP JUMPDEST DUP2 MLOAD DUP2 LT PUSH2 0x333 JUMPI PUSH2 0x333 PUSH2 0xE3C JUMP JUMPDEST ADD PUSH1 0x20 ADD MLOAD PUSH1 0x1 PUSH1 0x1 PUSH1 0xF8 SHL SUB NOT AND PUSH2 0xA62 JUMP JUMPDEST SWAP3 POP DUP3 PUSH0 PUSH2 0x356 PUSH1 0x1 DUP5 PUSH2 0xE68 JUMP JUMPDEST SWAP1 POP JUMPDEST DUP1 ISZERO PUSH2 0x3B1 JUMPI DUP1 PUSH2 0x369 DUP2 PUSH2 0xE7B JUMP JUMPDEST SWAP2 POP POP PUSH0 PUSH2 0x382 DUP6 DUP4 DUP2 MLOAD DUP2 LT PUSH2 0x333 JUMPI PUSH2 0x333 PUSH2 0xE3C JUMP JUMPDEST SWAP1 POP DUP3 DUP2 LT ISZERO PUSH2 0x39D JUMPI PUSH2 0x396 DUP2 DUP8 PUSH2 0xE68 JUMP JUMPDEST SWAP6 POP PUSH2 0x3AA JUMP JUMPDEST PUSH2 0x3A7 DUP2 DUP8 PUSH2 0xE29 JUMP JUMPDEST SWAP6 POP JUMPDEST SWAP2 POP PUSH2 0x359 JUMP JUMPDEST POP POP POP POP SWAP2 SWAP1 POP JUMP JUMPDEST DUP2 MLOAD PUSH0 SWAP1 DUP2 SWAP1 DUP1 DUP3 SUB PUSH2 0x3D2 JUMPI PUSH0 NOT SWAP3 POP POP POP PUSH2 0x2F8 JUMP JUMPDEST DUP1 DUP3 LT ISZERO PUSH2 0x464 JUMPI PUSH0 PUSH1 0x2 PUSH2 0x3E7 DUP5 DUP5 PUSH2 0xE68 JUMP JUMPDEST PUSH2 0x3F1 SWAP2 SWAP1 PUSH2 0xEA4 JUMP JUMPDEST PUSH2 0x3FB SWAP1 DUP5 PUSH2 0xE29 JUMP JUMPDEST SWAP1 POP DUP6 DUP2 DUP2 MLOAD DUP2 LT PUSH2 0x40F JUMPI PUSH2 0x40F PUSH2 0xE3C JUMP JUMPDEST PUSH1 0x20 MUL PUSH1 0x20 ADD ADD MLOAD DUP6 SUB PUSH2 0x427 JUMPI SWAP3 POP PUSH2 0x2F8 SWAP2 POP POP JUMP JUMPDEST DUP6 DUP2 DUP2 MLOAD DUP2 LT PUSH2 0x439 JUMPI PUSH2 0x439 PUSH2 0xE3C JUMP JUMPDEST PUSH1 0x20 MUL PUSH1 0x20 ADD ADD MLOAD DUP6 GT ISZERO PUSH2 0x45A JUMPI PUSH2 0x453 DUP2 PUSH1 0x1 PUSH2 0xE29 JUMP JUMPDEST SWAP3 POP PUSH2 0x45E JUMP JUMPDEST DUP1 SWAP2 POP JUMPDEST POP PUSH2 0x3D2 JUMP JUMPDEST POP PUSH0 NOT SWAP5 SWAP4 POP POP POP POP JUMP JUMPDEST PUSH1 0x60 PUSH0 PUSH1 0x40 MLOAD DUP1 PUSH2 0x140 ADD PUSH1 0x40 MSTORE DUP1 PUSH1 0x40 MLOAD DUP1 PUSH1 0x20 ADD PUSH1 0x40 MSTORE DUP1 PUSH0 DUP2 MSTORE POP DUP2 MSTORE PUSH1 0x20 ADD PUSH1 0x40 MLOAD DUP1 PUSH1 0x40 ADD PUSH1 0x40 MSTORE DUP1 PUSH1 0x1 DUP2 MSTORE PUSH1 0x20 ADD PUSH1 0x49 PUSH1 0xF8 SHL DUP2 MSTORE POP DUP2 MSTORE PUSH1 0x20 ADD PUSH1 0x40 MLOAD DUP1 PUSH1 0x40 ADD PUSH1 0x40 MSTORE DUP1 PUSH1 0x2 DUP2 MSTORE PUSH1 0x20 ADD PUSH2 0x4949 PUSH1 0xF0 SHL DUP2 MSTORE POP DUP2 MSTORE PUSH1 0x20 ADD PUSH1 0x40 MLOAD DUP1 PUSH1 0x40 ADD PUSH1 0x40 MSTORE DUP1 PUSH1 0x3 DUP2 MSTORE PUSH1 0x20 ADD PUSH3 0x494949 PUSH1 0xE8 SHL DUP2 MSTORE POP DUP2 MSTORE PUSH1 0x20 ADD PUSH1 0x40 MLOAD DUP1 PUSH1 0x40 ADD PUSH1 0x40 MSTORE DUP1 PUSH1 0x2 DUP2 MSTORE PUSH1 0x20 ADD PUSH2 0x24AB PUSH1 0xF1 SHL DUP2 MSTORE POP DUP2 MSTORE PUSH1 0x20 ADD PUSH1 0x40 MLOAD DUP1 PUSH1 0x40 ADD PUSH1 0x40 MSTORE DUP1 PUSH1 0x1 DUP2 MSTORE PUSH1 0x20 ADD PUSH1 0x2B PUSH1 0xF9 SHL DUP2 MSTORE POP DUP2 MSTORE PUSH1 0x20 ADD PUSH1 0x40 MLOAD DUP1 PUSH1 0x40 ADD PUSH1 0x40 MSTORE DUP1 PUSH1 0x2 DUP2 MSTORE PUSH1 0x20 ADD PUSH2 0x5649 PUSH1 0xF0 SHL DUP2 MSTORE POP DUP2 MSTORE PUSH1 0x20 ADD PUSH1 0x40 MLOAD DUP1 PUSH1 0x40 ADD PUSH1 0x40 MSTORE DUP1 PUSH1 0x3 DUP2 MSTORE PUSH1 0x20 ADD PUSH3 0x564949 PUSH1 0xE8 SHL DUP2 MSTORE POP DUP2 MSTORE PUSH1 0x20 ADD PUSH1 0x40 MLOAD DUP1 PUSH1 0x40 ADD PUSH1 0x40 MSTORE DUP1 PUSH1 0x4 DUP2 MSTORE PUSH1 0x20 ADD PUSH4 0x56494949 PUSH1 0xE0 SHL DUP2 MSTORE POP DUP2 MSTORE PUSH1 0x20 ADD PUSH1 0x40 MLOAD DUP1 PUSH1 0x40 ADD PUSH1 0x40 MSTORE DUP1 PUSH1 0x2 DUP2 MSTORE PUSH1 0x20 ADD PUSH2 0x92B PUSH1 0xF3 SHL DUP2 MSTORE POP DUP2 MSTORE POP SWAP1 POP PUSH0 PUSH1 0x40 MLOAD DUP1 PUSH2 0x140 ADD PUSH1 0x40 MSTORE DUP1 PUSH1 0x40 MLOAD DUP1 PUSH1 0x20 ADD PUSH1 0x40 MSTORE DUP1 PUSH0 DUP2 MSTORE POP DUP2 MSTORE PUSH1 0x20 ADD PUSH1 0x40 MLOAD DUP1 PUSH1 0x40 ADD PUSH1 0x40 MSTORE DUP1 PUSH1 0x1 DUP2 MSTORE PUSH1 0x20 ADD PUSH1 0xB PUSH1 0xFB SHL DUP2 MSTORE POP DUP2 MSTORE PUSH1 0x20 ADD PUSH1 0x40 MLOAD DUP1 PUSH1 0x40 ADD PUSH1 0x40 MSTORE DUP1 PUSH1 0x2 DUP2 MSTORE PUSH1 0x20 ADD PUSH2 0xB0B PUSH1 0xF3 SHL DUP2 MSTORE POP DUP2 MSTORE PUSH1 0x20 ADD PUSH1 0x40 MLOAD DUP1 PUSH1 0x40 ADD PUSH1 0x40 MSTORE DUP1 PUSH1 0x3 DUP2 MSTORE PUSH1 0x20 ADD PUSH3 0xB0B0B PUSH1 0xEB SHL DUP2 MSTORE POP DUP2 MSTORE PUSH1 0x20 ADD PUSH1 0x40 MLOAD DUP1 PUSH1 0x40 ADD PUSH1 0x40 MSTORE DUP1 PUSH1 0x2 DUP2 MSTORE PUSH1 0x20 ADD PUSH2 0x1613 PUSH1 0xF2 SHL DUP2 MSTORE POP DUP2 MSTORE PUSH1 0x20 ADD PUSH1 0x40 MLOAD DUP1 PUSH1 0x40 ADD PUSH1 0x40 MSTORE DUP1 PUSH1 0x1 DUP2 MSTORE PUSH1 0x20 ADD PUSH1 0x13 PUSH1 0xFA SHL DUP2 MSTORE POP DUP2 MSTORE PUSH1 0x20 ADD PUSH1 0x40 MLOAD DUP1 PUSH1 0x40 ADD PUSH1 0x40 MSTORE DUP1 PUSH1 0x2 DUP2 MSTORE PUSH1 0x20 ADD PUSH2 0x98B PUSH1 0xF3 SHL DUP2 MSTORE POP DUP2 MSTORE PUSH1 0x20 ADD PUSH1 0x40 MLOAD DUP1 PUSH1 0x40 ADD PUSH1 0x40 MSTORE DUP1 PUSH1 0x3 DUP2 MSTORE PUSH1 0x20 ADD PUSH3 0x98B0B PUSH1 0xEB SHL DUP2 MSTORE POP DUP2 MSTORE PUSH1 0x20 ADD PUSH1 0x40 MLOAD DUP1 PUSH1 0x40 ADD PUSH1 0x40 MSTORE DUP1 PUSH1 0x4 DUP2 MSTORE PUSH1 0x20 ADD PUSH4 0x98B0B0B PUSH1 0xE3 SHL DUP2 MSTORE POP DUP2 MSTORE PUSH1 0x20 ADD PUSH1 0x40 MLOAD DUP1 PUSH1 0x40 ADD PUSH1 0x40 MSTORE DUP1 PUSH1 0x2 DUP2 MSTORE PUSH1 0x20 ADD PUSH2 0x5843 PUSH1 0xF0 SHL DUP2 MSTORE POP DUP2 MSTORE POP SWAP1 POP PUSH0 PUSH1 0x40 MLOAD DUP1 PUSH2 0x140 ADD PUSH1 0x40 MSTORE DUP1 PUSH1 0x40 MLOAD DUP1 PUSH1 0x20 ADD PUSH1 0x40 MSTORE DUP1 PUSH0 DUP2 MSTORE POP DUP2 MSTORE PUSH1 0x20 ADD PUSH1 0x40 MLOAD DUP1 PUSH1 0x40 ADD PUSH1 0x40 MSTORE DUP1 PUSH1 0x1 DUP2 MSTORE PUSH1 0x20 ADD PUSH1 0x43 PUSH1 0xF8 SHL DUP2 MSTORE POP DUP2 MSTORE PUSH1 0x20 ADD PUSH1 0x40 MLOAD DUP1 PUSH1 0x40 ADD PUSH1 0x40 MSTORE DUP1 PUSH1 0x2 DUP2 MSTORE PUSH1 0x20 ADD PUSH2 0x4343 PUSH1 0xF0 SHL DUP2 MSTORE POP DUP2 MSTORE PUSH1 0x20 ADD PUSH1 0x40 MLOAD DUP1 PUSH1 0x40 ADD PUSH1 0x40 MSTORE DUP1 PUSH1 0x3 DUP2 MSTORE PUSH1 0x20 ADD PUSH3 0x434343 PUSH1 0xE8 SHL DUP2 MSTORE POP DUP2 MSTORE PUSH1 0x20 ADD PUSH1 0x40 MLOAD DUP1 PUSH1 0x40 ADD PUSH1 0x40 MSTORE DUP1 PUSH1 0x2 DUP2 MSTORE PUSH1 0x20 ADD PUSH2 0x10D1 PUSH1 0xF2 SHL DUP2 MSTORE POP DUP2 MSTORE PUSH1 0x20 ADD PUSH1 0x40 MLOAD DUP1 PUSH1 0x40 ADD PUSH1 0x40 MSTORE DUP1 PUSH1 0x1 DUP2 MSTORE PUSH1 0x20 ADD PUSH1 0x11 PUSH1 0xFA SHL DUP2 MSTORE POP DUP2 MSTORE PUSH1 0x20 ADD PUSH1 0x40 MLOAD DUP1 PUSH1 0x40 ADD PUSH1 0x40 MSTORE DUP1 PUSH1 0x2 DUP2 MSTORE PUSH1 0x20 ADD PUSH2 0x4443 PUSH1 0xF0 SHL DUP2 MSTORE POP DUP2 MSTORE PUSH1 0x20 ADD PUSH1 0x40 MLOAD DUP1 PUSH1 0x40 ADD PUSH1 0x40 MSTORE DUP1 PUSH1 0x3 DUP2 MSTORE PUSH1 0x20 ADD PUSH3 0x444343 PUSH1 0xE8 SHL DUP2 MSTORE POP DUP2 MSTORE PUSH1 0x20 ADD PUSH1 0x40 MLOAD DUP1 PUSH1 0x40 ADD PUSH1 0x40 MSTORE DUP1 PUSH1 0x4 DUP2 MSTORE PUSH1 0x20 ADD PUSH4 0x44434343 PUSH1 0xE0 SHL DUP2 MSTORE POP DUP2 MSTORE PUSH1 0x20 ADD PUSH1 0x40 MLOAD DUP1 PUSH1 0x40 ADD PUSH1 0x40 MSTORE DUP1 PUSH1 0x2 DUP2 MSTORE PUSH1 0x20 ADD PUSH2 0x434D PUSH1 0xF0 SHL DUP2 MSTORE POP DUP2 MSTORE POP SWAP1 POP PUSH0 PUSH1 0x40 MLOAD DUP1 PUSH1 0x80 ADD PUSH1 0x40 MSTORE DUP1 PUSH1 0x40 MLOAD DUP1 PUSH1 0x20 ADD PUSH1 0x40 MSTORE DUP1 PUSH0 DUP2 MSTORE POP DUP2 MSTORE PUSH1 0x20 ADD PUSH1 0x40 MLOAD DUP1 PUSH1 0x40 ADD PUSH1 0x40 MSTORE DUP1 PUSH1 0x1 DUP2 MSTORE PUSH1 0x20 ADD PUSH1 0x4D PUSH1 0xF8 SHL DUP2 MSTORE POP DUP2 MSTORE PUSH1 0x20 ADD PUSH1 0x40 MLOAD DUP1 PUSH1 0x40 ADD PUSH1 0x40 MSTORE DUP1 PUSH1 0x2 DUP2 MSTORE PUSH1 0x20 ADD PUSH2 0x4D4D PUSH1 0xF0 SHL DUP2 MSTORE POP DUP2 MSTORE PUSH1 0x20 ADD PUSH1 0x40 MLOAD DUP1 PUSH1 0x40 ADD PUSH1 0x40 MSTORE DUP1 PUSH1 0x3 DUP2 MSTORE PUSH1 0x20 ADD PUSH3 0x4D4D4D PUSH1 0xE8 SHL DUP2 MSTORE POP DUP2 MSTORE POP SWAP1 POP DUP1 PUSH2 0x3E8 DUP8 PUSH2 0x8C9 SWAP2 SWAP1 PUSH2 0xEA4 JUMP JUMPDEST PUSH1 0x4 DUP2 LT PUSH2 0x8D9 JUMPI PUSH2 0x8D9 PUSH2 0xE3C JUMP JUMPDEST PUSH1 0x20 MUL ADD MLOAD DUP3 PUSH1 0xA PUSH2 0x8EC PUSH1 0x64 DUP11 PUSH2 0xEA4 JUMP JUMPDEST PUSH2 0x8F6 SWAP2 SWAP1 PUSH2 0xEB7 JUMP JUMPDEST PUSH1 0xA DUP2 LT PUSH2 0x906 JUMPI PUSH2 0x906 PUSH2 0xE3C JUMP JUMPDEST PUSH1 0x20 MUL ADD MLOAD DUP5 PUSH1 0xA PUSH2 0x918 DUP2 DUP12 PUSH2 0xEA4 JUMP JUMPDEST PUSH2 0x922 SWAP2 SWAP1 PUSH2 0xEB7 JUMP JUMPDEST PUSH1 0xA DUP2 LT PUSH2 0x932 JUMPI PUSH2 0x932 PUSH2 0xE3C JUMP JUMPDEST PUSH1 0x20 MUL ADD MLOAD DUP7 PUSH2 0x943 PUSH1 0xA DUP12 PUSH2 0xEB7 JUMP JUMPDEST PUSH1 0xA DUP2 LT PUSH2 0x953 JUMPI PUSH2 0x953 PUSH2 0xE3C JUMP JUMPDEST PUSH1 0x20 MUL ADD MLOAD PUSH1 0x40 MLOAD PUSH1 0x20 ADD PUSH2 0x96B SWAP5 SWAP4 SWAP3 SWAP2 SWAP1 PUSH2 0xECA JUMP JUMPDEST PUSH1 0x40 MLOAD PUSH1 0x20 DUP2 DUP4 SUB SUB DUP2 MSTORE SWAP1 PUSH1 0x40 MSTORE SWAP5 POP POP POP POP POP SWAP2 SWAP1 POP JUMP JUMPDEST DUP1 MLOAD PUSH1 0x60 SWAP1 DUP3 SWAP1 PUSH1 0x1 DUP2 GT PUSH2 0x99C JUMPI POP SWAP2 SWAP3 SWAP2 POP POP JUMP JUMPDEST PUSH0 DUP2 PUSH8 0xFFFFFFFFFFFFFFFF DUP2 GT ISZERO PUSH2 0x9B6 JUMPI PUSH2 0x9B6 PUSH2 0xB74 JUMP JUMPDEST PUSH1 0x40 MLOAD SWAP1 DUP1 DUP3 MSTORE DUP1 PUSH1 0x1F ADD PUSH1 0x1F NOT AND PUSH1 0x20 ADD DUP3 ADD PUSH1 0x40 MSTORE DUP1 ISZERO PUSH2 0x9E0 JUMPI PUSH1 0x20 DUP3 ADD DUP2 DUP1 CALLDATASIZE DUP4 CALLDATACOPY ADD SWAP1 POP JUMPDEST POP SWAP1 POP PUSH0 JUMPDEST DUP3 DUP2 LT ISZERO PUSH2 0xA59 JUMPI DUP4 DUP2 PUSH2 0x9FA PUSH1 0x1 DUP7 PUSH2 0xE68 JUMP JUMPDEST PUSH2 0xA04 SWAP2 SWAP1 PUSH2 0xE68 JUMP JUMPDEST DUP2 MLOAD DUP2 LT PUSH2 0xA14 JUMPI PUSH2 0xA14 PUSH2 0xE3C JUMP JUMPDEST PUSH1 0x20 ADD ADD MLOAD PUSH1 0xF8 SHR PUSH1 0xF8 SHL DUP3 DUP3 DUP2 MLOAD DUP2 LT PUSH2 0xA31 JUMPI PUSH2 0xA31 PUSH2 0xE3C JUMP JUMPDEST PUSH1 0x20 ADD ADD SWAP1 PUSH1 0x1 PUSH1 0x1 PUSH1 0xF8 SHL SUB NOT AND SWAP1 DUP2 PUSH0 BYTE SWAP1 MSTORE8 POP DUP1 PUSH2 0xA51 DUP2 PUSH2 0xE50 JUMP JUMPDEST SWAP2 POP POP PUSH2 0x9E5 JUMP JUMPDEST POP SWAP5 SWAP4 POP POP POP POP JUMP JUMPDEST PUSH0 PUSH1 0x1 PUSH1 0x1 PUSH1 0xF8 SHL SUB NOT DUP3 AND PUSH1 0x49 PUSH1 0xF8 SHL SUB PUSH2 0xA80 JUMPI POP PUSH1 0x1 SWAP2 SWAP1 POP JUMP JUMPDEST PUSH1 0x1 PUSH1 0x1 PUSH1 0xF8 SHL SUB NOT DUP3 AND PUSH1 0x2B PUSH1 0xF9 SHL SUB PUSH2 0xA9D JUMPI POP PUSH1 0x5 SWAP2 SWAP1 POP JUMP JUMPDEST PUSH1 0x1 PUSH1 0x1 PUSH1 0xF8 SHL SUB NOT DUP3 AND PUSH1 0xB PUSH1 0xFB SHL SUB PUSH2 0xABA JUMPI POP PUSH1 0xA SWAP2 SWAP1 POP JUMP JUMPDEST PUSH1 0x1 PUSH1 0x1 PUSH1 0xF8 SHL SUB NOT DUP3 AND PUSH1 0x13 PUSH1 0xFA SHL SUB PUSH2 0xAD7 JUMPI POP PUSH1 0x32 SWAP2 SWAP1 POP JUMP JUMPDEST PUSH1 0x1 PUSH1 0x1 PUSH1 0xF8 SHL SUB NOT DUP3 AND PUSH1 0x43 PUSH1 0xF8 SHL SUB PUSH2 0xAF4 JUMPI POP PUSH1 0x64 SWAP2 SWAP1 POP JUMP JUMPDEST PUSH1 0x1 PUSH1 0x1 PUSH1 0xF8 SHL SUB NOT DUP3 AND PUSH1 0x11 PUSH1 0xFA SHL SUB PUSH2 0xB12 JUMPI POP PUSH2 0x1F4 SWAP2 SWAP1 POP JUMP JUMPDEST PUSH1 0x1 PUSH1 0x1 PUSH1 0xF8 SHL SUB NOT DUP3 AND PUSH1 0x4D PUSH1 0xF8 SHL SUB PUSH2 0xB30 JUMPI POP PUSH2 0x3E8 SWAP2 SWAP1 POP JUMP JUMPDEST PUSH1 0x40 MLOAD PUSH3 0x461BCD PUSH1 0xE5 SHL DUP2 MSTORE PUSH1 0x20 PUSH1 0x4 DUP3 ADD MSTORE PUSH1 0x15 PUSH1 0x24 DUP3 ADD MSTORE PUSH21 0x125B9D985B1A5908149BDB585B881B9D5B595C985B PUSH1 0x5A SHL PUSH1 0x44 DUP3 ADD MSTORE PUSH1 0x64 ADD PUSH1 0x40 MLOAD DUP1 SWAP2 SUB SWAP1 REVERT JUMPDEST PUSH4 0x4E487B71 PUSH1 0xE0 SHL PUSH0 MSTORE PUSH1 0x41 PUSH1 0x4 MSTORE PUSH1 0x24 PUSH0 REVERT JUMPDEST PUSH1 0x40 MLOAD PUSH1 0x1F DUP3 ADD PUSH1 0x1F NOT AND DUP2 ADD PUSH8 0xFFFFFFFFFFFFFFFF DUP2 GT DUP3 DUP3 LT OR ISZERO PUSH2 0xBB1 JUMPI PUSH2 0xBB1 PUSH2 0xB74 JUMP JUMPDEST PUSH1 0x40 MSTORE SWAP2 SWAP1 POP JUMP JUMPDEST PUSH0 DUP3 PUSH1 0x1F DUP4 ADD SLT PUSH2 0xBC8 JUMPI PUSH0 DUP1 REVERT JUMPDEST DUP2 CALLDATALOAD PUSH1 0x20 PUSH8 0xFFFFFFFFFFFFFFFF DUP3 GT ISZERO PUSH2 0xBE4 JUMPI PUSH2 0xBE4 PUSH2 0xB74 JUMP JUMPDEST DUP2 PUSH1 0x5 SHL PUSH2 0xBF3 DUP3 DUP3 ADD PUSH2 0xB88 JUMP JUMPDEST SWAP3 DUP4 MSTORE DUP5 DUP2 ADD DUP3 ADD SWAP3 DUP3 DUP2 ADD SWAP1 DUP8 DUP6 GT ISZERO PUSH2 0xC0C JUMPI PUSH0 DUP1 REVERT JUMPDEST DUP4 DUP8 ADD SWAP3 POP JUMPDEST DUP5 DUP4 LT ISZERO PUSH2 0xC2B JUMPI DUP3 CALLDATALOAD DUP3 MSTORE SWAP2 DUP4 ADD SWAP2 SWAP1 DUP4 ADD SWAP1 PUSH2 0xC12 JUMP JUMPDEST SWAP8 SWAP7 POP POP POP POP POP POP POP JUMP JUMPDEST PUSH0 DUP1 PUSH1 0x40 DUP4 DUP6 SUB SLT ISZERO PUSH2 0xC47 JUMPI PUSH0 DUP1 REVERT JUMPDEST DUP3 CALLDATALOAD PUSH8 0xFFFFFFFFFFFFFFFF DUP1 DUP3 GT ISZERO PUSH2 0xC5E JUMPI PUSH0 DUP1 REVERT JUMPDEST PUSH2 0xC6A DUP7 DUP4 DUP8 ADD PUSH2 0xBB9 JUMP JUMPDEST SWAP4 POP PUSH1 0x20 DUP6 ADD CALLDATALOAD SWAP2 POP DUP1 DUP3 GT ISZERO PUSH2 0xC7F JUMPI PUSH0 DUP1 REVERT JUMPDEST POP PUSH2 0xC8C DUP6 DUP3 DUP7 ADD PUSH2 0xBB9 JUMP JUMPDEST SWAP2 POP POP SWAP3 POP SWAP3 SWAP1 POP JUMP JUMPDEST PUSH1 0x20 DUP1 DUP3 MSTORE DUP3 MLOAD DUP3 DUP3 ADD DUP2 SWAP1 MSTORE PUSH0 SWAP2 SWAP1 DUP5 DUP3 ADD SWAP1 PUSH1 0x40 DUP6 ADD SWAP1 DUP5 JUMPDEST DUP2 DUP2 LT ISZERO PUSH2 0xCCD JUMPI DUP4 MLOAD DUP4 MSTORE SWAP3 DUP5 ADD SWAP3 SWAP2 DUP5 ADD SWAP2 PUSH1 0x1 ADD PUSH2 0xCB1 JUMP JUMPDEST POP SWAP1 SWAP7 SWAP6 POP POP POP POP POP POP JUMP JUMPDEST PUSH0 PUSH1 0x20 DUP1 DUP4 DUP6 SUB SLT ISZERO PUSH2 0xCEA JUMPI PUSH0 DUP1 REVERT JUMPDEST DUP3 CALLDATALOAD PUSH8 0xFFFFFFFFFFFFFFFF DUP1 DUP3 GT ISZERO PUSH2 0xD01 JUMPI PUSH0 DUP1 REVERT JUMPDEST DUP2 DUP6 ADD SWAP2 POP DUP6 PUSH1 0x1F DUP4 ADD SLT PUSH2 0xD14 JUMPI PUSH0 DUP1 REVERT JUMPDEST DUP2 CALLDATALOAD DUP2 DUP2 GT ISZERO PUSH2 0xD26 JUMPI PUSH2 0xD26 PUSH2 0xB74 JUMP JUMPDEST PUSH2 0xD38 PUSH1 0x1F DUP3 ADD PUSH1 0x1F NOT AND DUP6 ADD PUSH2 0xB88 JUMP JUMPDEST SWAP2 POP DUP1 DUP3 MSTORE DUP7 DUP5 DUP3 DUP6 ADD ADD GT ISZERO PUSH2 0xD4D JUMPI PUSH0 DUP1 REVERT JUMPDEST DUP1 DUP5 DUP5 ADD DUP6 DUP5 ADD CALLDATACOPY PUSH0 SWAP1 DUP3 ADD SWAP1 SWAP4 ADD SWAP3 SWAP1 SWAP3 MSTORE POP SWAP4 SWAP3 POP POP POP JUMP JUMPDEST PUSH0 DUP1 PUSH1 0x40 DUP4 DUP6 SUB SLT ISZERO PUSH2 0xD79 JUMPI PUSH0 DUP1 REVERT JUMPDEST DUP3 CALLDATALOAD PUSH8 0xFFFFFFFFFFFFFFFF DUP2 GT ISZERO PUSH2 0xD8F JUMPI PUSH0 DUP1 REVERT JUMPDEST PUSH2 0xD9B DUP6 DUP3 DUP7 ADD PUSH2 0xBB9 JUMP JUMPDEST SWAP6 PUSH1 0x20 SWAP5 SWAP1 SWAP5 ADD CALLDATALOAD SWAP5 POP POP POP POP JUMP JUMPDEST PUSH0 PUSH1 0x20 DUP3 DUP5 SUB SLT ISZERO PUSH2 0xDBA JUMPI PUSH0 DUP1 REVERT JUMPDEST POP CALLDATALOAD SWAP2 SWAP1 POP JUMP JUMPDEST PUSH0 JUMPDEST DUP4 DUP2 LT ISZERO PUSH2 0xDDB JUMPI DUP2 DUP2 ADD MLOAD DUP4 DUP3 ADD MSTORE PUSH1 0x20 ADD PUSH2 0xDC3 JUMP JUMPDEST POP POP PUSH0 SWAP2 ADD MSTORE JUMP JUMPDEST PUSH1 0x20 DUP2 MSTORE PUSH0 DUP3 MLOAD DUP1 PUSH1 0x20 DUP5 ADD MSTORE PUSH2 0xE01 DUP2 PUSH1 0x40 DUP6 ADD PUSH1 0x20 DUP8 ADD PUSH2 0xDC1 JUMP JUMPDEST PUSH1 0x1F ADD PUSH1 0x1F NOT AND SWAP2 SWAP1 SWAP2 ADD PUSH1 0x40 ADD SWAP3 SWAP2 POP POP JUMP JUMPDEST PUSH4 0x4E487B71 PUSH1 0xE0 SHL PUSH0 MSTORE PUSH1 0x11 PUSH1 0x4 MSTORE PUSH1 0x24 PUSH0 REVERT JUMPDEST DUP1 DUP3 ADD DUP1 DUP3 GT ISZERO PUSH2 0x2F8 JUMPI PUSH2 0x2F8 PUSH2 0xE15 JUMP JUMPDEST PUSH4 0x4E487B71 PUSH1 0xE0 SHL PUSH0 MSTORE PUSH1 0x32 PUSH1 0x4 MSTORE PUSH1 0x24 PUSH0 REVERT JUMPDEST PUSH0 PUSH1 0x1 DUP3 ADD PUSH2 0xE61 JUMPI PUSH2 0xE61 PUSH2 0xE15 JUMP JUMPDEST POP PUSH1 0x1 ADD SWAP1 JUMP JUMPDEST DUP2 DUP2 SUB DUP2 DUP2 GT ISZERO PUSH2 0x2F8 JUMPI PUSH2 0x2F8 PUSH2 0xE15 JUMP JUMPDEST PUSH0 DUP2 PUSH2 0xE89 JUMPI PUSH2 0xE89 PUSH2 0xE15 JUMP JUMPDEST POP PUSH0 NOT ADD SWAP1 JUMP JUMPDEST PUSH4 0x4E487B71 PUSH1 0xE0 SHL PUSH0 MSTORE PUSH1 0x12 PUSH1 0x4 MSTORE PUSH1 0x24 PUSH0 REVERT JUMPDEST PUSH0 DUP3 PUSH2 0xEB2 JUMPI PUSH2 0xEB2 PUSH2 0xE90 JUMP JUMPDEST POP DIV SWAP1 JUMP JUMPDEST PUSH0 DUP3 PUSH2 0xEC5 JUMPI PUSH2 0xEC5 PUSH2 0xE90 JUMP JUMPDEST POP MOD SWAP1 JUMP JUMPDEST PUSH0 DUP6 MLOAD PUSH2 0xEDB DUP2 DUP5 PUSH1 0x20 DUP11 ADD PUSH2 0xDC1 JUMP JUMPDEST DUP6 MLOAD SWAP1 DUP4 ADD SWAP1 PUSH2 0xEEF DUP2 DUP4 PUSH1 0x20 DUP11 ADD PUSH2 0xDC1 JUMP JUMPDEST DUP6 MLOAD SWAP2 ADD SWAP1 PUSH2 0xF02 DUP2 DUP4 PUSH1 0x20 DUP10 ADD PUSH2 0xDC1 JUMP JUMPDEST DUP5 MLOAD SWAP2 ADD SWAP1 PUSH2 0xF15 DUP2 DUP4 PUSH1 0x20 DUP9 ADD PUSH2 0xDC1 JUMP JUMPDEST ADD SWAP7 SWAP6 POP POP POP POP POP POP JUMP INVALID LOG2 PUSH5 0x6970667358 0x22 SLT KECCAK256 0xCE EXTCODESIZE JUMPI PREVRANDAO 0xE8 PUSH30 0xB9676F8BE8F1ED09B9B8F8826B77B452F9EED2E29E60285AE8E264736F6C PUSH4 0x43000815 STOP CALLER "
		},
		"gasEstimates": {
			"creation": {
				"codeDepositCost": "785200",
				"executionCost": "816",
				"totalCost": "786016"
			},
			"external": {
				"binarySearch(uint256[],uint256)": "infinite",
				"getReverseStr(string)": "infinite",
				"merge(uint256[],uint256[])": "infinite",
				"numToRoman(uint256)": "infinite",
				"romanToNum(string)": "infinite"
			},
			"internal": {
				"getValue(bytes1)": "infinite"
			}
		},
		"methodIdentifiers": {
			"binarySearch(uint256[],uint256)": "b12601da",
			"getReverseStr(string)": "cc0a914e",
			"merge(uint256[],uint256[])": "088b9bf6",
			"numToRoman(uint256)": "cbe541d1",
			"romanToNum(string)": "74c3ff2e"
		}
	},
	"abi": [
		{
			"inputs": [
				{
					"internalType": "uint256[]",
					"name": "arr",
					"type": "uint256[]"
				},
				{
					"internalType": "uint256",
					"name": "num",
					"type": "uint256"
				}
			],
			"name": "binarySearch",
			"outputs": [
				{
					"internalType": "int256",
					"name": "",
					"type": "int256"
				}
			],
			"stateMutability": "pure",
			"type": "function"
		},
		{
			"inputs": [
				{
					"internalType": "string",
					"name": "str",
					"type": "string"
				}
			],
			"name": "getReverseStr",
			"outputs": [
				{
					"internalType": "string",
					"name": "",
					"type": "string"
				}
			],
			"stateMutability": "pure",
			"type": "function"
		},
		{
			"inputs": [
				{
					"internalType": "uint256[]",
					"name": "arr1",
					"type": "uint256[]"
				},
				{
					"internalType": "uint256[]",
					"name": "arr2",
					"type": "uint256[]"
				}
			],
			"name": "merge",
			"outputs": [
				{
					"internalType": "uint256[]",
					"name": "",
					"type": "uint256[]"
				}
			],
			"stateMutability": "pure",
			"type": "function"
		},
		{
			"inputs": [
				{
					"internalType": "uint256",
					"name": "num",
					"type": "uint256"
				}
			],
			"name": "numToRoman",
			"outputs": [
				{
					"internalType": "string",
					"name": "",
					"type": "string"
				}
			],
			"stateMutability": "pure",
			"type": "function"
		},
		{
			"inputs": [
				{
					"internalType": "string",
					"name": "s",
					"type": "string"
				}
			],
			"name": "romanToNum",
			"outputs": [
				{
					"internalType": "uint256",
					"name": "res",
					"type": "uint256"
				}
			],
			"stateMutability": "pure",
			"type": "function"
		}
	]
}